S0200000726F626F7661635F6D6F64756C61725F736F6674776172652E73726563FB
S11300000C9434000C9451000C9451000C94510045
S11300100C9451000C9451000C9451000C94510018
S11300200C9451000C9451000C9451000C94510008
S11300300C9451000C9451000C9497010C945100B1
S11300400C9451000C9451000C9451000C945100E8
S11300500C9451000C9451000C9451000C945100D8
S11300600C9451000C94510011241FBECFEFD8E022
S1130070DEBFCDBF11E0A0E0B1E0E6E5FBE102C0E8
S113008005900D92AA39B107D9F721E0AAE9B1E0A8
S113009001C01D92AF3AB207E1F70E9486010C94A9
S11300A0A90D0C94000010927C00EAE7F0E0808136
S11300B087688083EEE7F0E080818160808380E060
S11300C00895ECE7F0E08081807F8083EAE7F0E048
S11300D0808180648083808186FDFDCF20917800BB
S11300E08091790090E0982F8827820F911D0895C0
S11300F00E94530081E008950E946100BC01990FA1
S1130100880B990B0E94160920E030E04AE754E47A
S11301100E94A2092DEC38E144EF55E40E946C08DA
S11301200E94E50860930001809100018E3118F46B
S113013081E48093AD018091000108958091AD0127
S113014008950E947C00089560919E0170919F0122
S11301508091A0019091A10128EE33E040E050E0AD
S11301600E94230AC9010895CF92DF92EF92FF9271
S11301700F931F93CF93DF9300D0CDB7DEB78111D8
S113018014C060919E0170919F018091A001909193
S1130190A10128EE33E040E050E00E94230A3093AE
S11301A0AC012093AB0180E022C08130F9F46A01F4
S11301B07B011A82198260919E0170919F01809146
S11301C0A0019091A10128EE33E040E050E00E94AC
S11301D0230A8E010F5F1F4FA601B7018091AB0167
S11301E09091AC010E94E801898101C08FEF0F90CA
S11301F00F90DF91CF911F910F91FF90EF90DF90BF
S1130200CF90089580E0089580E0089580E00895F7
S113021080E00895BC01E9EBF0E080818E7F80836B
S113022080818D7F808380EA9FE00E940F0A862F61
S1130230603148F0772760517109CB0199230CF4A0
S11302400196959587958093B800089584E690E08B
S11302500E940A01ECEBF0E08081846080830895C1
S11302603C9A84EA8093BC0008958091BC00882362
S11302704CF08AE590E0ECEBF0E02081222314F0CE
S11302800197D9F70895EFE9FFE03197F1F700C03E
S113029000003C9A8093BB0084E88093BC000895DE
S11302A00E9430010E9435018CE30E9443010E94A8
S11302B0350182E00E9443010E94350180E00E94E2
S11302C043010E94350184E98093BC00089580E3D2
S11302D088B90E9426010E945001089582E084BDDD
S11302E092E895BD98EC97BD80936E00089560E800
S11302F075E280E090E00E942D030E9467010E9455
S11303009F020E9478000E946E0108950E94770166
S113031078941092AE018091AE01811106C00E94C2
S11303201E088091AE018823D1F3F894EFCF1F9279
S11303300F920FB60F9211242F933F934F935F9315
S11303406F937F938F939F93AF93BF93EF93FF9399
S11303500E94BD010E94E402FF91EF91BF91AF9111
S11303609F918F917F916F915F914F913F912F91C9
S11303700F900FBE0F901F90189580919C01909143
S11303809D01019690939D0180939C0180919C0115
S113039090919D01883E9340D1F410929D0110925A
S11303A09C0180919E0190919F01A091A001B09128
S11303B0A10120910101820F911DA11DB11D809306
S11303C09E0190939F01A093A001B093A101089571
S11303D08F929F92AF92BF92CF92DF92EF92FF9251
S11303E00F931F93FC01CB01B9016E1B7F0BDA0144
S11303F0A81BB90B6A1B7B0BD8016D937C93C0902F
S11304009E01D0909F01E090A001F090A101092EDF
S1130410000CAA0BBB0B4F01FF0FAA08BB088819DD
S11304209909AA09BB09052E000C660B770B8901F3
S1130430330F220B330B401B510B620B730B480F12
S1130440591F6A1F7B1FDB01CA0177231CF4019625
S1130450A11DB11D9C01AD01559547953795279573
S1130460A8EEB3E00E94450AC60ED71EE81EF91E88
S1130470C0929E01D0929F01E092A001F092A1014E
S113048060919E0170919F018091A0019091A101C2
S113049028EE33E040E050E00E94230AC9011F9196
S11304A00F91FF90EF90DF90CF90BF90AF909F900F
S11304B08F90089580919C0190919D0126B501969D
S11304C034E6389FB001399F700D112482E3289FD0
S11304D0600D711D112480E090E0089580E008957E
S11304E0EF92FF920F931F93CF93DF9300D0CDB77A
S11304F0DEB77C018B0119821A82BE016E5F7F4FC9
S1130500CE0101960E94A102298130E0F7013183D6
S113051020832A8130E0F801318320830F900F90EB
S1130520DF91CF911F910F91FF90EF90089580E09C
S1130530089580E0089580E0089580E00895549A35
S11305400895CF93DF938091AA01811139C0EB0103
S11305508091A2019091A301A091A401B091A50161
S1130560BC01CD0196958795779567950E941409EE
S113057028E23EE74CE05DE30E94A2090E94DE0807
S11305806E3F710514F06FEF70E068835C9A8AE641
S11305908A95F1F700C05C981092A6011092A70109
S11305A01092A8011092A9011092A2011092A30125
S11305B01092A4011092A50181E08093AA0101C0C8
S11305C08FEFDF91CF9108950F931F938091AA012C
S11305D0813079F44A9B0DC00E945A026093A201B3
S11305E07093A3018093A4019093A50182E080936A
S11305F0AA018091AA01823069F54A992BC00E9410
S11306005A020091A2011091A3012091A4013091FA
S1130610A501601771078207930720F46056794794
S11306208E4F9F4F0091A2011091A3012091A4012C
S11306303091A501DC01CB01801B910BA20BB30B04
S11306408093A2019093A301A093A401B093A50168
S11306501092AA011F910F910895DC01CB01880F1C
S1130660991FAA1FBB1F880F991FAA1FBB1F9C019C
S1130670AD01220F331F441F551F60E074E284EF65
S113068090E00E94230A2150310982E08093C00047
S11306903093C5002093C40088E18093C10086E0B4
S11306A08093C2000895E0ECF0E0908195FFFDCFC7
S11306B08093C6000895E0ECF0E080818823ECF795
S11306C08091C6000895CF93DF93EC01888188233D
S11306D031F021960E94530389918111FBCFDF9160
S11306E0CF910895EF92FF921F93CF93DF93EC0184
S11306F07B010E945B038A30A9F091E0E91AF108BA
S11307001E141F047CF410E02196FE0131978083AF
S11307101F5F0E945B038A3029F0212F30E02E15E1
S11307203F0594F31882CE01DF91CF911F91FF9082
S1130730EF90089580E0089580E00895CF92DF92CD
S1130740EF92FF920F931F93CF93DF93CDB7DEB752
S1130750A5970FB6F894DEBF0FBECDBF7C018B0109
S113076060E270E0CE0101960E94720389818734B1
S113077021F08D3409F476C0F6C18A81803309F002
S1130780F4C18B818033B1F58C81803209F0EFC1E3
S113079088E599E59AA389A380E290E09CA38BA3C2
S11307A0BE016F5D7F4FCE0101960E947D0A892BA9
S11307B0E9F0BE016F5D7F4F80E090E00E947D0A0A
S11307C06C010E945F0AF70191838083CD2881F038
S11307D0BE016F5D7F4F80E090E00E947D0A0E9421
S11307E05F0AF8019183808380E0DCC18FEFDAC176
S11307F08FEFD8C1813309F0BCC18C81803209F0FC
S1130800BAC18D818C3461F48CE490E0F70191835A
S113081080830F2EF2E0EF2EF1E0FF2EF02D0EC0BC
S1130820823509F0AAC182E590E0F70191838083C3
S11308300F2EF5E0EF2EF1E0FF2EF02DB701CE01E3
S113084001960E947D0A892B09F499C1B70180E0C1
S113085090E00E947D0A0E945F0AF80191838083E0
S113086081E0A0C18A81803309F0FFC08B8180338D
S1130870D1F48C81803259F48D81833541F4CE01D9
S113088006960E945F0AF7019183808305C08FEF6B
S11308909FEFF701918380838FEF9FEFF80191839E
S11308A0808384E67FC1813351F48FEF9FEFF7019A
S11308B091838083F8019183808385E673C18233B9
S11308C051F48FEF9FEFF70191838083F8019183B7
S11308D0808386E667C1833351F48FEF9FEFF7017E
S11308E091838083F8019183808387E65BC184339D
S11308F051F48FEF9FEFF70191838083F801918387
S1130900808388E64FC18533B1F59C81903209F02C
S11309105DC088E599E59AA389A380E290E09CA351
S11309208BA3BE016F5D7F4FCE0101960E947D0AAD
S1130930892BE9F0BE016F5D7F4F80E090E00E945B
S11309407D0A6C010E945F0AF70191838083CD28A0
S113095081F0BE016F5D7F4F80E090E00E947D0AD0
S11309600E945F0AF8019183808389E61BC18FEF9F
S113097019C18FEF17C1863349F59C81903209F074
S11309804CC085E0E8E0F1E0DE01919601900D9223
S11309908A95E1F7BE016F5D7F4FCE0101960E94FB
S11309A07D0A892B89F0BE016F5D7F4F80E090E066
S11309B00E947D0A0E945F0AF70191838083F801F7
S11309C0118210828AE6EEC08FEFECC0873329F5DE
S11309D08C81803209F0D5C083E590E29AA389A383
S11309E01BA2BE016F5D7F4FCE0101960E947D0A5E
S11309F0892B89F0BE016F5D7F4F80E090E00E94FB
S1130A007D0A0E945F0AF70191838083F8011182B5
S1130A1010828BE6C7C08FEFC5C0883309F0B3C01E
S1130A208C81803209F0B1C083E590E29AA389A356
S1130A301BA2BE016F5D7F4FCE0101960E947D0A0D
S1130A40892B89F0BE016F5D7F4F80E090E00E94AA
S1130A507D0A0E945F0AF70191838083F801118265
S1130A6010828CE69FC08FEF9DC0893361F48B8127
S1130A70893309F08CC0F70111821082F8011182C8
S1130A80108287EC8FC0833361F48B81803309F04B
S1130A9080C0F70111821082F8011182108282E86D
S1130AA081C0813361F48B81813309F074C0F70113
S1130AB011821082F801118210828FE673C0823392
S1130AC061F48B81803309F068C0F70111821082D0
S1130AD0F8011182108288E765C0843309F05FC091
S1130AE08B81813309F05DC08C81803241F0F70144
S1130AF011821082F801118210828DE853C0809116
S1130B000D0190910E01A0910F01B091100189A3E4
S1130B109AA3ABA3BCA3BE016F5D7F4FCE01019628
S1130B200E947D0A892BE9F0BE016F5D7F4F80E052
S1130B3090E00E947D0A6C010E945F0AF701918394
S1130B408083CD2871F0BE016F5D7F4F80E090E01F
S1130B500E947D0A0E945F0AF801918380838DE8D8
S1130B6021C08FEF1FC08FEF1DC08FEF1BC08FEF11
S1130B7019C08FEF17C08FEF15C08FEF13C08FEF21
S1130B8011C08FEF0FC08FEF0DC08FEF0BC08FEF31
S1130B9009C08FEF07C08FEF05C08FEF03C08FEF41
S1130BA001C08FEFA5960FB6F894DEBF0FBECDBF80
S1130BB0DF91CF911F910F91FF90EF90DF90CF9035
S1130BC008950F931F93CF93DF93CDB7DEB76F973D
S1130BD00FB6F894DEBF0FBECDBF8F3F71F48FE127
S1130BE0EAE5F1E0DE01119601900D928A95E1F7B4
S1130BF0CE0101960E9463030FC16F3F9FEF7907F7
S1130C00B1F58436D8F099E2899F812D112482951B
S1130C108F701F928F9381E191E09F938F931F9226
S1130C208BE08F93CE0101969F938F930E94B10A1C
S1130C300FB6F894DEBF0FBECDBF14C01F928F93C2
S1130C408CE191E09F938F931F928BE08F93CE0161
S1130C5001969F938F930E94B10A0FB6F894DEBF5A
S1130C600FBECDBFCE0101960E946303D5C0853669
S1130C7061F128F4882369F08130C9F0A5C08F366A
S1130C8009F440C08D3809F475C0873609F09CC05A
S1130C9056C08CE0E9E7F1E0DE01119601900D9277
S1130CA08A95E1F7CE0101960E946303B5C08CE0FA
S1130CB0E5E8F1E0DE01119601900D928A95E1F7E5
S1130CC0CE0101960E946303A7C03F932F935F93C5
S1130CD04F937F936F9387E291E09F938F931F923B
S1130CE089E18F938E010F5F1F4F1F930F930E9413
S1130CF0B10AC8010E9463030FB6F894DEBF0FBEA9
S1130D00CDBF8AC03F932F935F934F937F936F938D
S1130D1087E391E09F938F931F9289E18F938E01D4
S1130D200F5F1F4F1F930F930E94B10AC8010E94C7
S1130D3063030FB6F894DEBF0FBECDBF6DC03F9303
S1130D402F935F934F9387E491E09F938F931F9228
S1130D5082E18F938E010F5F1F4F1F930F930E94A9
S1130D60B10AC8010E9463030FB6F894DEBF0FBE38
S1130D70CDBF52C02F3F3F4F71F488E0E1E9F1E06D
S1130D80DE01119601900D928A95E1F7CE0101964C
S1130D900E94630341C07F936F9383E591E09F9327
S1130DA08F931F928AE08F938E010F5F1F4F1F93C3
S1130DB00F930E94B10AC8010E9463030FB6F8940E
S1130DC0DEBF0FBECDBF28C02F3F3F4F69F48FE475
S1130DD09BE49A8389838AE090E09C838B83CE0191
S1130DE001960E94630318C07F936F9383E591E09B
S1130DF09F938F931F928AE08F938E010F5F1F4FF3
S1130E001F930F930E94B10AC8010E9463030FB697
S1130E10F894DEBF0FBECDBF6F960FB6F894DEBF59
S1130E200FBECDBFDF91CF911F910F910895AF9267
S1130E30BF92CF92DF92EF92FF920F931F93CF93C3
S1130E40DF936B015A01E9012FEF3FEF39832883C8
S1130E50F80131832083F70131832083893609F433
S1130E60B4C088F4853609F466C038F4813099F149
S1130E7030F1843609F44BC0D6C0873609F47BC000
S1130E8008F467C080C08F3609F45CC048F48B3620
S1130E9009F4AAC008F4A1C08C3609F4ACC0C3C0DC
S1130EA0823809F4AFC020F4883709F45BC0BBC0B2
S1130EB08D3809F470C0873C09F4AEC0B4C00E94F8
S1130EC00201813009F0AFC0B501C6010E940401DE
S1130ED019821882A8C00E940201813009F0A3C0BF
S1130EE0FCE4CF16D10439F4B5018FEF0E9406015A
S1130EF01982188298C082E5C816D10409F093C0FB
S1130F00B50181E00E940601198218828CC06F3FEE
S1130F10EFEF7E0749F40E949A0390E09983888357
S1130F20F701118210827FC0862F0E949C0390E0FB
S1130F309983888378C09701A801BE0181E40E9447
S1130F406E0271C09701A801BE018FE40E946E0277
S1130F506AC00E949E0090E099838883F701118201
S1130F60108261C00E94A10090E099838883F701F8
S1130F701182108258C0B701C8010E94700290E02B
S1130F809983888350C00E94A40099838883F701C1
S1130F901182108248C0672B61F4452B51F440E064
S1130FA050E060E070E080E00E94B4001982188292
S1130FB03AC0A501B60181E00E94B40090E0998393
S1130FC08883F701118210822EC0BA01C6010E94E3
S1130FD0970290E09983888326C0CB010E949902EE
S1130FE090E0998388831FC0CB010E949B0290E00C
S1130FF09983888318C0CB010E949D0290E0998355
S1131000888311C00E94080180E00E949C0381E053
S113101090E09983888307C081E08093AE0181E0EA
S113102090E099838883DF91CF911F910F91FF9076
S1131030EF90DF90CF90BF90AF900895DF92EF9242
S1131040FF920F931F93CF93DF93CDB7DEB72A9709
S11310500FB6F894DEBF0FBECDBF8091C0008823C9
S11310606CF58FEF9FEF9A8389839C838B839E8398
S11310708D8398878F839A878987BE016D5F7F4FA1
S1131080CE0101960E949E03D82E4B815C8169811A
S11310907A81CE0109967C018E01095F1F4F9E0162
S11310A02B5F3F4F8D2D0E94170729853A854F816D
S11310B058856D817E818D2D0E94E1052A960FB69B
S11310C0F894DEBF0FBECDBFDF91CF911F910F917A
S11310D0FF90EF90DF9008950E9480080C946809B7
S11310E00E94610958F00E945A0940F029F45F3FB8
S11310F029F00C94510951110C949C090C94570932
S11311000E94790968F39923B1F3552391F3951B50
S1131110550BBB27AA2762177307840738F09F5F14
S11311205F4F220F331F441FAA1FA9F335D00E2E81
S11311303AF0E0E832D091505040E695001CCAF7EE
S11311402BD0FE2F29D0660F771F881FBB1F2617B1
S113115037074807AB07B0E809F0BB0B802DBF0188
S1131160FF2793585F4F3AF09E3F510578F00C9457
S113117051090C949C095F3FE4F3983ED4F386959F
S113118077956795B795F7959F5FC9F7880F911D78
S11311909695879597F90895E1E0660F771F881F64
S11311A0BB1F621773078407BA0720F0621B730B17
S11311B0840BBA0BEE1F88F7E09508950E94E508AA
S11311C06894B1110C949C0908950E94810988F0D7
S11311D09F5798F0B92F9927B751B0F0E1F0660FF7
S11311E0771F881F991F1AF0BA95C9F714C0B13038
S11311F091F00E949B09B1E008950C949B09672F1C
S1131200782F8827B85F39F0B93FCCF38695779566
S11312106795B395D9F73EF490958095709561954F
S11312207F4F8F4F9F4F0895E89409C097FB3EF47A
S113123090958095709561957F4F8F4F9F4F99231F
S1131240A9F0F92F96E9BB279395F695879577959D
S11312506795B795F111F8CFFAF4BB0F11F460FF5D
S11312601BC06F5F7F4F8F4F9F4F16C0882311F0B5
S113127096E911C0772321F09EE8872F762F05C0C9
S1131280662371F096E8862F70E060E02AF09A9564
S1131290660F771F881FDAF7880F9695879597F959
S11312A0089597F99F6780E870E060E008959FEFE4
S11312B080EC089500240A941616170618060906E9
S11312C0089500240A9412161306140605060895B8
S11312D0092E0394000C11F4882352F0BB0F40F440
S11312E0BF2B11F460FF04C06F5F7F4F8F4F9F4F80
S11312F0089557FD9058440F551F59F05F3F71F002
S11313004795880F97FB991F61F09F3F79F0879568
S11313100895121613061406551FF2CF4695F1DFF1
S113132008C0161617061806991FF1CF8695710581
S1131330610508940895E894BB2766277727CB01B5
S113134097F908950E94B5090C9468090E945A09F6
S113135038F00E94610920F0952311F00C94510992
S11313600C94570911240C949C090E94790970F378
S1131370959FC1F3950F50E0551F629FF001729F36
S1131380BB27F00DB11D639FAA27F00DB11DAA1F45
S1131390649F6627B00DA11D661F829F2227B00D92
S11313A0A11D621F739FB00DA11D621F839FA00D1D
S11313B0611D221F749F3327A00D611D231F849F6D
S11313C0600D211D822F762F6A2F11249F575040C4
S11313D09AF0F1F088234AF0EE0FFF1FBB1F661F3F
S11313E0771F881F91505040A9F79E3F510580F008
S11313F00C9451090C949C095F3FE4F3983ED4F398
S1131400869577956795B795F795E7959F5FC1F7AB
S1131410FE2B880F911D9695879597F90895AA1B21
S1131420BB1B51E107C0AA1FBB1FA617B70710F0CB
S1131430A61BB70B881F991F5A95A9F780959095FD
S1131440BC01CD010895A1E21A2EAA1BBB1BFD010C
S11314500DC0AA1FBB1FEE1FFF1FA217B307E4078F
S1131460F50720F0A21BB30BE40BF50B661F771FE7
S1131470881F991F1A9469F76095709580959095C7
S11314809B01AC01BD01CF0108950E94500AA59FA4
S1131490900DB49F900DA49F800D911D112408956B
S11314A0A29FB001B39FC001A39F700D811D1124A1
S11314B0911DB29F700D811D1124911D0895FC0191
S11314C088279927E89421912032E9F3293010F0F4
S11314D02E30C8F32B3241F02D3239F4689404C015
S11314E00E94A90A820F911D219120532A30C0F332
S11314F01EF4909581959F4F08954AE951E00E940A
S1131500820A0895FA01A191B081009719F4109705
S1131510E1F0CD01DC01CD010D90002011F4C001FA
S113152013C0FB012191222319F02015D9F7F3CF21
S1131530FB012191201519F41E92119606C0222355
S1131540C1F70D900020A1F7D001FA01A193B08357
S113155008957AE0979F902D879F802D910D1124F7
S11315600895AEE0B0E0E7EBFAE00C94800D0D894D
S11315701E898F89988D26E02C831A83098397FF0F
S113158002C080E090E801979E838D83AE01455EA2
S11315905F4F698D7A8DCE0101960E94E10A4D81DB
S11315A05E8157FD0AC02F813885421753070CF41A
S11315B09A01F801E20FF31F10822E96E4E00C94D6
S11315C09C0DABE0B0E0E7EEFAE00C94720D6C0118
S11315D07B018A01FC0117821682838181FFCCC1C1
S11315E0CE0101963C01F6019381F70193FD8591AB
S11315F093FF81917F01882309F4BAC1853239F4BC
S113160093FD859193FF81917F01853229F4B60181
S113161090E00E94D80CE7CF912C212C312CFFE1D3
S1131620F315D8F08B3279F038F4803279F08332C4
S1131630A1F4232D20611DC08D3261F0803369F443
S1131640232D216016C0832D8260382EE32DE460A3
S11316503E2E2AC0F32DF8601DC037FC2DC020EDAE
S1131660280F2A3040F08E32B9F436FC81C1232D84
S11316702064322E19C036FE06C08AE0989E200DE2
S11316801124922E11C0EAE02E9E200D1124222E48
S1131690F32DF0623F2E08C08C3621F4832D806830
S11316A0382E02C0883641F4F70193FD859193FFEB
S11316B081917F018111B3CF982F9F7D95549330F1
S11316C028F40C5F1F4F9FE399830DC0833631F0DC
S11316D0833771F0833509F059C021C0F801808146
S11316E089830E5F1F4F88248394912C530113C068
S11316F02801F2E04F0E511CF801A080B18036FEA3
S113170003C0692D70E002C06FEF7FEFC5010E9436
S1131710CD0C4C018201F32DFF773F2E16C028011A
S113172022E0420E511CF801A080B18036FE03C0B5
S1131730692D70E002C06FEF7FEFC5010E94C20CFB
S11317404C01F32DF0683F2E820133FC1BC0822D27
S113175090E088169906B0F4B60180E290E00E9409
S1131760D80C2A94F4CFF50137FC859137FE81918A
S11317705F01B60190E00E94D80C21102A9421E068
S1131780821A91088114910471F7E8C0843611F02B
S1131790893641F5F80137FE07C060817181828185
S11317A093810C5F1F4F08C060817181072E000C6C
S11317B0880B990B0E5F1F4FF32DFF763F2E97FF7B
S11317C009C090958095709561957F4F8F4F9F4F7D
S11317D0F0683F2E2AE030E0A3010E94140D882E09
S11317E0861845C0853731F4232D2F7EB22E2AE08A
S11317F030E025C0932D997FB92E8F36C1F018F4AF
S1131800883579F0B5C0803719F0883721F0B0C039
S1131810E92FE061BE2EB4FE0DC0FB2DF460BF2E97
S113182009C034FE0AC0292F2660B22E06C028E063
S113183030E005C020E130E002C020E132E0F801F0
S1131840B7FE07C060817181828193810C5F1F4F55
S113185006C06081718180E090E00E5F1F4FA3019C
S11318600E94140D882E8618FB2DFF773F2E36FE1E
S11318700DC0232D2E7FA22E891458F434FE0BC0E4
S113188032FC09C0832D8E7EA82E05C0B82CA32C53
S113189003C0B82C01C0B92CA4FE0FC0FE01E80D92
S11318A0F11D8081803321F49A2D997EA92E09C0DF
S11318B0A2FE06C0B394B39404C08A2D867809F0BE
S11318C0B394A3FC11C0A0FE06C0B21488F4280C83
S11318D0922C9B180EC0B21460F4B60180E290E022
S11318E00E94D80CB394F7CFB21418F42B1802C08A
S11318F0982C212CA4FE10C0B60180E390E00E9435
S1131900D80CA2FE17C0A1FC03C088E790E002C077
S113191088E590E0B6010CC08A2D867859F0A1FEC6
S113192002C08BE201C080E2A7FC8DE2B60190E028
S11319300E94D80C891438F4B60180E390E00E9428
S1131940D80C9A94F7CF8A94F301E80DF11D8081A5
S1131950B60190E00E94D80C8110F5CF222009F442
S113196042CEB60180E290E00E94D80C2A94F6CFD1
S1131970F6018681978102C08FEF9FEF2B96E2E1FB
S11319800C948E0DFC010590615070400110D8F745
S1131990809590958E0F9F1F0895FC0161507040B3
S11319A001900110D8F7809590958E0F9F1F089590
S11319B00F931F93CF93DF93FB01238121FD03C07A
S11319C08FEF9FEF2CC022FF16C0468157812481E0
S11319D035814217530744F4A081B1819D012F5FE3
S11319E03F4F318320838C93268137812F5F3F4F74
S11319F03783268314C08B01EC01FB010084F1853D
S1131A00E02D0995892BE1F6D80116968D919C91CC
S1131A101797019617969C938E931697CE01DF9194
S1131A20CF911F910F910895FA01AA27283051F1FF
S1131A30203181F1E8946F936E7F6E5F7F4F8F4FFB
S1131A409F4FAF4FB1E03ED0B4E03CD0670F781F5A
S1131A50891F9A1FA11D680F791F8A1F911DA11D3F
S1131A606A0F711D811D911DA11D20D009F4689478
S1131A703F912AE0269F11243019305D3193DEF620
S1131A80CF010895462F4770405D4193B3E00FD0D6
S1131A90C9F7F6CF462F4F70405D4A3318F0495DC1
S1131AA031FD4052419302D0A9F7EACFB4E0A695A4
S1131AB09795879577956795BA95C9F700976105C6
S1131AC0710508959B01AC010A2E0694579547951C
S1131AD037952795BA95C9F7620F731F841F951F11
S1131AE0A01D08952F923F924F925F926F927F9222
S1131AF08F929F92AF92BF92CF92DF92EF92FF921A
S1131B000F931F93CF93DF93CDB7DEB7CA1BDB0BC5
S1131B100FB6F894DEBF0FBECDBF09942A8839886A
S1131B2048885F846E847D848C849B84AA84B98471
S1131B30C884DF80EE80FD800C811B81AA81B9817D
S1131B40CE0FD11D0FB6F894DEBF0FBECDBFED0191
S1091B500895F894FFCF94
S1131B567C604C200052200041200D0A00494F2091
S1131B66004552524F52204D25640A004552524FA9
S1131B7652204725640A004F4B20582564205925D6
S1131B8664204125640A004F4B20582564205925BA
S1131B9664204F25640A004F4B204C2564205225AF
S1131BA6640A004F4B2025640A004552524F5220C6
S1131BB6636F756C64206E6F74207265636F676EF5
S1131BC6697A6520434D440A004F4B2042555359C8
S1131BD62047300A004F4B20425553592047310ABB
S10D1BE6004F4B204D34310A00007B
S9030000FC
