S0200000726F626F7661635F6D6F64756C61725F736F6674776172652E73726563FB
S11300000C945A000C9477000C9477000C947700AD
S11300100C9477000C9477000C9477000C94770080
S11300200C9477000C9477000C9477000C94770070
S11300300C9477000C9477000C9448050C9477008A
S11300400C9477000C9477000C9477000C94770050
S11300500C9477000C9477000C9477000C94770040
S11300600C9477000C947700084AD73B3BCE016E82
S113007084BCBFFDC12F3D6C74319ABD56833DDAFB
S11300803D00C77F11BED9E4BB4C3E916BAAAABE0A
S1130090000000803F05A84CCDB2D44EB93836A933
S11300A0020C50B9918688083CA6AAAA2ABE000070
S11300B000803F0011241FBECFEFD8E0DEBFCDBFCC
S11300C011E0A0E0B1E0E8E2FEE202C005900D928A
S11300D0AE39B107D9F721E0AEE9B1E001C01D9214
S11300E0AF3CB207E1F70E9432050C9412170C944E
S11300F0000010927C00EAE7F0E08081876880834A
S1130100EEE7F0E080818160808380E00895ECE791
S1130110F0E08081807F8083EAE7F0E08081806482
S11301208083808186FDFDCF2091780080917900C5
S113013090E0982F8827820F911D08950E947900DE
S113014081E008950E948700BC01990F880B990BE8
S11301500E946C1020E030E04AE754E40E94A411AD
S11301602DEC38E144EF55E40E94C20F0E943B108D
S11301706093000180910001823318F48CE4809331
S1130180CD01809100018E3118F481E48093CD017A
S113019080910001089581E48093CD0187B18C6042
S11301A087B981E008958091CD0108950E94A2004D
S11301B00895AF92BF92CF92DF92EF92FF920F9386
S11301C01F932091AE013091AF014091B001509145
S11301D0B1016091B2017091B3018091B401909129
S11301E0B5010F2EF8EEAF2EF02D0F2EF3E0BF2E3B
S11301F0F02DC12CD12CE12CF12C00E010E00E9458
S11302002813822F932F1F910F91FF90EF90DF906F
S1130210CF90BF90AF9008956F927F928F929F92EC
S1130220AF92BF92CF92DF92EF92FF920F931F9300
S1130230CF93DF9300D0CDB7DEB74B013A018111E4
S113024026C02091AE013091AF014091B001509190
S1130250B1016091B2017091B3018091B4019091A8
S1130260B5010F2EF8EEAF2EF02D0F2EF3E0BF2EBA
S1130270F02DC12CD12CE12CF12C00E010E00E94D7
S113028028132093CB013093CC0180E032C081301D
S113029079F51A8219822091AE013091AF01409113
S11302A0B0015091B1016091B2017091B30180919C
S11302B0B4019091B5010F2EF8EEAF2EF02D0F2E54
S11302C0F3E0BF2EF02DC12CD12CE12CF12C00E059
S11302D010E00E9428138E010F5F1F4FA301B40189
S11302E08091CB019091CC010E94D605898101C0F7
S11302F08FEF0F900F90DF91CF911F910F91FF908F
S1130300EF90DF90CF90BF90AF909F908F907F90B1
S11303106F9008950E94EA010E949A060E94A2002A
S11303208091CD01823569F18091CD018334B1F0A2
S113033018F48134F9F029C08C34D1F0833529F5CF
S1130340439898B188B1909594708B7F892B88B924
S11303500E94F2011092A90181E00895439A98B194
S113036088B1909594708B7F892B88B981E008952A
S1130370439A429A4398429A80E00E94D10981E0CC
S11303800895439A429881E0089580E0089591E0A9
S11303909093A1011092A2011092A3011092A401C2
S11303A01092A5011092A6011092A7011092A80123
S11303B08FEF809301011092A0018AB1806E8AB9F7
S11303C084B1876084B98BB180668BB99093A9019D
S11303D081E008958091A901813019F492E5909308
S11303E0CD0108955F9A289A85B1866085B981E028
S11303F08093A1011092A2011092A3011092A40172
S11304001092A5011092A6011092A7011092A801C2
S11304101092A0010895AF92BF92CF92DF92EF9213
S1130420FF920F931F932091AE013091AF01409141
S1130430B0015091B1016091B2017091B30180910A
S1130440B4019091B501A090A101B090A201C09017
S1130450A301D090A401E090A501F090A601009121
S1130460A7011091A8010E949E132093A10130932B
S1130470A2014093A3015093A4016093A50170933A
S1130480A6018093A7019093A8015F98289A2998C0
S11304902A9A8091A0018111FCCF1F910F91FF90A6
S11304A0EF90DF90CF90BF90AF9008954F925F92FE
S11304B06F927F928F929F92AF92BF92CF92DF9270
S11304C0EF92FF920F931F93CF93DF93F92F6090D6
S11304D0A1017090A2018090A3019090A401D091F9
S11304E0A501C091A6015090A7014090A801A82F92
S11304F0E92FEE0FEE0B282F392F4E2F5E2F6E2F84
S11305007E2F8E2F9E2F02E00E948513A22EB32EE3
S1130510C42ED52EE62EF72EB82F192F05E00E94F3
S113052085130B2F0E94A713AA2EBF2ECE2EDE2ECC
S1130530EE2EFE2E0E2F1E2F0E949E1303E00E940D
S11305408513B0900601A09005011B2D110F110B0E
S1130550C12ED12EE12EF12E012F0E942813A62C9C
S1130560B72CC82CD92CED2EFC2E052D142D0E9451
S1130570CD122093A1013093A2014093A301509383
S1130580A4016093A5017093A6018093A7019093A1
S1130590A80181E08093A0010E940B0281E0DF9119
S11305A0CF911F910F91FF90EF90DF90CF90BF906C
S11305B0AF909F908F907F906F905F904F90089531
S11305C0AF92BF92CF92DF92EF92FF920F931F935D
S11305D02091AE013091AF014091B0015091B10131
S11305E06091B2017091B3018091B4019091B50111
S11305F0A090A101B090A201C090A301D090A40149
S1130600E090A501F090A6010091A7011091A80126
S11306100E949E132093A1013093A2014093A30151
S11306205093A4016093A5017093A6018093A70140
S11306309093A80180910101813029F45F98289A50
S11306402A98299A04C05F9A289829982A9A80910E
S1130650A0018111FCCF1F910F91FF90EF90DF90CB
S1130660CF90BF90AF9008954F925F926F927F9218
S11306708F929F92AF92BF92CF92DF92EF92FF92AE
S11306800F931F93CF93DF93CDB7DEB72A970FB69F
S1130690F894DEBF0FBECDBF809301014090A1014D
S11306A05090A2016090A3017090A4018090A501D4
S11306B09090A601E090A701EA86F090A801F9863F
S11306C07B0100E010E020E030E0A9016983FA82B8
S11306D00B831C832D833E834F835887262F3F2D06
S11306E040E050E060E070E080E090E002E00E94D2
S11306F08513A22EB32EC42ED52EE62EF72EE82F68
S1130700192F05E00E9485130E2F0E94A713A980BC
S1130710BA80C12CD12CE12CF12C00E010E00E9415
S11307209E1303E00E948513B0900401A09003017E
S11307301B2D110F110BC12ED12EE12EF12E012FE5
S11307400E942813A42CB52CC62CD72CE82CF92CE9
S11307500A8519850E94CD122093A1013093A2012C
S11307604093A3015093A4016093A5017093A60143
S11307708093A7019093A80182E08093A0010E9436
S1130780E00281E02A960FB6F894DEBF0FBECDBF1B
S1130790DF91CF911F910F91FF90EF90DF90CF9059
S11307A0BF90AF909F908F907F906F905F904F908D
S11307B008954F925F926F927F928F929F92AF9221
S11307C0BF92CF92DF92EF92FF92CF93DF9300D04C
S11307D000D0CDB7DEB72091A001211171C07B01FB
S11307E0BC018091BE019091BF01C090BC01D0902A
S11307F0BD01681B790B072E000C880B990B0E9416
S11308006C104B015C01B7016C197D09072E000CBB
S1130810880B990B0E946C106B017C01A50194015B
S11308200E945E0F0E9434102B013C01A50194012B
S1130830C501B4010E94A41169837A838B839C83CC
S1130840A5019401C501B4010E94A4114B015C01EE
S1130850A7019601C701B6010E94A4119B01AC0136
S1130860C501B4010E94DF0E0E941F120E943410C1
S11308706B017C015B018091BA019091BB019201F3
S1130880281B390BC9011816190674F08091BA0196
S11308909091BB019201281B390BC901892F880F44
S11308A0880B882329F001C081E0B2010E9434033F
S11308B01A141B043CF4C6010E94560281E003C0D2
S11308C080E001C081E00F900F900F900F90DF91B6
S11308D0CF91FF90EF90DF90CF90BF90AF909F901B
S11308E08F907F906F905F904F900895AF92BF92DA
S11308F0CF92DF92EF92FF920F931F932091AE015C
S11309003091AF014091B0015091B1016091B201B9
S11309107091B3018091B4019091B501A090A101AF
S1130920B090A201C090A301D090A401E090A501D1
S1130930F090A6010091A7011091A8010E94B013A4
S113094019F010F00E94F20181E01F910F91FF90C5
S1130950EF90DF90CF90BF90AF900895BC01E9EB8A
S1130960F0E080818E7F808380818D7F808380EA28
S11309709FE00E948C12862F603148F077276051E7
S11309807109CB0199230CF4019695958795809371
S1130990B800089584E690E00E94AE04ECEBF0E029
S11309A080818460808308953C9A84EA8093BC00AB
S11309B008958091BC0088234CF08AE590E0ECEB2C
S11309C0F0E02081222314F00197D9F70895EFE98C
S11309D0FFE03197F1F700C000003C9A8093BB0020
S11309E084E88093BC0008950E94D4040E94D90432
S11309F08CE30E94E7040E94D90482E00E94E70489
S1130A000E94D90480E00E94E7040E94D90484E98A
S1130A108093BC00089580E388B90E94CA040E94B0
S1130A20F404089582E084BD92E895BD98EC97BDE6
S1130A3080936E00089560E875E280E090E00E9483
S1130A405E090E94CB000E940B050E945C080E9474
S1130A509E000E9412050E94C7010E9490060E94F7
S1130A60CB0908950E941B0578941092CE018091C1
S1130A70CE01811106C00E94900E8091CE01882380
S1130A80D1F3F894EFCF0E9413070E948A010895CE
S1130A901F920F920FB60F9211242F933F934F93EF
S1130AA05F936F937F938F939F93AF93BF93EF93D2
S1130AB0FF930E9486050E94D1080E9476048091CB
S1130AC0AA019091AB0101969093AB018093AA0186
S1130AD08091AA019091AB01883E934031F4109229
S1130AE0AB011092AA010E944305FF91EF91BF91BF
S1130AF0AF919F918F917F916F915F914F913F91B2
S1130B002F910F900FBE0F901F901895AF92BF9228
S1130B10CF92DF92EF92FF920F931F938091AC01DB
S1130B209091AD0101969093AD018093AC018091B9
S1130B30AC019091AD01883E934079F51092AD01DE
S1130B401092AC01A090AE01B090AF01C090B00182
S1130B50D090B101E090B201F090B3010091B401E2
S1130B601091B5012091020130E040E050E060E0D6
S1130B7070E080E090E00E949E132093AE013093D9
S1130B80AF014093B0015093B1016093B2017093EF
S1130B90B3018093B4019093B5011F910F91FF901D
S1130BA0EF90DF90CF90BF90AF9008954F925F92F7
S1130BB06F927F92AF92BF92CF92DF92EF92FF92A9
S1130BC00F931F93FA01A901481B590BDF01A61BC0
S1130BD0B70B4A1B5B0BD8014D935C93A090AE01FD
S1130BE0B090AF01C090B001D090B101E090B201DB
S1130BF0F090B3010091B4011091B501AB01770FEE
S1130C00660B770B2C01990F66087708DB01CA0184
S1130C1084199509A609B709AF01FF0F660B770B75
S1130C202901330F660877084419550966097709BD
S1130C30480F591F6A1F7B1FDB01CA0177231CF46D
S1130C400196A11DB11D9C01AD01559547953795A0
S1130C502795A8EEB3E00E94C2122B013C01770C49
S1130C604408542C3201262F372F482F592F642D36
S1130C70742D842D942D0E949E132093AE013093E5
S1130C80AF014093B0015093B1016093B2017093EE
S1130C90B3018093B4019093B5012091AE013091DA
S1130CA0AF014091B0015091B1016091B2017091D6
S1130CB0B3018091B4019091B5010F2EF8EEAF2EDF
S1130CC0F02D0F2EF3E0BF2EF02DC12CD12CE12CF2
S1130CD0F12C00E010E00E942813822F932F1F9123
S1130CE00F91FF90EF90DF90CF90BF90AF907F90E7
S1130CF06F905F904F9008958091AC019091AD01F9
S1130D0026B5019634E6389FB001399F700D112441
S1130D1082E3289F600D711D112480E090E0089506
S1130D201092060110920501109204011092030121
S1130D3081E008958091050190910601892B31F09D
S1130D408091030190910401892B19F483E4809329
S1130D50CD0181E008950E945E0808950F931F93CA
S1130D60CF93DF9300D000D0CDB7DEB7E091BE01C2
S1130D70F091BF01DB01ED93FC936091BC01709194
S1130D80BD01FA01718360838F3401F5890180E923
S1130D9091E09C838B839A838983BE016F5F7F4F2D
S1130DA0CE0103960E94AB068B819C810F9724F0A1
S1130DB089819A810F9734F481E090E0D8018D9372
S1130DC09C930BC0F8011182108207C08091BA0174
S1130DD09091BB01D9018D939C9380E00F900F906B
S1130DE00F900F90DF91CF911F910F9108959093E1
S1130DF0BF018093BE017093BD016093BC0181E08B
S1130E0008959093BB018093BA0181E00895909373
S1130E1006018093050181E0089590930401809375
S1130E20030181E008952F923F925F926F927F9227
S1130E308F929F92AF92BF92CF92DF92EF92FF92E6
S1130E400F931F93CF93DF93CDB7DEB72E970FB6D3
S1130E50F894DEBF0FBECDBF8091A001882309F4B2
S1130E60F6C00091AE011091AF01B090B001A09016
S1130E70B1012090B2015090B3016090B401709020
S1130E80B501C090B601D090B701E090B801F090E0
S1130E90B901209106012E8730900501220F220B03
S1130EA02D876091BA017091BB01072E000C880B4D
S1130EB0990B0E946C1029E23CE54FE85CE30E9428
S1130EC0A4110E94BD0F69877A878B879C878090C5
S1130ED0BE019090BF01A701960160E070E0CB01D4
S1130EE0C9823A834B835C836D837E838F83988727
S1130EF0202F312F4B2D5A2D622D752D862D972D98
S1130F00A980BA80CB80DC80E12CF12C00E010E0D9
S1130F100E94A713A32CBE84CD84DC2CEC2CFC2CC7
S1130F200C2D1C2D0E94CD120E94A71029853A85F4
S1130F304B855C850E94A4116B017C01B401990C62
S1130F40880B990B0E946C109B01AC01C701B60180
S1130F500E94DF0E0E9434107093BF016093BE01A3
S1130F600091AE011091AF01B090B001A090B10119
S1130F702090B2015090B3016090B4017090B5011B
S1130F80C090B601D090B701E090B801F090B901DB
S1130F906091BA017091BB01072E000C880B990B6C
S1130FA00E946C1029E23CE54FE85CE30E94A41126
S1130FB00E94111269877A878B879C878090BC0175
S1130FC09090BD01A701960160E070E0CB01C98259
S1130FD03A834B835C836D837E838F839887202F32
S1130FE0312F4B2D5A2D622D752D862D972DA980CD
S1130FF0BA80CB80DC80E12CF12C00E010E00E9470
S1131000A713A32CBE84CD84DC2CEC2CFC2C0C2D3F
S11310101C2D0E94CD120E94A71029853A854B856C
S11310205C850E94A4116B017C01B401990C880BAE
S1131030990B0E946C109B01AC01C701B6010E9480
S1131040DF0E0E9434107093BD016093BC01509177
S1131050AE014091AF013091B0012091B101809176
S1131060B2018091B3018091B4018091B501852FC3
S1131070942FA32FB22F8093B6019093B701A0931E
S1131080B801B093B90181E02E960FB6F894DEBF93
S11310900FBECDBFDF91CF911F910F91FF90EF90C5
S11310A0DF90CF90BF90AF909F908F907F906F9084
S11310B05F903F902F900895549A0895CF92DF92B5
S11310C0EF92FF920F931F93CF93DF938C01EB0169
S11310D08091C4019091C501A091C601B091C7014E
S11310E0BC01CD0196958795779567950E946A1006
S11310F028E23EE74CE05DE30E94A4110E94341014
S11311006B017C018091C0019091C101A091C20149
S1131110B091C301BC01CD019695879577956795EC
S11311200E946A1028E23EE74CE05DE30E94A411AD
S11311300E943410960141E9C41641E0D40614F02B
S113114020E931E0F801318320836139F1E07F0740
S113115014F060E971E0798368835C9A4AE64A9501
S1131160F1F700C05C981092C4011092C50110926E
S1131170C6011092C7011092C0011092C1011092D1
S1131180C2011092C30181E08093C9018093C80118
S1131190DF91CF911F910F91FF90EF90DF90CF904F
S11311A008950F931F938091C901813079F44B9B6B
S11311B00DC00E947C066093C4017093C5018093A6
S11311C0C6019093C70182E08093C9018091C9014F
S11311D0823069F54B992BC00E947C060091C401B2
S11311E01091C5012091C6013091C70160177107A4
S11311F08207930720F4605679478E4F9F4F0091E2
S1131200C4011091C5012091C6013091C701DC01D0
S1131210CB01801B910BA20BB30B8093C401909361
S1131220C501A093C601B093C7011092C901809172
S1131230C801813079F44A9B0DC00E947C066093FA
S1131240C0017093C1018093C2019093C30182E0F5
S11312508093C8018091C801823069F54A992BC0F6
S11312600E947C060091C0011091C1012091C2012D
S11312703091C301601771078207930720F4605609
S113128079478E4F9F4F0091C0011091C101209169
S1131290C2013091C301DC01CB01801B910BA20B75
S11312A0B30B8093C0019093C101A093C201B0938A
S11312B0C3011092C8011F910F910895DC01CB0165
S11312C0880F991FAA1FBB1F880F991FAA1FBB1F36
S11312D09C01AD01220F331F441F551F60E074E2CF
S11312E084EF90E00E94A0122150310982E08093A3
S11312F0C0003093C5002093C40088E18093C100EE
S113130086E08093C2000895E0ECF0E0908195FFC0
S1131310FDCF8093C6000895E0ECF0E0808188233F
S1131320ECF78091C6000895CF93DF93EC01888198
S1131330882331F021960E94840989918111FBCF81
S1131340DF91CF910895EF92FF921F93CF93DF9394
S1131350EC017B010E948C098A30A9F091E0E91A22
S1131360F1081E141F047CF410E02196FE0131974D
S113137080831F5F0E948C098A3029F0212F30E07E
S11313802E153F0594F31882CE01DF91CF911F9162
S1131390FF90EF900895399A81E008958091CA01F1
S11313A008958093CA01813039F48091CD0181344C
S11313B019F0419A81E00895419880E00895CF9210
S11313C0DF92EF92FF920F931F93CF93DF93CDB7EA
S11313D0DEB7A5970FB6F894DEBF0FBECDBF7C0174
S11313E08B0160E270E0CE0101960E94A30989811D
S11313F0873421F08D3409F476C004C28A818033A5
S113140009F002C28B818033B1F58C81803209F0FE
S1131410FDC188E599E59AA389A380E290E09CA3A5
S11314208BA3BE016F5D7F4FCE0101960E94E61330
S1131430892BE9F0BE016F5D7F4F80E090E00E9450
S1131440E6136C010E94C813F70191838083CD28B1
S113145081F0BE016F5D7F4F80E090E00E94E61353
S11314600E94C813F8019183808380E0ECC18FEF60
S1131470EAC18FEFE8C1813309F0CAC18C8180329F
S113148009F0C8C18D818C3461F48CE490E0F701DB
S1131490918380830F2EF7E0EF2EF1E0FF2EF02DE5
S11314A00EC0823509F0B8C182E590E0F70191835E
S11314B080830F2EFAE0EF2EF1E0FF2EF02DB7011E
S11314C0CE0101960E94E613892B09F4A7C1B70146
S11314D080E090E00E94E6130E94C813F801918313
S11314E0808381E0B0C18A81803309F0FFC08B81A1
S11314F08033D1F48C81803259F48D81833541F469
S1131500CE0106960E94C813F7019183808305C01B
S11315108FEF9FEFF701918380838FEF9FEFF801A7
S11315209183808384E68FC1813351F48FEF9FEFE1
S1131530F70191838083F8019183808385E683C1D9
S1131540823351F48FEF9FEFF70191838083F80189
S11315509183808386E677C1833351F48FEF9FEFC5
S1131560F70191838083F8019183808387E66BC1BF
S1131570843351F48FEF9FEFF70191838083F80157
S11315809183808388E65FC18533B1F59C81903275
S113159009F05DC088E599E59AA389A380E290E00B
S11315A09CA38BA3BE016F5D7F4FCE0101960E9469
S11315B0E613892BE9F0BE016F5D7F4F80E090E078
S11315C00E94E6136C010E94C813F7019183808383
S11315D0CD2881F0BE016F5D7F4F80E090E00E94D6
S11315E0E6130E94C813F8019183808389E62BC116
S11315F08FEF29C18FEF27C1863349F59C81903243
S113160009F04CC085E0EDE0F1E0DE019196019037
S11316100D928A95E1F7BE016F5D7F4FCE01019671
S11316200E94E613892B89F0BE016F5D7F4F80E035
S113163090E00E94E6130E94C813F701918380830F
S1131640F801118210828AE6FEC08FEFFCC0873356
S113165029F58C81803209F0E3C083E590E29AA3F6
S113166089A31BA2BE016F5D7F4FCE0101960E942C
S1131670E613892B89F0BE016F5D7F4F80E090E017
S11316800E94E6130E94C813F70191838083F80136
S1131690118210828BE6D7C08FEFD5C0883309F052
S11316A0C1C08C81803209F0BFC083E590E29AA367
S11316B089A31BA2BE016F5D7F4FCE0101960E94DC
S11316C0E613892B89F0BE016F5D7F4F80E090E0C7
S11316D00E94E6130E94C813F70191838083F801E6
S11316E0118210828CE6AFC08FEFADC0893361F4F4
S11316F08B81893309F09AC0F70111821082F801B5
S11317001182108287EC9FC0883361F48B8180330F
S113171009F08EC0F70111821082F8011182108243
S113172084EB91C0833361F48B81803309F082C0F0
S1131730F70111821082F8011182108282E883C0BD
S1131740813361F48B81813309F076C0F701118212
S11317501082F801118210828FE675C0823361F421
S11317608B81803309F06AC0F70111821082F8017D
S11317701182108288E767C0843309F061C08B81CD
S1131780813309F05FC08C81803241F0F70111820E
S11317901082F801118210828DE855C080911201E7
S11317A090911301A0911401B091150189A39AA3FA
S11317B0ABA3BCA3BE016F5D7F4FCE0101960E9417
S11317C0E613892BE9F0BE016F5D7F4F80E090E066
S11317D00E94E6136C010E94C813F7019183808371
S11317E0CD2871F0BE016F5D7F4F80E090E00E94D4
S11317F0E6130E94C813F801918380838DE823C007
S11318008FEF21C08FEF1FC08FEF1DC08FEF1BC064
S11318108FEF19C08FEF17C08FEF15C08FEF13C074
S11318208FEF11C08FEF0FC08FEF0DC08FEF0BC084
S11318308FEF09C08FEF07C08FEF05C08FEF03C094
S11318408FEF01C08FEFA5960FB6F894DEBF0FBEE1
S1131850CDBFDF91CF911F910F91FF90EF90DF905B
S1131860CF9008950F931F93CF93DF93CDB7DEB737
S11318706F970FB6F894DEBF0FBECDBF8B018F3FBD
S113188071F48FE1EFE5F1E0DE01119601900D9224
S11318908A95E1F7CE0101960E94940924C16F3F15
S11318A09FEF7907B1F58436D8F099E2899F812DAD
S11318B0112482958F701F928F9386E191E09F93FC
S11318C08F931F928BE08F93CE0101969F938F93FA
S11318D00E941A140FB6F894DEBF0FBECDBF14C019
S11318E01F928F9381E291E09F938F931F928BE0DD
S11318F08F93CE0101969F938F930E941A140FB673
S1131900F894DEBF0FBECDBFCE0101960E949409AC
S1131910EAC0853661F128F4882369F08130C9F082
S1131920A5C08F3609F440C08D3809F475C08736D8
S113193009F09CC056C08CE0EEE7F1E0DE011196A0
S113194001900D928A95E1F7CE0101960E949409C7
S1131950CAC08CE0EAE8F1E0DE01119601900D9234
S11319608A95E1F7CE0101960E949409BCC03F9389
S11319702F935F934F931F936F938CE291E09F9308
S11319808F931F9289E18F938E010F5F1F4F1F93D7
S11319900F930E941A14C8010E9494090FB6F89478
S11319A0DEBF0FBECDBF9FC03F932F935F934F9376
S11319B01F936F938CE391E09F938F931F9289E120
S11319C08F938E010F5F1F4F1F930F930E941A1462
S11319D0C8010E9494090FB6F894DEBF0FBECDBFB4
S11319E082C03F932F935F934F938CE491E09F9336
S11319F08F931F9282E18F938E010F5F1F4F1F936E
S1131A000F930E941A14C8010E9494090FB6F89407
S1131A10DEBF0FBECDBF67C02F3F3F4F71F488E0DC
S1131A20E6E9F1E0DE01119601900D928A95E1F765
S1131A30CE0101960E94940956C01F936F9388E5C6
S1131A4091E09F938F931F928AE08F938E010F5F93
S1131A501F4F1F930F930E941A14C8010E949409E8
S1131A600FB6F894DEBF0FBECDBF3DC02F3F3F4F32
S1131A7069F48FE49BE49A8389838AE090E09C83F1
S1131A808B83CE0101960E9494092DC08636C9F03D
S1131A901F930F9388E591E09F938F931F928AE0A1
S1131AA08F938E010F5F1F4F1F930F930E941A1481
S1131AB0C8010E9494090FB6F894DEBF0FBECDBFD3
S1131AC012C08FE49BE49A83898380E290E09C8334
S1131AD08B83CE0101960E949409802F0E94840971
S1131AE08AE00E9484096F960FB6F894DEBF0FBE99
S1131AF0CDBFDF91CF911F910F910895AF92BF9207
S1131B00CF92DF92EF92FF920F931F93CF93DF93C5
S1131B106B015A01E9012FEF3FEF39832883F80164
S1131B2031832083F701318320838A3609F4C2C0CC
S1131B30B8F4853609F46CC038F48130C9F160F129
S1131B40843609F451C0E1C0873609F481C008F431
S1131B506DC0883609F484C0893609F4A3C0D5C0A1
S1131B60883709F46CC048F48C3609F4B1C008F421
S1131B70A8C08F3609F453C0C8C08D3809F478C0A2
S1131B8020F4823809F4ABC0C0C0843B09F4B9C066
S1131B90873C09F4AEC0B9C00E94EA01813009F063
S1131BA0B4C0B501C6010E94D90319821882ADC020
S1131BB00E94EA01813009F0A8C0FCE4CF16D104E8
S1131BC039F4B5018FEF0E943403198218829DC045
S1131BD082E5C816D10409F098C0B50181E00E94DD
S1131BE034031982188291C06F3FEFEF7E0749F4E6
S1131BF00E94CE0990E099838883F70111821082B4
S1131C0084C0862F0E94D10990E0998388837DC087
S1131C109701A801BE0181E40E94AE0676C0970137
S1131C20A801BE018FE40E94AE066FC00E94D300DB
S1131C3090E099838883F7011182108266C00E9424
S1131C40D60090E099838883F701118210825DC0E9
S1131C50B701C8010E94AB0690E09983888355C000
S1131C600E94D90099838883F701118210824DC0A4
S1131C70672B61F4452B51F440E050E060E070E0E4
S1131C8080E00E940C01198218823FC0A501B601B0
S1131C9081E00E940C0190E099838883F70111820E
S1131CA0108233C0BA01C6010E94F70690E09983FE
S1131CB088832BC0CB010E94010790E0998388831D
S1131CC024C0CB010E94070790E0998388831DC03C
S1131CD0CB010E940D0790E09983888316C00E946F
S1131CE0F20180E00E94D10981E090E09983888329
S1131CF00CC081E08093CE0181E090E099838883D9
S1131D0004C081E090E099838883DF91CF911F9193
S1131D100F91FF90EF90DF90CF90BF90AF90089518
S1131D20DF92EF92FF920F931F93CF93DF93CDB780
S1131D30DEB72A970FB6F894DEBF0FBECDBF8091F1
S1131D40C00088236CF58FEF9FEF9A8389839C836F
S1131D508B839E838D8398878F839A878987BE011F
S1131D606D5F7F4FCE0101960E94DF09D82E4B8113
S1131D705C8169817A81CE0109967C018E01095FBB
S1131D801F4F9E012B5F3F4F8D2D0E947E0D298595
S1131D903A854F8158856D817E818D2D0E94320C4C
S1131DA02A960FB6F894DEBF0FBECDBFDF91CF9158
S1131DB01F910F91FF90EF90DF9008955058BB272B
S1131DC0AA270E94F60E0C944E110E94151138F0A9
S1131DD00E941C1120F039F49F3F19F426F40C944E
S1131DE0EB100EF4E095E7FB0C94E510E92F0E944C
S1131DF0731158F3BA17620773078407950720F025
S1131E0079F4A6F50C9495110EF4E0950B2EBA2FE7
S1131E10A02D0B01B90190010C01CA01A0011124EC
S1131E20FF27591B99F0593F50F4503E68F11A1698
S1131E30F040A22F232F342F4427585FF3CF469529
S1131E4037952795A795F0405395C9F77EF41F164B
S1131E50BA0B620B730B840BBAF09150A1F0FF0F15
S1131E60BB1F661F771F881FC2F70EC0BA0F621F01
S1131E70731F841F48F4879577956795B795F795F1
S1131E809E3F08F0B0CF9395880F08F09927EE0F86
S1131E909795879508950E94151160F080E891E068
S1131EA009F49EEF0E941C1128F040E851E071F4FF
S1131EB05EEF0CC00C94EB100C949511E92FE078B4
S1131EC00E94731140F3092E052AB1F32617370730
S1131ED04807590738F00E2E07F8E02569F0E02589
S1131EE0E0640AC0EF6307F8009407FADB01B90164
S1131EF09D01DC01CA01AD01EF930E94D90F0E943C
S1131F004E110E948E0F5F91552339F02BED3FE067
S1131F1049E450FD49EC0C94DF0E0895DF93DD276E
S1131F20B92FBF7740E85FE31616170648075B072B
S1131F3018F4D92F0E949C119F938F937F936F93D2
S1131F400E945F12E8E6F0E00E94EE100E944E113B
S1131F502F913F914F915F910E94B711DD2351F072
S1131F609058A2EA2AED3FE049EC5FE3D0785D2780
S1131F700E94F60EDF910C944E110E942511E395F8
S1131F800C945F110E94D60F0C944E110E941C11E8
S1131F9058F00E94151140F029F45F3F29F00C9489
S1131FA0E51051110C9496110C94EB100E947311CE
S1131FB068F39923B1F3552391F3951B550BBB2774
S1131FC0AA2762177307840738F09F5F5F4F220FB9
S1131FD0331F441FAA1FA9F335D00E2E3AF0E0E8B0
S1131FE032D091505040E695001CCAF72BD0FE2FFA
S1131FF029D0660F771F881FBB1F2617370748078E
S1132000AB07B0E809F0BB0B802DBF01FF27935845
S11320105F4F3AF09E3F510578F00C94E5100C9414
S113202096115F3FE4F3983ED4F3869577956795D0
S1132030B795F7959F5FC9F7880F911D969587957A
S113204097F90895E1E0660F771F881FBB1F621799
S113205073078407BA0720F0621B730B840BBA0B57
S1132060EE1F88F7E09508950E943B106894B11123
S11320700C94961108950E947B1188F09F5798F054
S1132080B92F9927B751B0F0E1F0660F771F881F79
S1132090991F1AF0BA95C9F714C0B13091F00E9493
S11320A09511B1E008950C949511672F782F882726
S11320B0B85F39F0B93FCCF3869577956795B395BA
S11320C0D9F73EF490958095709561957F4F8F4F29
S11320D09F4F0895E89409C097FB3EF4909580952E
S11320E0709561957F4F8F4F9F4F9923A9F0F92FDA
S11320F096E9BB279395F695879577956795B79558
S1132100F111F8CFFAF4BB0F11F460FF1BC06F5F3D
S11321107F4F8F4F9F4F16C0882311F096E911C04F
S1132120772321F09EE8872F762F05C0662371F070
S113213096E8862F70E060E02AF09A95660F771F84
S1132140881FDAF7880F9695879597F90895E8948C
S1132150F92F96EBFF2381F0121613061406440B95
S11321609395F69587957795679557954040FF2306
S1132170B9F71BC099270895882351F49850D2F7D2
S1132180872B762F652F542F432F322F20E0B1F366
S1132190121613061406440B88233AF09A95440F3A
S11321A0551F661F771F881FCAF755234AF4440F2B
S11321B0551F11F460FF04C06F5F7F4F8F4F9F4F17
S11321C0880F9695879597F9089597F99F6780E802
S11321D070E060E008959FEF80EC0895DF93CF9363
S11321E01F930F93FF92EF92DF927B018C0168940F
S11321F006C0DA2EEF010E94B711FE01E894A59102
S11322002591359145915591A6F3EF010E94F60E63
S1132210FE019701A801DA9469F7DF90EF90FF902F
S11322200F911F91CF91DF91089500240A941616FF
S1132230170618060906089500240A9412161306B0
S11322401406050608950C94EB100E947B11D8F334
S1132250E894E0E0BB279F57F0F02AED3FE049EC1B
S113226006C0EE0FBB0F661F771F881F28F0B23A17
S113227062077307840728F0B25A620B730B840B4E
S1132280E3959A9572F7803830F49A95BB0F661FE0
S1132290771F881FD2F790480C946512092E039477
S11322A0000C11F4882352F0BB0F40F4BF2B11F43F
S11322B060FF04C06F5F7F4F8F4F9F4F0895EF9370
S11322C0E0FF07C0A2EA2AED3FE049EC5FEB0E9481
S11322D0F60E0E944E110F90039401FC9058E5E90C
S11322E0F0E00C94781257FD9058440F551F59F0A4
S11322F05F3F71F04795880F97FB991F61F09F3FEF
S113230079F087950895121613061406551FF2CF17
S11323104695F1DF08C0161617061806991FF1CF67
S113232086957105610508940895E894BB2766278E
S11323307727CB0197F908959B01AC0160E070E029
S113234080E89FE30C94C20F0E94B7110C944E11C5
S11323500E94151138F00E941C1120F0952311F0F1
S11323600C94E5100C94EB1011240C9496110E941B
S1132370731170F3959FC1F3950F50E0551F629F41
S1132380F001729FBB27F00DB11D639FAA27F00DCA
S1132390B11DAA1F649F6627B00DA11D661F829FF1
S11323A02227B00DA11D621F739FB00DA11D621FD6
S11323B0839FA00D611D221F749F3327A00D611DF3
S11323C0231F849F600D211D822F762F6A2F1124D5
S11323D09F5750409AF0F1F088234AF0EE0FFF1F08
S11323E0BB1F661F771F881F91505040A9F79E3F5F
S11323F0510580F00C94E5100C9496115F3FE4F3C2
S1132400983ED4F3869577956795B795F795E795B4
S11324109F5FC1F7FE2B880F911D9695879597F9BD
S113242008959F930E9425110F9007FCEE5F0C9472
S11324305F1119F416F40C94EB100C9463120E94BF
S11324407B11B8F39923C9F3B6F39F57550B87FF54
S11324500E9471120024A0E640EA9001805856952B
S1132460979528F4805C660F771F881F20F0261745
S11324703707480730F4621B730B840B202931297A
S11324804A2BA69517940794202531254A2758F7F7
S1132490660F771F881F20F026173707480730F488
S11324A0620B730B840B200D311D411DA09581F728
S11324B0B901842F9158880F9695879508959B01AB
S11324C0AC010C94A4119F3F31F0915020F48795F6
S11324D077956795B795880F911D9695879597F988
S11324E0089591505040660F771F881FD2F70895C2
S11324F09F938F937F936F93FF93EF939B01AC0113
S11325000E94A411EF91FF910E94EE102F913F9130
S11325104F915F910C94A411AA1BBB1B51E107C0FE
S1132520AA1FBB1FA617B70710F0A61BB70B881F5F
S1132530991F5A95A9F780959095BC01CD010895EE
S1132540A1E21A2EAA1BBB1BFD010DC0AA1FBB1FB3
S1132550EE1FFF1FA217B307E407F50720F0A21B25
S1132560B30BE40BF50B661F771F881F991F1A9492
S113257069F760957095809590959B01AC01BD01BC
S1132580CF0108950E94B913A59F900DB49F900D9B
S1132590A49F800D911D11240895DF93CF931F9361
S11325A00F939A9DF02D219FF00D8B9DF00D8A9D28
S11325B0E02DF10D039FF00D029FE00DF11D4E9DE6
S11325C0E00DF11D5E9DF00D4F9DF00D7F936F9317
S11325D0BF92AF925F934F93D5010E94B9138B01C1
S11325E0AC01D7010E94B913EB01E80FF91FD60122
S11325F00E941D132F913F91D6010E94B913C60F5B
S1132600D71FE81FF91FAF91BF910E941D132F918F
S11326103F910E94B913C60FD71FE81FF91FD601B7
S11326200E94B913E60FF71F9801BE01CF011124D0
S11326300F911F91CF91DF9108950E94B913460F16
S1132640571FC81FD91F08F431960895689401C014
S1132650E8948F929F92CF93DF930E943413DF917B
S1132660CF919F908F90089588249924F401E401D8
S1132670B0E49F93AA279A158B049C04ED05FE05EC
S1132680CF05D007A10798F4AD2FDC2FCF2FFE2F55
S1132690E92D982C892E982F872F762F652F542F6C
S11326A0432F322F2227B85031F7BF9127C01B2E5A
S11326B0BF91BB27220F331F441F551F661F771F6F
S11326C0881F991F881C991CEE1FFF1FCC1FDD1F3C
S11326D0AA1FBB1F8A149B04EC05FD05CE05DF056C
S11326E0A007B10748F08A189B08EC09FD09CE0938
S11326F0DF09A00BB10B21601A94E1F62EF49401CA
S1132700AF01BE01CD01000C08950F93083090F085
S1132710982F872F762F652F542F432F322F222760
S11327200850F4CF220F331F441F551F661F771F15
S1132730881F991F0A95B2F70F9108952A0D3B1D22
S11327404C1D5D1D6E1D7F1D801F911F08952A194C
S11327503B094C095D096E097F09800B910B0895B3
S11327602A153B054C055D056E057F05800791071D
S11327700895A29FB001B39FC001A39F700D811D56
S11327801124911DB29F700D811D1124911D089576
S1132790FC0188279927E89421912032E9F3293014
S11327A010F02E30C8F32B3241F02D3239F46894F6
S11327B004C00E941214820F911D219120532A30CB
S11327C0C0F31EF4909581959F4F08954EE951E012
S11327D00E94EB130895FA01A191B081009719F4B6
S11327E01097E1F0CD01DC01CD010D90002011F432
S11327F0C00113C0FB012191222319F02015D9F740
S1132800F3CFFB012191201519F41E92119606C0F5
S11328102223C1F70D900020A1F7D001FA01A19362
S1132820B08308957AE0979F902D879F802D910D16
S113283011240895AEE0B0E0E0E2F4E10C94E9166E
S11328400D891E898F89988D26E02C831A8309832C
S113285097FF02C080E090E801979E838D83AE01CC
S1132860455E5F4F698D7A8DCE0101960E944A14B0
S11328704D815E8157FD0AC02F8138854217530769
S11328800CF49A01F801E20FF31F10822E96E4E093
S11328900C940517ABE0B0E0E0E5F4E10C94DB1632
S11328A06C017B018A01FC0117821682838181FFFE
S11328B0CCC1CE0101963C01F6019381F70193FD51
S11328C0859193FF81917F01882309F4BAC18532F0
S11328D039F493FD859193FF81917F01853229F429
S11328E0B60190E00E944116E7CF912C212C312CA7
S11328F0FFE1F315D8F08B3279F038F4803279F0B7
S11329008332A1F4232D20611DC08D3261F0803308
S113291069F4232D216016C0832D8260382EE32DA7
S1132920E4603E2E2AC0F32DF8601DC037FC2DC094
S113293020ED280F2A3040F08E32B9F436FC81C1E4
S1132940232D2064322E19C036FE06C08AE0989EDC
S1132950200D1124922E11C0EAE02E9E200D112488
S1132960222EF32DF0623F2E08C08C3621F4832DE5
S11329708068382E02C0883641F4F70193FD8591B2
S113298093FF81917F018111B3CF982F9F7D95543F
S1132990933028F40C5F1F4F9FE399830DC0833657
S11329A031F0833771F0833509F059C021C0F80143
S11329B0808189830E5F1F4F88248394912C530157
S11329C013C02801F2E04F0E511CF801A080B18021
S11329D036FE03C0692D70E002C06FEF7FEFC501C2
S11329E00E9436164C018201F32DFF773F2E16C04C
S11329F0280122E0420E511CF801A080B18036FE6D
S1132A0003C0692D70E002C06FEF7FEFC5010E9423
S1132A102B164C01F32DF0683F2E820133FC1BC0B2
S1132A20822D90E088169906B0F4B60180E290E019
S1132A300E9441162A94F4CFF50137FC859137FEA4
S1132A4081915F01B60190E00E94411621102A9401
S1132A5021E0821A91088114910471F7E8C0843648
S1132A6011F0893641F5F80137FE07C060817181A4
S1132A70828193810C5F1F4F08C060817181072E92
S1132A80000C880B990B0E5F1F4FF32DFF763F2E22
S1132A9097FF09C090958095709561957F4F8F4FF2
S1132AA09F4FF0683F2E2AE030E0A3010E947D167C
S1132AB0882E861845C0853731F4232D2F7EB22EFB
S1132AC02AE030E025C0932D997FB92E8F36C1F0CE
S1132AD018F4883579F0B5C0803719F0883721F0BB
S1132AE0B0C0E92FE061BE2EB4FE0DC0FB2DF46032
S1132AF0BF2E09C034FE0AC0292F2660B22E06C09C
S1132B0028E030E005C020E130E002C020E132E0FE
S1132B10F801B7FE07C060817181828193810C5FE7
S1132B201F4F06C06081718180E090E00E5F1F4FEF
S1132B30A3010E947D16882E8618FB2DFF773F2E59
S1132B4036FE0DC0232D2E7FA22E891458F434FE98
S1132B500BC032FC09C0832D8E7EA82E05C0B82C74
S1132B60A32C03C0B82C01C0B92CA4FE0FC0FE01D5
S1132B70E80DF11D8081803321F49A2D997EA92ED0
S1132B8009C0A2FE06C0B394B39404C08A2D86780B
S1132B9009F0B394A3FC11C0A0FE06C0B21488F4DB
S1132BA0280C922C9B180EC0B21460F4B60180E27B
S1132BB090E00E944116B394F7CFB21418F42B1886
S1132BC002C0982C212CA4FE10C0B60180E390E032
S1132BD00E944116A2FE17C0A1FC03C088E790E042
S1132BE002C088E590E0B6010CC08A2D867859F0C1
S1132BF0A1FE02C08BE201C080E2A7FC8DE2B60117
S1132C0090E00E944116891438F4B60180E390E004
S1132C100E9441169A94F7CF8A94F301E80DF11DAE
S1132C208081B60190E00E9441168110F5CF2220E8
S1132C3009F442CEB60180E290E00E9441162A9443
S1132C40F6CFF6018681978102C08FEF9FEF2B9616
S1132C50E2E10C94F716FC010590615070400110FC
S1132C60D8F7809590958E0F9F1F0895FC016150B1
S1132C70704001900110D8F7809590958E0F9F1F9A
S1132C8008950F931F93CF93DF93FB01238121FDBD
S1132C9003C08FEF9FEF2CC022FF16C046815781DF
S1132CA0248135814217530744F4A081B1819D01E9
S1132CB02F5F3F4F318320838C93268137812F5F91
S1132CC03F4F3783268314C08B01EC01FB01008442
S1132CD0F185E02D0995892BE1F6D80116968D91A1
S1132CE09C911797019617969C938E931697CE01F5
S1132CF0DF91CF911F910F910895FA01AA272830EF
S1132D0051F1203181F1E8946F936E7F6E5F7F4FB4
S1132D108F4F9F4FAF4FB1E03ED0B4E03CD0670F30
S1132D20781F891F9A1FA11D680F791F8A1F911D83
S1132D30A11D6A0F711D811D911DA11D20D009F4D3
S1132D4068943F912AE0269F11243019305D319315
S1132D50DEF6CF010895462F4770405D4193B3E0FE
S1132D600FD0C9F7F6CF462F4F70405D4A3318F0A5
S1132D70495D31FD4052419302D0A9F7EACFB4E056
S1132D80A6959795879577956795BA95C9F700970E
S1132D906105710508959B01AC010A2E06945795AF
S1132DA0479537952795BA95C9F7620F731F841F06
S1132DB0951FA01D08952F923F924F925F926F929C
S1132DC07F928F929F92AF92BF92CF92DF92EF92B7
S1132DD0FF920F931F93CF93DF93CDB7DEB7CA1B38
S1132DE0DB0B0FB6F894DEBF0FBECDBF09942A8863
S1132DF0398848885F846E847D848C849B84AA840B
S1132E00B984C884DF80EE80FD800C811B81AA8197
S1132E10B981CE0FD11D0FB6F894DEBF0FBECDBF62
S10B2E20ED010895F894FFCFC1
S1132E287CFF60010001004C200052200041200D6D
S1132E380A00494F20004552524F52204D25640A3A
S1132E48004552524F52204725640A004F4B2058E0
S1132E58256420592564204125640A004F4B2058D5
S1132E68256420592564204F25640A004F4B204CC3
S1132E782564205225640A004F4B2025640A004526
S1132E8852524F5220636F756C64206E6F742072B7
S1132E9865636F676E697A6520434D440A004F4B3A
S1132EA820425553592047300A004F4B204255536E
S1112EB8592047310A004F4B204D34310A0097
S9030000FC
