S0200000726F626F7661635F6D6F64756C61725F736F6674776172652E73726563FB
S11300000C945A000C9477000C9477000C947700AD
S11300100C9477000C9477000C9477000C94770080
S11300200C9477000C9477000C9477000C94770070
S11300300C9477000C9477000C944B050C94770087
S11300400C9477000C9477000C9477000C94770050
S11300500C9477000C9477000C9477000C94770040
S11300600C9477000C947700084AD73B3BCE016E82
S113007084BCBFFDC12F3D6C74319ABD56833DDAFB
S11300803D00C77F11BED9E4BB4C3E916BAAAABE0A
S1130090000000803F05A84CCDB2D44EB93836A933
S11300A0020C50B9918688083CA6AAAA2ABE000070
S11300B000803F0011241FBECFEFD8E0DEBFCDBFCC
S11300C011E0A0E0B1E0ECE0FEE202C005900D9288
S11300D0AE39B107D9F721E0AEE9B1E001C01D9214
S11300E0A73DB207E1F70E9435050C9404170C9460
S11300F0000010927C00EAE7F0E08081876880834A
S1130100EEE7F0E080818160808380E00895ECE791
S1130110F0E08081807F8083EAE7F0E08081806482
S11301208083808186FDFDCF2091780080917900C5
S113013090E0982F8827820F911D08950E947900DE
S113014081E008950E948700BC01990F880B990BE8
S11301500E945E1020E030E04AE754E40E949611C9
S11301602DEC38E144EF55E40E94B40F0E942D10A9
S113017060930001809100018E3118F481E4809332
S1130180D5018091000108958091D50108950E94C0
S1130190A2000895AF92BF92CF92DF92EF92FF92A6
S11301A00F931F932091B6013091B7014091B8018C
S11301B05091B9016091BA017091BB018091BC0169
S11301C09091BD010F2EF8EEAF2EF02D0F2EF3E01F
S11301D0BF2EF02DC12CD12CE12CF12C00E010E02D
S11301E00E941A13822F932F1F910F91FF90EF906B
S11301F0DF90CF90BF90AF9008956F927F928F92CF
S11302009F92AF92BF92CF92DF92EF92FF920F93A1
S11302101F93CF93DF9300D0CDB7DEB74B013A01E4
S1130220811126C02091B6013091B7014091B801E7
S11302305091B9016091BA017091BB018091BC01E8
S11302409091BD010F2EF8EEAF2EF02D0F2EF3E09E
S1130250BF2EF02DC12CD12CE12CF12C00E010E0AC
S11302600E941A132093D3013093D40180E032C04A
S1130270813079F51A8219822091B6013091B70143
S11302804091B8015091B9016091BA017091BB01DC
S11302908091BC019091BD010F2EF8EEAF2EF02D90
S11302A00F2EF3E0BF2EF02DC12CD12CE12CF12C1C
S11302B000E010E00E941A138E010F5F1F4FA3018C
S11302C0B4018091D3019091D4010E94D905898110
S11302D001C08FEF0F900F90DF91CF911F910F917D
S11302E0FF90EF90DF90CF90BF90AF909F908F9052
S11302F07F906F9008950E94CF010E94A200809188
S1130300D5018235B1F08091D501833429F083354C
S113031029F0813481F408C081E008950E94D70156
S11303201092B10181E0089580E00E94C30981E048
S1130330089581E0089580E008951092A901109233
S1130340AA011092AB011092AC011092AD0110926F
S1130350AE011092AF011092B0018FEF80930101B2
S11303601092A8011092A0011092A1011092A20172
S11303701092A3011092A4011092A5011092A6015B
S11303801092A7018AB1806E8AB984B1876084B95A
S11303908BB180668BB981E08093B101089580911F
S11303A0B101813019F492E59093D50108955F9AD3
S11303B0289A85B1866085B91092A0011092A10196
S11303C01092A2011092A3011092A4011092A5010F
S11303D01092A6011092A7011092A80181E008953D
S11303E0AF92BF92CF92DF92EF92FF920F931F933F
S11303F02091B6013091B7014091B8015091B901F3
S11304006091BA017091BB018091BC019091BD01D2
S1130410A090A901B090AA01C090AB01D090AC010A
S1130420E090AD01F090AE010091AF011091B001E8
S11304300E9490132093A0013093A1014093A20144
S11304405093A3016093A4017093A5018093A60126
S11304509093A7018091A8018111FCCF1F910F9166
S1130460FF90EF90DF90CF90BF90AF9008953F92B0
S11304704F925F926F927F928F929F92AF92BF92B0
S1130480CF92DF92EF92FF920F931F93CF93DF935C
S1130490F92F332433943092A9011092AA011092B7
S11304A0AB011092AC011092AD011092AE0110920A
S11304B0AF011092B0016090A9017090AA018090E0
S11304C0AB019090AC01D091AD01C091AE015090C0
S11304D0AF014090B001A82FE92FEE0FEE0B282FAB
S11304E0392F4E2F5E2F6E2F7E2F8E2F9E2F02E0E0
S11304F00E947713A22EB32EC42ED52EE62EF72EED
S1130500B82F192F05E00E9477130B2F0E9499131F
S1130510AA2EBF2ECE2EDE2EEE2EFE2E0E2F1E2F38
S11305200E94901303E00E947713B0900601A090FC
S113053005011B2D110F110BC12ED12EE12EF12E11
S1130540012F0E941A13A62CB72CC82CD92CED2EDF
S1130550FC2E052D142D0E94BF122093A901309367
S1130560AA014093AB015093AC016093AD01709329
S1130570AE018093AF019093B0013092A8010E9424
S1130580F00181E0DF91CF911F910F91FF90EF90E7
S1130590DF90CF90BF90AF909F908F907F906F909F
S11305A05F904F903F900895AF92BF92CF92DF92A9
S11305B0EF92FF920F931F932091B6013091B701F0
S11305C04091B8015091B9016091BA017091BB0199
S11305D08091BC019091BD01A090A901B090AA01A5
S11305E0C090AB01D090AC01E090AD01F090AE01B1
S11305F00091AF011091B0010E9490132093A001CB
S11306003093A1014093A2015093A3016093A401EC
S11306107093A5018093A6019093A7018091010195
S1130620813029F45F98289A2A98299A04C05F9AFD
S1130630289829982A9A8091A8018111FCCF1F91AA
S11306400F91FF90EF90DF90CF90BF90AF900895FF
S11306504F925F926F927F928F929F92AF92BF92CE
S1130660CF92DF92EF92FF920F931F93CF93DF937A
S1130670CDB7DEB72A970FB6F894DEBF0FBECDBF55
S11306808093010181E08093A9011092AA01109244
S1130690AB011092AC011092AD011092AE01109218
S11306A0AF011092B0014090A9015090AA0160904E
S11306B0AB017090AC018090AD019090AE01E090E0
S11306C0AF01EA86F090B001F9867B0100E010E00A
S11306D020E030E0A9016983FA820B831C832D8317
S11306E03E834F835887262F3F2D40E050E060E043
S11306F070E080E090E002E00E947713A22EB32E17
S1130700C42ED52EE62EF72EE82F192F05E00E94D1
S113071077130E2F0E949913A980BA80C12CD12C73
S1130720E12CF12C00E010E00E94901303E00E9401
S11307307713B0900401A09003011B2D110F110B2E
S1130740C12ED12EE12EF12E012F0E941A13A42CBA
S1130750B52CC62CD72CE82CF92C0A8519850E94B7
S1130760BF122093A9013093AA014093AB01509387
S1130770AC016093AD017093AE018093AF0190938F
S1130780B00182E08093A8010E94D40281E02A96FD
S11307900FB6F894DEBF0FBECDBFDF91CF911F918E
S11307A00F91FF90EF90DF90CF90BF90AF909F900C
S11307B08F907F906F905F904F9008954F925F92CB
S11307C06F927F928F929F92AF92BF92CF92DF925D
S11307D0EF92FF92CF93DF9300D000D0CDB7DEB776
S11307E02091A801211171C07B01BC018091C60137
S11307F09091C701C090C401D090C501681B790BCA
S1130800072E000C880B990B0E945E104B015C01B3
S1130810B7016C197D09072E000C880B990B0E94F7
S11308205E106B017C01A50194010E94500F0E948F
S113083026102B013C01A5019401C501B4010E94BD
S1130840961169837A838B839C83A5019401C501E6
S1130850B4010E9496114B015C01A7019601C701E6
S1130860B6010E9496119B01AC01C501B4010E941E
S1130870D10E0E9411120E9426106B017C015B01B3
S11308808091C2019091C3019201281B390BC901C7
S11308901816190674F08091C2019091C301920157
S11308A0281B390BC901892F880F880B882329F04D
S11308B001C081E0B2010E9428031A141B043CF415
S11308C0C6010E94370281E003C080E001C081E0DC
S11308D00F900F900F900F90DF91CF91FF90EF90BA
S11308E0DF90CF90BF90AF909F908F907F906F904C
S11308F05F904F900895AF92BF92CF92DF92EF92A4
S1130900FF920F931F932091B6013091B70140914C
S1130910B8015091B9016091BA017091BB01809105
S1130920BC019091BD01A090A001B090A101C09024
S1130930A201D090A301E090A401F090A501009140
S1130940A6011091A7010E94A21319F010F00E94B1
S1130950D70181E01F910F91FF90EF90DF90CF902E
S1130960BF90AF900895BC01E9EBF0E080818E7FE9
S1130970808380818D7F808380EA9FE00E947E1245
S1130980862F603148F0772760517109CB01992394
S11309900CF40196959587958093B800089584E6A4
S11309A090E00E94B304ECEBF0E0808184608083EB
S11309B008953C9A84EA8093BC0008958091BC0019
S11309C088234CF08AE590E0ECEBF0E020812223D0
S11309D014F00197D9F70895EFE9FFE03197F1F7A3
S11309E000C000003C9A8093BB0084E88093BC0064
S11309F008950E94D9040E94DE048CE30E94EC0452
S1130A000E94DE0482E00E94EC040E94DE0480E086
S1130A100E94EC040E94DE0484E98093BC000895E3
S1130A2080E388B90E94CF040E94F904089582E00B
S1130A3084BD92E895BD98EC97BD80936E000895AF
S1130A4060E875E280E090E00E9450090E94100581
S1130A500E944E080E949E000E9417050E949D015C
S1130A600E9493060E94BD0908950E94200578946F
S1130A701092D6018091D601811106C00E94820E87
S1130A808091D6018823D1F3F894EFCF0E94050713
S1130A900E947B0108951F920F920FB60F921124AA
S1130AA02F933F934F935F936F937F938F939F9372
S1130AB0AF93BF93EF93FF930E9489050E94C308ED
S1130AC00E947B048091B2019091B30101969093AE
S1130AD0B3018093B2018091B2019091B301883E39
S1130AE0934031F41092B3011092B2010E94460572
S1130AF0FF91EF91BF91AF919F918F917F916F91F2
S1130B005F914F913F912F910F900FBE0F901F90C7
S1130B101895AF92BF92CF92DF92EF92FF920F930C
S1130B201F938091B4019091B50101969093B50102
S1130B308093B4018091B4019091B501883E9340B3
S1130B4079F51092B5011092B401A090B601B0905D
S1130B50B701C090B801D090B901E090BA01F0900B
S1130B60BB010091BC011091BD012091020130E054
S1130B7040E050E060E070E080E090E00E9490137C
S1130B802093B6013093B7014093B8015093B90153
S1130B906093BA017093BB018093BC019093BD0133
S1130BA01F910F91FF90EF90DF90CF90BF90AF9087
S1130BB008954F925F926F927F92AF92BF92CF92BD
S1130BC0DF92EF92FF920F931F93FA01A901481B42
S1130BD0590BDF01A61BB70B4A1B5B0BD8014D93C6
S1130BE05C93A090B601B090B701C090B801D090CA
S1130BF0B901E090BA01F090BB010091BC011091E1
S1130C00BD01AB01770F660B770B2C01990F6608BA
S1130C107708DB01CA0184199509A609B709AF0150
S1130C20FF0F660B770B2901330F66087708441909
S1130C30550966097709480F591F6A1F7B1FDB0195
S1130C40CA0177231CF40196A11DB11D9C01AD01BD
S1130C505595479537952795A8EEB3E00E94B412B1
S1130C602B013C01770C4408542C3201262F372FDA
S1130C70482F592F642D742D842D942D0E94901388
S1130C802093B6013093B7014093B8015093B90152
S1130C906093BA017093BB018093BC019093BD0132
S1130CA02091B6013091B7014091B8015091B9013A
S1130CB06091BA017091BB018091BC019091BD011A
S1130CC00F2EF8EEAF2EF02D0F2EF3E0BF2EF02DE9
S1130CD0C12CD12CE12CF12C00E010E00E941A135D
S1130CE0822F932F1F910F91FF90EF90DF90CF9061
S1130CF0BF90AF907F906F905F904F9008958091D8
S1130D00B4019091B50126B5019634E6389FB0013F
S1130D10399F700D112482E3289F600D711D1124E9
S1130D2080E090E00895109206011092050110925F
S1130D3004011092030181E008950E94500808956F
S1130D400F931F93CF93DF9300D000D0CDB7DEB7BE
S1130D50E091C601F091C701DB01ED93FC93609132
S1130D60C4017091C501FA01718360838F3401F568
S1130D70890180E991E09C838B839A838983BE01F6
S1130D806F5F7F4FCE0103960E949D068B819C81ED
S1130D900F9724F089819A810F9734F481E090E0D1
S1130DA0D8018D939C930BC0F8011182108207C067
S1130DB08091C2019091C301D9018D939C9380E0ED
S1130DC00F900F900F900F90DF91CF911F910F9183
S1130DD008959093C7018093C6017093C5016093F1
S1130DE0C40181E008959093C3018093C20181E01E
S1130DF00895909306018093050181E008959093EE
S1130E0004018093030181E008952F923F925F9241
S1130E106F927F928F929F92AF92BF92CF92DF9206
S1130E20EF92FF920F931F93CF93DF93CDB7DEB76B
S1130E302E970FB6F894DEBF0FBECDBF8091A801E8
S1130E40813009F0F6C00091B6011091B701B0905D
S1130E50B801A090B9012090BA015090BB016090F4
S1130E60BC017090BD01C090BE01D090BF01E09064
S1130E70C001F090C101209106012E873090050138
S1130E80220F220B2D876091C2017091C301072E9E
S1130E90000C880B990B0E945E1029E23CE54FE898
S1130EA05CE30E9496110E94AF0F69877A878B8753
S1130EB09C878090C6019090C701A701960160E0CD
S1130EC070E0CB01C9823A834B835C836D837E835C
S1130ED08F839887202F312F4B2D5A2D622D752DFE
S1130EE0862D972DA980BA80CB80DC80E12CF12C53
S1130EF000E010E00E949913A32CBE84CD84DC2C66
S1130F00EC2CFC2C0C2D1C2D0E94BF120E9499105D
S1130F1029853A854B855C850E9496116B017C017D
S1130F20B401990C880B990B0E945E109B01AC01D3
S1130F30C701B6010E94D10E0E9426107093C7010A
S1130F406093C6010091B6011091B701B090B80149
S1130F50A090B9012090BA015090BB016090BC01EF
S1130F607090BD01C090BE01D090BF01E090C0015F
S1130F70F090C1016091C2017091C301072E000C71
S1130F80880B990B0E945E1029E23CE54FE85CE374
S1130F900E9496110E94031269877A878B879C8727
S1130FA08090C4019090C501A701960160E070E0B3
S1130FB0CB01C9823A834B835C836D837E838F83A9
S1130FC09887202F312F4B2D5A2D622D752D862D6C
S1130FD0972DA980BA80CB80DC80E12CF12C00E035
S1130FE010E00E949913A32CBE84CD84DC2CEC2C3D
S1130FF0FC2C0C2D1C2D0E94BF120E9499102985D7
S11310003A854B855C850E9496116B017C01B40185
S1131010990C880B990B0E945E109B01AC01C701CF
S1131020B6010E94D10E0E9426107093C5016093F0
S1131030C4015091B6014091B7013091B80120919B
S1131040B9018091BA018091BB018091BC0180916A
S1131050BD01852F942FA32FB22F8093BE019093AF
S1131060BF01A093C001B093C10181E02E960FB6D9
S1131070F894DEBF0FBECDBFDF91CF911F910F91CA
S1131080FF90EF90DF90CF90BF90AF909F908F90A4
S11310907F906F905F903F902F900895549A089599
S11310A0CF92DF92EF92FF920F931F93CF93DF9330
S11310B08C01EB018091CC019091CD01A091CE01E6
S11310C0B091CF01BC01CD01969587957795679531
S11310D00E945C1028E23EE74CE05DE30E9496111A
S11310E00E9426106B017C018091C8019091C90176
S11310F0A091CA01B091CB01BC01CD019695879511
S1131100779567950E945C1028E23EE74CE05DE32A
S11311100E9496110E942610960141E9C41641E0EE
S1131120D40614F020E931E0F801318320836139D9
S1131130F1E07F0714F060E971E0798368835C9AD9
S11311404AE64A95F1F700C05C981092CC011092DF
S1131150CD011092CE011092CF011092C8011092CD
S1131160C9011092CA011092CB0181E08093D10190
S11311708093D001DF91CF911F910F91FF90EF9059
S1131180DF90CF9008950F931F938091D101813008
S113119079F44B9B0DC00E947F066093CC01709341
S11311A0CD018093CE019093CF0182E08093D10151
S11311B08091D101823069F54B992BC00E947F0642
S11311C00091CC011091CD012091CE013091CF013D
S11311D0601771078207930720F4605679478E4F92
S11311E09F4F0091CC011091CD012091CE013091FF
S11311F0CF01DC01CB01801B910BA20BB30B8093BD
S1131200CC019093CD01A093CE01B093CF01109265
S1131210D1018091D001813079F44A9B0DC00E94A4
S11312207F066093C8017093C9018093CA019093AB
S1131230CB0182E08093D0018091D001823069F5A6
S11312404A992BC00E947F060091C8011091C901E0
S11312502091CA013091CB0160177107820793076F
S113126020F4605679478E4F9F4F0091C80110912A
S1131270C9012091CA013091CB01DC01CB01801B53
S1131280910BA20BB30B8093C8019093C901A09357
S1131290CA01B093CB011092D0011F910F91089510
S11312A0DC01CB01880F991FAA1FBB1F880F991F50
S11312B0AA1FBB1F9C01AD01220F331F441F551FE2
S11312C060E074E284EF90E00E94921221503109B0
S11312D082E08093C0003093C5002093C40088E16D
S11312E08093C10086E08093C2000895E0ECF0E0B2
S11312F0908195FFFDCF8093C6000895E0ECF0E067
S113130080818823ECF78091C6000895CF93DF9302
S1131310EC018881882331F021960E947609899115
S11313208111FBCFDF91CF910895EF92FF921F932C
S1131330CF93DF93EC017B010E947E098A30A9F0F0
S113134091E0E91AF1081E141F047CF410E02196C0
S1131350FE01319780831F5F0E947E098A3029F045
S1131360212F30E02E153F0594F31882CE01DF9132
S1131370CF911F91FF90EF900895399A81E00895DD
S11313808091D20108958093D201813039F4809103
S1131390D501813419F0419A81E00895419880E0A3
S11313A00895CF92DF92EF92FF920F931F93CF9302
S11313B0DF93CDB7DEB7A5970FB6F894DEBF0FBEA7
S11313C0CDBF7C018B0160E270E0CE0101960E94EA
S11313D095098981873421F08D3409F476C004C2DB
S11313E08A81803309F002C28B818033B1F58C810C
S11313F0803209F0FDC188E599E59AA389A380E2CA
S113140090E09CA38BA3BE016F5D7F4FCE0101963C
S11314100E94D813892BE9F0BE016F5D7F4F80E0F5
S113142090E00E94D8136C010E94BA13F7019183D3
S11314308083CD2881F0BE016F5D7F4F80E090E016
S11314400E94D8130E94BA13F8019183808380E02C
S1131450ECC18FEFEAC18FEFE8C1813309F0CAC153
S11314608C81803209F0C8C18D818C3461F48CE4A4
S113147090E0F701918380830F2EF7E0EF2EF1E0E7
S1131480FF2EF02D0EC0823509F0B8C182E590E040
S1131490F701918380830F2EFAE0EF2EF1E0FF2E07
S11314A0F02DB701CE0101960E94D813892B09F4BF
S11314B0A7C1B70180E090E00E94D8130E94BA133C
S11314C0F8019183808381E0B0C18A81803309F07F
S11314D0FFC08B818033D1F48C81803259F48D81AB
S11314E0833541F4CE0106960E94BA13F701918325
S11314F0808305C08FEF9FEFF701918380838FEF87
S11315009FEFF8019183808384E68FC1813351F486
S11315108FEF9FEFF70191838083F801918380839C
S113152085E683C1823351F48FEF9FEFF7019183F6
S11315308083F8019183808386E677C1833351F4F5
S11315408FEF9FEFF70191838083F801918380836C
S113155087E66BC1843351F48FEF9FEFF7019183DA
S11315608083F8019183808388E65FC18533B1F578
S11315709C81903209F05DC088E599E59AA389A31E
S113158080E290E09CA38BA3BE016F5D7F4FCE01F0
S113159001960E94D813892BE9F0BE016F5D7F4F3D
S11315A080E090E00E94D8136C010E94BA13F70106
S11315B091838083CD2881F0BE016F5D7F4F80E0F1
S11315C090E00E94D8130E94BA13F801918380839B
S11315D089E62BC18FEF29C18FEF27C1863349F5E7
S11315E09C81903209F04CC085E0EDE0F1E0DE0131
S11315F0919601900D928A95E1F7BE016F5D7F4F40
S1131600CE0101960E94D813892B89F0BE016F5D2B
S11316107F4F80E090E00E94D8130E94BA13F70134
S113162091838083F801118210828AE6FEC08FEFD5
S1131630FCC0873329F58C81803209F0E3C083E54F
S113164090E29AA389A31BA2BE016F5D7F4FCE01D6
S113165001960E94D813892B89F0BE016F5D7F4FDC
S113166080E090E00E94D8130E94BA13F70191839E
S11316708083F801118210828BE6D7C08FEFD5C02A
S1131680883309F0C1C08C81803209F0BFC083E582
S113169090E29AA389A31BA2BE016F5D7F4FCE0186
S11316A001960E94D813892B89F0BE016F5D7F4F8C
S11316B080E090E00E94D8130E94BA13F70191834E
S11316C08083F801118210828CE6AFC08FEFADC029
S11316D0893361F48B81893309F09AC0F70111824F
S11316E01082F8011182108287EC9FC0883361F464
S11316F08B81803309F08EC0F70111821082F801CA
S11317001182108284EB91C0833361F48B81803326
S113171009F082C0F70111821082F801118210824F
S113172082E883C0813361F48B81813309F076C010
S1131730F70111821082F801118210828FE675C0C0
S1131740823361F48B81803309F06AC0F70111821E
S11317501082F8011182108288E767C0843309F08F
S113176061C08B81813309F05FC08C81803241F08C
S1131770F70111821082F801118210828DE855C0A0
S11317808091120190911301A0911401B09115015F
S113179089A39AA3ABA3BCA3BE016F5D7F4FCE0107
S11317A001960E94D813892BE9F0BE016F5D7F4F2B
S11317B080E090E00E94D8136C010E94BA13F701F4
S11317C091838083CD2871F0BE016F5D7F4F80E0EF
S11317D090E00E94D8130E94BA13F8019183808389
S11317E08DE823C08FEF21C08FEF1FC08FEF1DC086
S11317F08FEF1BC08FEF19C08FEF17C08FEF15C08D
S11318008FEF13C08FEF11C08FEF0FC08FEF0DC09C
S11318108FEF0BC08FEF09C08FEF07C08FEF05C0AC
S11318208FEF03C08FEF01C08FEFA5960FB6F8942A
S1131830DEBF0FBECDBFDF91CF911F910F91FF90FF
S1131840EF90DF90CF9008950F931F93CF93DF9382
S1131850CDB7DEB76F970FB6F894DEBF0FBECDBF1E
S11318608B018F3F71F48FE1EFE5F1E0DE0111961A
S113187001900D928A95E1F7CE0101960E948609A6
S113188024C16F3F9FEF7907B1F58436D8F099E210
S1131890899F812D112482958F701F928F9386E1E9
S11318A091E09F938F931F928BE08F93CE010196CB
S11318B09F938F930E940C140FB6F894DEBF0FBE53
S11318C0CDBF14C01F928F9381E291E09F938F93B9
S11318D01F928BE08F93CE0101969F938F930E946A
S11318E00C140FB6F894DEBF0FBECDBFCE01019627
S11318F00E948609EAC0853661F128F4882369F0DC
S11319008130C9F0A5C08F3609F440C08D3809F480
S113191075C0873609F09CC056C08CE0EEE7F1E054
S1131920DE01119601900D928A95E1F7CE010196A0
S11319300E948609CAC08CE0EAE8F1E0DE01119653
S113194001900D928A95E1F7CE0101960E948609D5
S1131950BCC03F932F935F934F931F936F938CE27D
S113196091E09F938F931F9289E18F938E010F5F74
S11319701F4F1F930F930E940C14C8010E948609E5
S11319800FB6F894DEBF0FBECDBF9FC03F932F9319
S11319905F934F931F936F938CE391E09F938F9387
S11319A01F9289E18F938E010F5F1F4F1F930F9337
S11319B00E940C14C8010E9486090FB6F894DEBF79
S11319C00FBECDBF82C03F932F935F934F938CE4A0
S11319D091E09F938F931F9282E18F938E010F5F0B
S11319E01F4F1F930F930E940C14C8010E94860975
S11319F00FB6F894DEBF0FBECDBF67C02F3F3F4F79
S1131A0071F488E0E6E9F1E0DE01119601900D92AF
S1131A108A95E1F7CE0101960E94860956C01F936C
S1131A206F9388E591E09F938F931F928AE08F9341
S1131A308E010F5F1F4F1F930F930E940C14C80158
S1131A400E9486090FB6F894DEBF0FBECDBF3DC01D
S1131A502F3F3F4F69F48FE49BE49A8389838AE0A4
S1131A6090E09C838B83CE0101960E9486092DC051
S1131A708636C9F01F930F9388E591E09F938F9367
S1131A801F928AE08F938E010F5F1F4F1F930F9356
S1131A900E940C14C8010E9486090FB6F894DEBF98
S1131AA00FBECDBF12C08FE49BE49A83898380E28A
S1131AB090E09C838B83CE0101960E948609802F3F
S1131AC00E9476098AE00E9476096F960FB6F89410
S1131AD0DEBF0FBECDBFDF91CF911F910F9108954F
S1131AE0AF92BF92CF92DF92EF92FF920F931F9328
S1131AF0CF93DF936B015A01E9012FEF3FEF398355
S1131B002883F80131832083F701318320838A36C7
S1131B1009F4C2C0B8F4853609F46CC038F48130D5
S1131B20C9F160F1843609F451C0E1C0873609F483
S1131B3081C008F46DC0883609F484C0893609F47C
S1131B40A3C0D5C0883709F46CC048F48C3609F4B6
S1131B50B1C008F4A8C08F3609F453C0C8C08D388A
S1131B6009F478C020F4823809F4ABC0C0C0843BC7
S1131B7009F4B9C0873C09F4AEC0B9C00E94CF01D2
S1131B80813009F0B4C0B501C6010E94DE03198298
S1131B901882ADC00E94CF01813009F0A8C0FCE4D6
S1131BA0CF16D10439F4B5018FEF0E9428031982AE
S1131BB018829DC082E5C816D10409F098C0B50109
S1131BC081E00E9428031982188291C06F3FEFEFD1
S1131BD07E0749F40E94C00990E099838883F70145
S1131BE01182108284C0862F0E94C30990E09983D9
S1131BF088837DC09701A801BE0181E40E94A006EC
S1131C0076C09701A801BE018FE40E94A0066FC0B0
S1131C100E94C40090E099838883F70111821082A6
S1131C2066C00E94C70090E099838883F7011182FF
S1131C3010825DC0B701C8010E949D0690E099839F
S1131C40888355C00E94CA0099838883F701118252
S1131C5010824DC0672B61F4452B51F440E050E0F5
S1131C6060E070E080E00E94FD00198218823FC0AD
S1131C70A501B60181E00E94FD0090E0998388836C
S1131C80F7011182108233C0BA01C6010E94E9062D
S1131C9090E0998388832BC0CB010E94F30690E0E7
S1131CA09983888324C0CB010E94F90690E099832C
S1131CB088831DC0CB010E94FF0690E0998388832E
S1131CC016C00E94D70180E00E94C30981E090E021
S1131CD0998388830CC081E08093D60181E090E0F1
S1131CE09983888304C081E090E099838883DF919D
S1131CF0CF911F910F91FF90EF90DF90CF90BF9005
S1131D00AF900895DF92EF92FF920F931F93CF93BA
S1131D10DF93CDB7DEB72A970FB6F894DEBF0FBEB8
S1131D20CDBF8091C00088236CF58FEF9FEF9A831D
S1131D3089839C838B839E838D8398878F839A87E3
S1131D408987BE016D5F7F4FCE0101960E94D10944
S1131D50D82E4B815C8169817A81CE0109967C0100
S1131D608E01095F1F4F9E012B5F3F4F8D2D0E94F7
S1131D70700D29853A854F8158856D817E818D2D21
S1131D800E94240C2A960FB6F894DEBF0FBECDBF76
S1131D90DF91CF911F910F91FF90EF90DF90089505
S1131DA05058BB27AA270E94E80E0C9440110E94A9
S1131DB0071138F00E940E1120F039F49F3F19F4F6
S1131DC026F40C94DD100EF4E095E7FB0C94D71088
S1131DD0E92F0E94651158F3BA1762077307840745
S1131DE0950720F079F4A6F50C9487110EF4E0958C
S1131DF00B2EBA2FA02D0B01B90190010C01CA01C1
S1131E00A0011124FF27591B99F0593F50F4503E6B
S1131E1068F11A16F040A22F232F342F4427585F5D
S1131E20F3CF469537952795A795F0405395C9F775
S1131E307EF41F16BA0B620B730B840BBAF091502D
S1131E40A1F0FF0FBB1F661F771F881FC2F70EC0CC
S1131E50BA0F621F731F841F48F48795779567959F
S1131E60B795F7959E3F08F0B0CF9395880F08F08B
S1131E709927EE0F9795879508950E94071160F0B2
S1131E8080E891E009F49EEF0E940E1128F040E8EA
S1131E9051E071F45EEF0CC00C94DD100C948711CA
S1131EA0E92FE0780E94651140F3092E052AB1F369
S1131EB0261737074807590738F00E2E07F8E0258C
S1131EC069F0E025E0640AC0EF6307F8009407FABC
S1131ED0DB01B9019D01DC01CA01AD01EF930E9450
S1131EE0CB0F0E9440110E94800F5F91552339F05F
S1131EF02BED3FE049E450FD49EC0C94D10E0895DC
S1131F00DF93DD27B92FBF7740E85FE31616170686
S1131F1048075B0718F4D92F0E948E119F938F9363
S1131F207F936F930E945112E8E6F0E00E94E01064
S1131F300E9440112F913F914F915F910E94A911EE
S1131F40DD2351F09058A2EA2AED3FE049EC5FE32B
S1131F50D0785D270E94E80EDF910C9440110E9416
S1131F601711E3950C9451110E94C80F0C94401161
S1131F700E940E1158F00E94071140F029F45F3FAF
S1131F8029F00C94D71051110C9488110C94DD1085
S1131F900E94651168F39923B1F3552391F3951BBE
S1131FA0550BBB27AA2762177307840738F09F5F76
S1131FB05F4F220F331F441FAA1FA9F335D00E2EE3
S1131FC03AF0E0E832D091505040E695001CCAF750
S1131FD02BD0FE2F29D0660F771F881FBB1F261713
S1131FE037074807AB07B0E809F0BB0B802DBF01EA
S1131FF0FF2793585F4F3AF09E3F510578F00C94B9
S1132000D7100C9488115F3FE4F3983ED4F386957F
S113201077956795B795F7959F5FC9F7880F911DD9
S11320209695879597F90895E1E0660F771F881FC5
S1132030BB1F621773078407BA0720F0621B730B78
S1132040840BBA0BEE1F88F7E09508950E942D10BB
S11320506894B1110C94881108950E946D1188F050
S11320609F5798F0B92F9927B751B0F0E1F0660F58
S1132070771F881F991F1AF0BA95C9F714C0B13099
S113208091F00E948711B1E008950C948711672F95
S1132090782F8827B85F39F0B93FCCF386957795C8
S11320A06795B395D9F73EF49095809570956195B1
S11320B07F4F8F4F9F4F0895E89409C097FB3EF4DC
S11320C090958095709561957F4F8F4F9F4F992381
S11320D0A9F0F92F96E9BB279395F69587957795FF
S11320E06795B795F111F8CFFAF4BB0F11F460FFBF
S11320F01BC06F5F7F4F8F4F9F4F16C0882311F017
S113210096E911C0772321F09EE8872F762F05C02A
S1132110662371F096E8862F70E060E02AF09A95C5
S1132120660F771F881FDAF7880F9695879597F9BA
S11321300895E894F92F96EBFF2381F01216130605
S11321401406440B9395F69587957795679557955F
S11321504040FF23B9F71BC099270895882351F401
S11321609850D2F7872B762F652F542F432F322F79
S113217020E0B1F3121613061406440B88233AF038
S11321809A95440F551F661F771F881FCAF755235A
S11321904AF4440F551F11F460FF04C06F5F7F4F72
S11321A08F4F9F4F880F9695879597F9089597F9C4
S11321B09F6780E870E060E008959FEF80EC0895E9
S11321C0DF93CF931F930F93FF92EF92DF927B01E4
S11321D08C01689406C0DA2EEF010E94A911FE0159
S11321E0E894A5912591359145915591A6F3EF0178
S11321F00E94E80EFE019701A801DA9469F7DF90C6
S1132200EF90FF900F911F91CF91DF9108950024DB
S11322100A941616170618060906089500240A9447
S1132220121613061406050608950C94DD100E9478
S11322306D11D8F3E894E0E0BB279F57F0F02AED46
S11322403FE049EC06C0EE0FBB0F661F771F881FE7
S113225028F0B23A62077307840728F0B25A620B77
S1132260730B840BE3959A9572F7803830F49A9542
S1132270BB0F661F771F881FD2F790480C94571224
S1132280092E0394000C11F4882352F0BB0F40F480
S1132290BF2B11F460FF04C06F5F7F4F8F4F9F4FC0
S11322A00895EF93E0FF07C0A2EA2AED3FE049EC6E
S11322B05FEB0E94E80E0E9440110F90039401FC12
S11322C09058E5E9F0E00C946A1257FD9058440FD9
S11322D0551F59F05F3F71F04795880F97FB991F81
S11322E061F09F3F79F0879508951216130614063E
S11322F0551FF2CF4695F1DF08C0161617061806CB
S1132300991FF1CF86957105610508940895E894A5
S1132310BB2766277727CB0197F908959B01AC016A
S113232060E070E080E89FE30C94B40F0E94A91170
S11323300C9440110E94071138F00E940E1120F0F5
S1132340952311F00C94D7100C94DD1011240C94E7
S113235088110E94651170F3959FC1F3950F50E0A9
S1132360551F629FF001729FBB27F00DB11D639F43
S1132370AA27F00DB11DAA1F649F6627B00DA11DE9
S1132380661F829F2227B00DA11D621F739FB00D8F
S1132390A11D621F839FA00D611D221F749F3327FF
S11323A0A00D611D231F849F600D211D822F762F98
S11323B06A2F11249F5750409AF0F1F088234AF075
S11323C0EE0FFF1FBB1F661F771F881F91505040E1
S11323D0A9F79E3F510580F00C94D7100C948811F6
S11323E05F3FE4F3983ED4F3869577956795B79568
S11323F0F795E7959F5FC1F7FE2B880F911D969582
S1132400879597F908959F930E9417110F9007FCE1
S1132410EE5F0C94511119F416F40C94DD100C9425
S113242055120E946D11B8F39923C9F3B6F39F575F
S1132430550B87FF0E9463120024A0E640EA900136
S113244080585695979528F4805C660F771F881FEF
S113245020F026173707480730F4621B730B840BF0
S1132460202931294A2BA695179407942025312534
S11324704A2758F7660F771F881F20F0261737075B
S1132480480730F4620B730B840B200D311D411D82
S1132490A09581F7B901842F9158880F9695879557
S11324A008959B01AC010C9496119F3F31F091501B
S11324B020F4879577956795B795880F911D969524
S11324C0879597F9089591505040660F771F881F9C
S11324D0D2F708959F938F937F936F93FF93EF9316
S11324E09B01AC010E949611EF91FF910E94E010B4
S11324F02F913F914F915F910C949611AA1BBB1B96
S113250051E107C0AA1FBB1FA617B70710F0A61BEF
S1132510B70B881F991F5A95A9F780959095BC0110
S1132520CD010895A1E21A2EAA1BBB1BFD010DC00B
S1132530AA1FBB1FEE1FFF1FA217B307E407F5076F
S113254020F0A21BB30BE40BF50B661F771F881F4B
S1132550991F1A9469F760957095809590959B01E1
S1132560AC01BD01CF0108950E94AB13A59F900D4E
S1132570B49F900DA49F800D911D11240895DF93A5
S1132580CF931F930F939A9DF02D219FF00D8B9D58
S1132590F00D8A9DE02DF10D039FF00D029FE00DDB
S11325A0F11D4E9DE00DF11D5E9DF00D4F9DF00D52
S11325B07F936F93BF92AF925F934F93D5010E9425
S11325C0AB138B01AC01D7010E94AB13EB01E80FF5
S11325D0F91FD6010E940F132F913F91D6010E943B
S11325E0AB13C60FD71FE81FF91FAF91BF910E940D
S11325F00F132F913F910E94AB13C60FD71FE81FF3
S1132600F91FD6010E94AB13E60FF71F9801BE0114
S1132610CF0111240F911F91CF91DF9108950E9452
S1132620AB13460F571FC81FD91F08F431960895DE
S1132630689401C0E8948F929F92CF93DF930E9495
S11326402613DF91CF919F908F9008958824992429
S1132650F401E401B0E49F93AA279A158B049C0427
S1132660ED05FE05CF05D007A10798F4AD2FDC2FAB
S1132670CF2FFE2FE92D982C892E982F872F762F78
S1132680652F542F432F322F2227B85031F7BF9193
S113269027C01B2EBF91BB27220F331F441F551F7A
S11326A0661F771F881F991F881C991CEE1FFF1F28
S11326B0CC1FDD1FAA1FBB1F8A149B04EC05FD055C
S11326C0CE05DF05A007B10748F08A189B08EC097E
S11326D0FD09CE09DF09A00BB10B21601A94E1F6C4
S11326E02EF49401AF01BE01CD01000C08950F93A7
S11326F0083090F0982F872F762F652F542F432F73
S1132700322F22270850F4CF220F331F441F551FA6
S1132710661F771F881F991F0A95B2F70F910895B6
S11327202A0D3B1D4C1D5D1D6E1D7F1D801F911FBD
S113273008952A193B094C095D096E097F09800B2C
S1132740910B08952A153B054C055D056E057F0523
S1132750800791070895A29FB001B39FC001A39F72
S1132760700D811D1124911DB29F700D811D1124C6
S1132770911D0895FC0188279927E894219120321E
S1132780E9F3293010F02E30C8F32B3241F02D320A
S113279039F4689404C00E940414820F911D21919D
S11327A020532A30C0F31EF4909581959F4F0895CD
S11327B04EE951E00E94DD130895FA01A191B08120
S11327C0009719F41097E1F0CD01DC01CD010D90D3
S11327D0002011F4C00113C0FB012191222319F040
S11327E02015D9F7F3CFFB012191201519F41E927E
S11327F0119606C02223C1F70D900020A1F7D00145
S1132800FA01A193B08308957AE0979F902D879F52
S1132810802D910D11240895AEE0B0E0E2E1F4E1E1
S11328200C94DB160D891E898F89988D26E02C83E4
S11328301A83098397FF02C080E090E801979E8382
S11328408D83AE01455E5F4F698D7A8DCE01019611
S11328500E943C144D815E8157FD0AC02F8138854A
S1132860421753070CF49A01F801E20FF31F108288
S11328702E96E4E00C94F716ABE0B0E0E2E4F4E169
S11328800C94CD166C017B018A01FC01178216821F
S1132890838181FFCCC1CE0101963C01F601938175
S11328A0F70193FD859193FF81917F01882309F4BA
S11328B0BAC1853239F493FD859193FF81917F01EB
S11328C0853229F4B60190E00E943316E7CF912CAB
S11328D0212C312CFFE1F315D8F08B3279F038F448
S11328E0803279F08332A1F4232D20611DC08D3212
S11328F061F0803369F4232D216016C0832D82603A
S1132900382EE32DE4603E2E2AC0F32DF8601DC05E
S113291037FC2DC020ED280F2A3040F08E32B9F458
S113292036FC81C1232D2064322E19C036FE06C028
S11329308AE0989E200D1124922E11C0EAE02E9E6A
S1132940200D1124222EF32DF0623F2E08C08C3668
S113295021F4832D8068382E02C0883641F4F701B3
S113296093FD859193FF81917F018111B3CF982FBE
S11329709F7D9554933028F40C5F1F4F9FE39983F8
S11329800DC0833631F0833771F0833509F059C0B7
S113299021C0F801808189830E5F1F4F88248394AE
S11329A0912C530113C02801F2E04F0E511CF80181
S11329B0A080B18036FE03C0692D70E002C06FEFC5
S11329C07FEFC5010E9428164C018201F32DFF7789
S11329D03F2E16C0280122E0420E511CF801A080AF
S11329E0B18036FE03C0692D70E002C06FEF7FEF47
S11329F0C5010E941D164C01F32DF0683F2E820183
S1132A0033FC1BC0822D90E088169906B0F4B60101
S1132A1080E290E00E9433162A94F4CFF50137FC4B
S1132A20859137FE81915F01B60190E00E943316D3
S1132A3021102A9421E0821A91088114910471F7DB
S1132A40E8C0843611F0893641F5F80137FE07C035
S1132A5060817181828193810C5F1F4F08C0608106
S1132A607181072E000C880B990B0E5F1F4FF32DFD
S1132A70FF763F2E97FF09C09095809570956195DC
S1132A807F4F8F4F9F4FF0683F2E2AE030E0A30125
S1132A900E946F16882E861845C0853731F4232D81
S1132AA02F7EB22E2AE030E025C0932D997FB92ED7
S1132AB08F36C1F018F4883579F0B5C0803719F035
S1132AC0883721F0B0C0E92FE061BE2EB4FE0DC0FE
S1132AD0FB2DF460BF2E09C034FE0AC0292F2660E6
S1132AE0B22E06C028E030E005C020E130E002C08C
S1132AF020E132E0F801B7FE07C060817181828174
S1132B0093810C5F1F4F06C06081718180E090E06B
S1132B100E5F1F4FA3010E946F16882E8618FB2D8F
S1132B20FF773F2E36FE0DC0232D2E7FA22E891453
S1132B3058F434FE0BC032FC09C0832D8E7EA82EBF
S1132B4005C0B82CA32C03C0B82C01C0B92CA4FE1A
S1132B500FC0FE01E80DF11D8081803321F49A2D10
S1132B60997EA92E09C0A2FE06C0B394B39404C0F2
S1132B708A2D867809F0B394A3FC11C0A0FE06C088
S1132B80B21488F4280C922C9B180EC0B21460F472
S1132B90B60180E290E00E943316B394F7CFB214EA
S1132BA018F42B1802C0982C212CA4FE10C0B601D6
S1132BB080E390E00E943316A2FE17C0A1FC03C07C
S1132BC088E790E002C088E590E0B6010CC08A2D49
S1132BD0867859F0A1FE02C08BE201C080E2A7FC16
S1132BE08DE2B60190E00E943316891438F4B601E0
S1132BF080E390E00E9433169A94F7CF8A94F3010D
S1132C00E80DF11D8081B60190E00E943316811019
S1132C10F5CF222009F442CEB60180E290E00E9472
S1132C2033162A94F6CFF6018681978102C08FEF7E
S1132C309FEF2B96E2E10C94E916FC01059061509C
S1132C4070400110D8F7809590958E0F9F1F0895BE
S1132C50FC016150704001900110D8F78095909567
S1132C608E0F9F1F08950F931F93CF93DF93FB0144
S1132C70238121FD03C08FEF9FEF2CC022FF16C0DC
S1132C8046815781248135814217530744F4A0813A
S1132C90B1819D012F5F3F4F318320838C93268127
S1132CA037812F5F3F4F3783268314C08B01EC019C
S1132CB0FB010084F185E02D0995892BE1F6D8010B
S1132CC016968D919C911797019617969C938E93C7
S1132CD01697CE01DF91CF911F910F910895FA01BC
S1132CE0AA27283051F1203181F1E8946F936E7F47
S1132CF06E5F7F4F8F4F9F4FAF4FB1E03ED0B4E038
S1132D003CD0670F781F891F9A1FA11D680F791F78
S1132D108A1F911DA11D6A0F711D811D911DA11D89
S1132D2020D009F468943F912AE0269F1124301999
S1132D30305D3193DEF6CF010895462F4770405D34
S1132D404193B3E00FD0C9F7F6CF462F4F70405DE3
S1132D504A3318F0495D31FD4052419302D0A9F73E
S1132D60EACFB4E0A6959795879577956795BA9538
S1132D70C9F700976105710508959B01AC010A2EFE
S1132D8006945795479537952795BA95C9F7620FD5
S1132D90731F841F951FA01D08952F923F924F9279
S1132DA05F926F927F928F929F92AF92BF92CF92D7
S1132DB0DF92EF92FF920F931F93CF93DF93CDB7E0
S1132DC0DEB7CA1BDB0B0FB6F894DEBF0FBECDBF58
S1132DD009942A88398848885F846E847D848C8429
S1132DE09B84AA84B984C884DF80EE80FD800C8132
S1132DF01B81AA81B981CE0FD11D0FB6F894DEBF15
S10F2E000FBECDBFED010895F894FFCF84
S1132E0C7CFF60010001004C200052200041200D89
S1132E1C0A00494F20004552524F52204D25640A56
S1132E2C004552524F52204725640A004F4B2058FC
S1132E3C256420592564204125640A004F4B2058F1
S1132E4C256420592564204F25640A004F4B204CDF
S1132E5C2564205225640A004F4B2025640A004542
S1132E6C52524F5220636F756C64206E6F742072D3
S1132E7C65636F676E697A6520434D440A004F4B56
S1132E8C20425553592047300A004F4B204255538A
S1112E9C592047310A004F4B204D34310A00B3
S9030000FC
