S0200000726F626F7661635F6D6F64756C61725F736F6674776172652E73726563FB
S11300000C9434000C9451000C9451000C94510045
S11300100C9451000C9451000C9451000C94510018
S11300200C9451000C9451000C9451000C94510008
S11300300C9451000C9451000C9451000C945100F8
S11300400C9451000C9451000C9451000C945100E8
S11300500C9451000C9451000C9451000C945100D8
S11300600C9451000C94510011241FBECFEFD8E022
S1130070DEBFCDBF11E0A0E0B1E0E2E8F8E102C0EC
S113008005900D92A839B107D9F721E0A8E9B1E0AC
S113009001C01D92A43AB207E1F70E9479010C94C1
S11300A03F0C0C94000010927C00EAE7F0E08081A1
S11300B087688083EEE7F0E080818160808380E060
S11300C00895ECE7F0E08081807F8083EAE7F0E048
S11300D0808180648083808186FDFDCF20917800BB
S11300E08091790090E0982F8827820F911D0895C0
S11300F00E94530081E008950E946100BC01990FA1
S1130100880B990B0E94C60720E030E04AE754E4CC
S11301100E9452082DEC38E144EF55E40E94230775
S11301200E94950760930001809100018E3118F4BC
S113013081E48093A2018091000108958091A2013D
S113014008950E947C00089560919A0170919B012A
S113015080919C0190919D0128EE33E040E050E0B5
S11301600E94D308C9010895CF92DF92EF92FF92C3
S11301700F931F93CF93DF9300D0CDB7DEB78111D8
S113018012C080919A0190919B01A0919C01B09121
S11301909D0180939E0190939F01A093A001B09331
S11301A0A10180E022C08130F9F46A017B011A8246
S11301B0198260919A0170919B0180919C019091A8
S11301C09D0128EE33E040E050E00E94D3088E0108
S11301D00F5F1F4FA601B70180919E0190919F016F
S11301E00E948801898101C08FEF0F900F90DF91E9
S11301F0CF911F910F91FF90EF90DF90CF900895D2
S113020080E0089580E0089580E0089580E00895F6
S1130210BC01E9EBF0E080818E7F808380818D7F5B
S1130220808380EA9FE00E94BF08862F603148F0F7
S1130230772760517109CB0199230CF401969595A8
S113024087958093B800089584E690E00E940801A1
S1130250ECEBF0E080818460808308953C9A84EA2A
S11302608093BC0008958091BC0088234CF08AE5FB
S113027090E0ECEBF0E02081222314F00197D9F711
S11302800895EFE9FFE03197F1F700C000003C9AD0
S11302908093BB0084E88093BC0008950E942E01E3
S11302A00E9433018CE30E9441010E94330182E0E9
S11302B00E9441010E94330180E00E9441010E949A
S11302C0330184E98093BC00089580E388B90E94D7
S11302D024010E944E01089560E875E280E090E0F8
S11302E00E94E7010E9465010E94E5010E947800D6
S11302F008950E946C011092A3018091A3018111C1
S1130300F8CF0E94D5068091A3018823D1F3F1CFC1
S11303100F931F93CF93DF93D901F901E81BF90BD6
S11303209A01261B370BE21BF30BE801F983E883E0
S113033000919A0110919B0120919C0130919D01A3
S1130340681B790B4A1B5B0B460F571F552314F48C
S11303504F5F5F4F5595479568EE73E0469FC00128
S1130360479F900D569F900D1124092E000CAA0B47
S1130370BB0B800F911FA21FB31F80939A01909310
S11303809B01A0939C01B0939D0160919A0170918F
S11303909B0180919C0190919D0128EE33E040E007
S11303A050E00E94D308C901DF91CF911F910F91B2
S11303B0089580E0089580E0089580E0089580E045
S11303C0089580E0089580E00895549A0895DC012A
S11303D0CB01880F991FAA1FBB1F880F991FAA1F43
S11303E0BB1F9C01AD01220F331F441F551F60E04A
S11303F074E284EF90E00E94D3082150310982E036
S11304008093C0003093C5002093C40088E180939A
S1130410C10086E08093C2000895E0ECF0E0908192
S113042095FFFDCF8093C6000895E0ECF0E0808155
S11304308823ECF78091C6000895CF93DF93EC01F5
S11304408881882331F021960E940D0289918111BF
S1130450FBCFDF91CF910895EF92FF921F93CF933B
S1130460DF93EC017B010E9415028A30A9F091E030
S1130470E91AF1081E141F047CF410E02196FE0111
S1130480319780831F5F0E9415028A3029F0212F43
S113049030E02E153F0594F31882CE01DF91CF9101
S11304A01F91FF90EF90089580E0089580E00895F3
S11304B0CF92DF92EF92FF920F931F93CF93DF932C
S11304C0CDB7DEB7A5970FB6F894DEBF0FBECDBF8C
S11304D07C018B0160E270E0CE0101960E942C0247
S11304E08981873421F08D3409F476C0F6C18A817C
S11304F0803309F0F4C18B818033B1F58C81803273
S113050009F0EFC188E599E59AA389A380E290E018
S11305109CA38BA3BE016F5D7F4FCE0101960E9409
S11305201309892BE9F0BE016F5D7F4F80E090E0F5
S11305300E9413096C010E94F508F70191838083DE
S1130540CD2881F0BE016F5D7F4F80E090E00E9476
S113055013090E94F508F8019183808380E0DCC1CF
S11305608FEFDAC18FEFD8C1813309F0BCC18C8120
S1130570803209F0BAC18D818C3461F48CE490E04E
S1130580F701918380830F2EF1E0EF2EF1E0FF2E2F
S1130590F02D0EC0823509F0AAC182E590E0F70182
S11305A0918380830F2EF4E0EF2EF1E0FF2EF02DE7
S11305B0B701CE0101960E941309892B09F499C150
S11305C0B70180E090E00E9413090E94F508F80149
S11305D09183808381E0A0C18A81803309F0FFC0C8
S11305E08B818033D1F48C81803259F48D818335B1
S11305F041F4CE0106960E94F508F70191838083A9
S113060005C08FEF9FEFF701918380838FEF9FEFFA
S1130610F8019183808384E67FC1813351F48FEFA5
S11306209FEFF70191838083F8019183808385E6AE
S113063073C1823351F48FEF9FEFF701918380836D
S1130640F8019183808386E667C1833351F48FEF89
S11306509FEFF70191838083F8019183808387E67C
S11306605BC1843351F48FEF9FEFF7019183808353
S1130670F8019183808388E64FC18533B1F59C816D
S1130680903209F05DC088E599E59AA389A380E2D8
S113069090E09CA38BA3BE016F5D7F4FCE010196BA
S11306A00E941309892BE9F0BE016F5D7F4F80E042
S11306B090E00E9413096C010E94F508F7019183F0
S11306C08083CD2881F0BE016F5D7F4F80E090E094
S11306D00E9413090E94F508F8019183808389E63A
S11306E01BC18FEF19C18FEF17C1863349F59C8168
S11306F0903209F04CC085E0E7E0F1E0DE0191962C
S113070001900D928A95E1F7BE016F5D7F4FCE0196
S113071001960E941309892B89F0BE016F5D7F4FFA
S113072080E090E00E9413090E94F508F70191838C
S11307308083F801118210828AE6EEC08FEFECC04C
S1130740873329F58C81803209F0D5C083E590E2A6
S11307509AA389A31BA2BE016F5D7F4FCE010196B0
S11307600E941309892B89F0BE016F5D7F4F80E0E1
S113077090E00E9413090E94F508F7019183808399
S1130780F801118210828BE6C7C08FEFC5C0883391
S113079009F0B3C08C81803209F0B1C083E590E2E6
S11307A09AA389A31BA2BE016F5D7F4FCE01019660
S11307B00E941309892B89F0BE016F5D7F4F80E091
S11307C090E00E9413090E94F508F7019183808349
S11307D0F801118210828CE69FC08FEF9DC089338F
S11307E061F48B81893309F08CC0F7011182108286
S11307F0F8011182108287EC8FC0833361F48B81FE
S1130800803309F080C0F70111821082F80111824F
S1130810108282E881C0813361F48B81813309F0D5
S113082074C0F70111821082F801118210828FE6E0
S113083073C0823361F48B81803309F068C0F7019F
S113084011821082F8011182108288E765C0843316
S113085009F05FC08B81813309F05DC08C818032E7
S113086041F0F70111821082F801118210828DE8A3
S113087053C080910C0190910D01A0910E01B09193
S11308800F0189A39AA3ABA3BCA3BE016F5D7F4FE5
S1130890CE0101960E941309892BE9F0BE016F5D18
S11308A07F4F80E090E00E9413096C010E94F508DC
S11308B0F70191838083CD2871F0BE016F5D7F4F76
S11308C080E090E00E9413090E94F508F8019183EA
S11308D080838DE821C08FEF1FC08FEF1DC08FEF85
S11308E01BC08FEF19C08FEF17C08FEF15C08FEFAC
S11308F013C08FEF11C08FEF0FC08FEF0DC08FEFBC
S11309000BC08FEF09C08FEF07C08FEF05C08FEFCB
S113091003C08FEF01C08FEFA5960FB6F894DEBF2A
S11309200FBECDBFDF91CF911F910F91FF90EF903C
S1130930DF90CF9008950F931F93CF93DF93CDB79C
S1130940DEB76F970FB6F894DEBF0FBECDBF8F3FF3
S113095071F48FE1E9E5F1E0DE01119601900D9269
S11309608A95E1F7CE0101960E941D020FC16F3FE7
S11309709FEF7907B1F58436D8F099E2899F812DEC
S1130980112482958F701F928F9380E191E09F9341
S11309908F931F928BE08F93CE0101969F938F9339
S11309A00E9447090FB6F894DEBF0FBECDBF14C036
S11309B01F928F938BE191E09F938F931F928BE013
S11309C08F93CE0101969F938F930E9447090FB690
S11309D0F894DEBF0FBECDBFCE0101960E941D026A
S11309E0D5C0853661F128F4882369F08130C9F0D7
S11309F0A5C08F3609F440C08D3809F475C0873618
S1130A0009F09CC056C08CE0E8E7F1E0DE011196E5
S1130A1001900D928A95E1F7CE0101960E941D0284
S1130A20B5C08CE0E4E8F1E0DE01119601900D928E
S1130A308A95E1F7CE0101960E941D02A7C03F935B
S1130A402F935F934F937F936F9386E291E09F93ED
S1130A508F931F9289E18F938E010F5F1F4F1F9316
S1130A600F930E944709C8010E941D020FB6F89413
S1130A70DEBF0FBECDBF8AC03F932F935F934F93CA
S1130A807F936F9386E391E09F938F931F9289E105
S1130A908F938E010F5F1F4F1F930F930E9447097F
S1130AA0C8010E941D020FB6F894DEBF0FBECDBF71
S1130AB06DC05F934F937F936F9386E491E09F9310
S1130AC08F931F9282E18F938E010F5F1F4F1F93AD
S1130AD00F930E944709C8010E941D020FB6F894A3
S1130AE0DEBF0FBECDBF52C02F3F3F4F71F488E031
S1130AF0E0E9F1E0DE01119601900D928A95E1F7AB
S1130B00CE0101960E941D0241C07F936F9382E53E
S1130B1091E09F938F931F928AE08F938E010F5FD2
S1130B201F4F1F930F930E944709C8010E941D0283
S1130B300FB6F894DEBF0FBECDBF28C02F3F3F4F86
S1130B4069F48FE49BE49A8389838AE090E09C8330
S1130B508B83CE0101960E941D0218C07F936F9370
S1130B6082E591E09F938F931F928AE08F938E0189
S1130B700F5F1F4F1F930F930E944709C8010E94E4
S1130B801D020FB6F894DEBF0FBECDBF6F960FB631
S1130B90F894DEBF0FBECDBFDF91CF911F910F91AF
S1130BA00895AF92BF92CF92DF92EF92FF920F938C
S1130BB01F93CF93DF936B015A01E9012FEF3FEFAE
S1130BC039832883F80131832083F701318320831B
S1130BD0893609F4B1C088F4853609F466C038F45E
S1130BE0813099F130F1843609F44BC0D3C0873693
S1130BF009F47BC008F467C07DC08F3609F45CC07B
S1130C0048F48B3609F4A7C008F49EC08C3609F466
S1130C10A9C0C0C0823809F4ACC020F4883709F4F4
S1130C205BC0B8C08D3809F46DC0873C09F4ABC013
S1130C30B1C00E940001813009F0ACC0B501C60109
S1130C400E94020119821882A5C00E94000181300D
S1130C5009F0A0C0FCE4CF16D10439F4B5018FEF3C
S1130C600E9404011982188295C082E5C816D10435
S1130C7009F090C0B50181E00E9404011982188234
S1130C8089C06F3FEFEF7E0749F40E94540290E061
S1130C9099838883F701118210827CC0862F0E9479
S1130CA0560290E09983888375C09701A801BE011C
S1130CB081E40E94D9016EC09701A801BE018FE4AE
S1130CC00E94D90167C00E949E0090E099838883A6
S1130CD0F701118210825EC00E94A10090E0998306
S1130CE08883F7011182108255C0B801CE010E9499
S1130CF0DB0150C00E94A40099838883F70111820C
S1130D00108248C0672B61F4452B51F440E050E059
S1130D1060E070E080E00E94B400198218823AC05A
S1130D20A501B60181E00E94B40090E09983888314
S1130D30F701118210822EC0BA01C6010E94DD01A2
S1130D4090E09983888326C0CB010E94DF0190E064
S1130D50998388831FC0CB010E94E10190E09983AD
S1130D60888318C0CB010E94E30190E099838883B3
S1130D7011C00E94060180E00E94560281E090E0CA
S1130D809983888307C081E08093A30181E090E088
S1130D9099838883DF91CF911F910F91FF90EF90FA
S1130DA0DF90CF90BF90AF900895DF92EF92FF92C3
S1130DB00F931F93CF93DF93CDB7DEB72A970FB668
S1130DC0F894DEBF0FBECDBF8091C00088236CF5C0
S1130DD08FEF9FEF9A8389839C838B839E838D837C
S1130DE098878F839A878987BE016D5F7F4FCE0175
S1130DF001960E945802D82E4B815C8169817A81C8
S1130E00CE0109967C018E01095F1F4F9E012B5F65
S1130E103F4F8D2D0E94D10529853A854F815885F4
S1130E206D817E818D2D0E949B042A960FB6F894C5
S1130E30DEBF0FBECDBFDF91CF911F910F91FF9009
S1130E40EF90DF9008950E9437070C9418080E94D1
S1130E50110858F00E940A0840F029F45F3F29F075
S1130E600C94010851110C944C080C9407080E942E
S1130E70290868F39923B1F3552391F3951B550B76
S1130E80BB27AA2762177307840738F09F5F5F4F59
S1130E90220F331F441FAA1FA9F335D00E2E3AF098
S1130EA0E0E832D091505040E695001CCAF72BD0B0
S1130EB0FE2F29D0660F771F881FBB1F2617370701
S1130EC04807AB07B0E809F0BB0B802DBF01FF2733
S1130ED093585F4F3AF09E3F510578F00C94010807
S1130EE00C944C085F3FE4F3983ED4F386957795D1
S1130EF06795B795F7959F5FC9F7880F911D9695EC
S1130F00879597F90895E1E0660F771F881FBB1F47
S1130F10621773078407BA0720F0621B730B840BF4
S1130F20BA0BEE1F88F7E09508950E94310888F007
S1130F309F5798F0B92F9927B751B0F0E1F0660F99
S1130F40771F881F991F1AF0BA95C9F714C0B130DA
S1130F5091F00E944B08B1E008950C944B08672F60
S1130F60782F8827B85F39F0B93FCCF38695779509
S1130F706795B395D9F73EF49095809570956195F2
S1130F807F4F8F4F9F4F0895E89409C097FB3EF41D
S1130F9090958095709561957F4F8F4F9F4F9923C2
S1130FA0A9F0F92F96E9BB279395F6958795779540
S1130FB06795B795F111F8CFFAF4BB0F11F460FF00
S1130FC01BC06F5F7F4F8F4F9F4F16C0882311F058
S1130FD096E911C0772321F09EE8872F762F05C06C
S1130FE0662371F096E8862F70E060E02AF09A9507
S1130FF0660F771F881FDAF7880F9695879597F9FC
S1131000089597F99F6780E870E060E008959FEF86
S113101080EC089500240A9416161706180609068B
S1131020089500240A94121613061406050608955A
S1131030092E0394000C11F4882352F0BB0F40F4E2
S1131040BF2B11F460FF04C06F5F7F4F8F4F9F4F22
S1131050089557FD9058440F551F59F05F3F71F0A4
S11310604795880F97FB991F61F09F3F79F087950B
S11310700895121613061406551FF2CF4695F1DF94
S113108008C0161617061806991FF1CF8695710524
S1131090610508940895E894BB2766277727CB0158
S11310A097F908950E9465080C9418080E940A088C
S11310B038F00E94110820F0952311F00C940108D7
S11310C00C94070811240C944C080E94290870F30E
S11310D0959FC1F3950F50E0551F629FF001729FD9
S11310E0BB27F00DB11D639FAA27F00DB11DAA1FE8
S11310F0649F6627B00DA11D661F829F2227B00D35
S1131100A11D621F739FB00DA11D621F839FA00DBF
S1131110611D221F749F3327A00D611D231F849F0F
S1131120600D211D822F762F6A2F11249F57504066
S11311309AF0F1F088234AF0EE0FFF1FBB1F661FE1
S1131140771F881F91505040A9F79E3F510580F0AA
S11311500C9401080C944C085F3FE4F3983ED4F3DC
S1131160869577956795B795F795E7959F5FC1F74E
S1131170FE2B880F911D9695879597F90895AA1BC4
S1131180BB1B51E107C0AA1FBB1FA617B70710F06E
S1131190A61BB70B881F991F5A95A9F780959095A0
S11311A0BC01CD010895A1E21A2EAA1BBB1BFD01AF
S11311B00DC0AA1FBB1FEE1FFF1FA217B307E40732
S11311C0F50720F0A21BB30BE40BF50B661F771F8A
S11311D0881F991F1A9469F760957095809590956A
S11311E09B01AC01BD01CF010895FC01882799271B
S11311F0E89421912032E9F3293010F02E30C8F31D
S11312002B3241F02D3239F4689404C00E943F0916
S1131210820F911D219120532A30C0F31EF4909522
S113122081959F4F089548E951E00E941809089557
S1131230FA01A191B081009719F41097E1F0CD0162
S1131240DC01CD010D90002011F4C00113C0FB019D
S11312502191222319F02015D9F7F3CFFB01219115
S1131260201519F41E92119606C02223C1F70D9081
S11312700020A1F7D001FA01A193B08308957AE088
S1131280979F902D879F802D910D11240895AEE096
S1131290B0E0EDE4F9E00C94160C0D891E898F89F9
S11312A0988D26E02C831A83098397FF02C080E07F
S11312B090E801979E838D83AE01455E5F4F698DF3
S11312C07A8DCE0101960E9477094D815E8157FD8A
S11312D00AC02F813885421753070CF49A01F8018C
S11312E0E20FF31F10822E96E4E00C94320CABE074
S11312F0B0E0EDE7F9E00C94080C6C017B018A0185
S1131300FC0117821682838181FFCCC1CE01019634
S11313103C01F6019381F70193FD859193FF81913F
S11313207F01882309F4BAC1853239F493FD85918C
S113133093FF81917F01853229F4B60190E00E94E8
S11313406E0BE7CF912C212C312CFFE1F315D8F053
S11313508B3279F038F4803279F08332A1F4232D82
S113136020611DC08D3261F0803369F4232D21602A
S113137016C0832D8260382EE32DE4603E2E2AC0F1
S1131380F32DF8601DC037FC2DC020ED280F2A3046
S113139040F08E32B9F436FC81C1232D2064322E04
S11313A019C036FE06C08AE0989E200D1124922EA4
S11313B011C0EAE02E9E200D1124222EF32DF0629E
S11313C03F2E08C08C3621F4832D8068382E02C04D
S11313D0883641F4F70193FD859193FF81917F0154
S11313E08111B3CF982F9F7D9554933028F40C5FCF
S11313F01F4F9FE399830DC0833631F0833771F01B
S1131400833509F059C021C0F801808189830E5FBA
S11314101F4F88248394912C530113C02801F2E0B8
S11314204F0E511CF801A080B18036FE03C0692D17
S113143070E002C06FEF7FEFC5010E94630B4C01A7
S11314408201F32DFF773F2E16C0280122E0420EC1
S1131450511CF801A080B18036FE03C0692D70E0F4
S113146002C06FEF7FEFC5010E94580B4C01F32DB2
S1131470F0683F2E820133FC1BC0822D90E0881659
S11314809906B0F4B60180E290E00E946E0B2A94B3
S1131490F4CFF50137FC859137FE81915F01B601E8
S11314A090E00E946E0B21102A9421E0821A910888
S11314B08114910471F7E8C0843611F0893641F53E
S11314C0F80137FE07C060817181828193810C5FCE
S11314D01F4F08C060817181072E000C880B990B87
S11314E00E5F1F4FF32DFF763F2E97FF09C0909597
S11314F08095709561957F4F8F4F9F4FF0683F2E79
S11315002AE030E0A3010E94AA0B882E861845C069
S1131510853731F4232D2F7EB22E2AE030E025C00A
S1131520932D997FB92E8F36C1F018F4883579F050
S1131530B5C0803719F0883721F0B0C0E92FE061D9
S1131540BE2EB4FE0DC0FB2DF460BF2E09C034FEC8
S11315500AC0292F2660B22E06C028E030E005C05C
S113156020E130E002C020E132E0F801B7FE07C01C
S113157060817181828193810C5F1F4F06C06081FD
S1131580718180E090E00E5F1F4FA3010E94AA0BBF
S1131590882E8618FB2DFF773F2E36FE0DC0232D97
S11315A02E7FA22E891458F434FE0BC032FC09C0DD
S11315B0832D8E7EA82E05C0B82CA32C03C0B82C76
S11315C001C0B92CA4FE0FC0FE01E80DF11D8081FD
S11315D0803321F49A2D997EA92E09C0A2FE06C05B
S11315E0B394B39404C08A2D867809F0B394A3FC11
S11315F011C0A0FE06C0B21488F4280C922C9B18CB
S11316000EC0B21460F4B60180E290E00E946E0B4A
S1131610B394F7CFB21418F42B1802C0982C212CD1
S1131620A4FE10C0B60180E390E00E946E0BA2FEFF
S113163017C0A1FC03C088E790E002C088E590E0F1
S1131640B6010CC08A2D867859F0A1FE02C08BE247
S113165001C080E2A7FC8DE2B60190E00E946E0B0F
S1131660891438F4B60180E390E00E946E0B9A94DA
S1131670F7CF8A94F301E80DF11D8081B60190E063
S11316800E946E0B8110F5CF222009F442CEB601E0
S113169080E290E00E946E0B2A94F6CFF6018681D8
S11316A0978102C08FEF9FEF2B96E2E10C94240CFC
S11316B0FC010590615070400110D8F78095909519
S11316C08E0F9F1F0895FC0161507040019001101E
S11316D0D8F7809590958E0F9F1F08950F931F93B1
S11316E0CF93DF93FB01238121FD03C08FEF9FEF95
S11316F02CC022FF16C046815781248135814217B0
S1131700530744F4A081B1819D012F5F3F4F318382
S113171020838C93268137812F5F3F4F3783268325
S113172014C08B01EC01FB010084F185E02D0995C7
S1131730892BE1F6D80116968D919C911797019605
S113174017969C938E931697CE01DF91CF911F919C
S11317500F910895FA01AA27283051F1203181F11F
S1131760E8946F936E7F6E5F7F4F8F4F9F4FAF4FA5
S1131770B1E03ED0B4E03CD0670F781F891F9A1FB8
S1131780A11D680F791F8A1F911DA11D6A0F711D6C
S1131790811D911DA11D20D009F468943F912AE078
S11317A0269F11243019305D3193DEF6CF01089560
S11317B0462F4770405D4193B3E00FD0C9F7F6CF91
S11317C0462F4F70405D4A3318F0495D31FD405259
S11317D0419302D0A9F7EACFB4E0A69597958795EF
S11317E077956795BA95C9F70097610571050895CE
S11317F09B01AC010A2E069457954795379527957A
S1131800BA95C9F7620F731F841F951FA01D089511
S11318102F923F924F925F926F927F928F929F92FC
S1131820AF92BF92CF92DF92EF92FF920F931F93EA
S1131830CF93DF93CDB7DEB7CA1BDB0B0FB6F8949B
S1131840DEBF0FBECDBF09942A88398848885F84DB
S11318506E847D848C849B84AA84B984C884DF804C
S1131860EE80FD800C811B81AA81B981CE0FD11D30
S11318700FB6F894DEBF0FBECDBFED010895F89406
S1051880FFCF94
S11318827C4C200052200041200D0A00494F2000C8
S11318924552524F52204D25640A004552524F522E
S11318A2204725640A004F4B20582564205925649B
S11318B2204125640A004F4B205825642059256491
S11318C2204F25640A004F4B204C25642052256486
S11318D20A004F4B2025640A004552524F5220639E
S11318E26F756C64206E6F74207265636F676E69C6
S11318F27A6520434D440A004F4B204255535920E8
S113190247300A004F4B20425553592047310A00B1
S10B19124F4B204D34310A0053
S9030000FC
