S0200000726F626F7661635F6D6F64756C61725F736F6674776172652E73726563FB
S11300000C9434000C9451000C9451000C94510045
S11300100C9451000C9451000C9451000C94510018
S11300200C9451000C9451000C9451000C94510008
S11300300C9451000C9451000C9451000C945100F8
S11300400C9451000C9451000C9451000C945100E8
S11300500C9451000C9451000C9451000C945100D8
S11300600C9451000C94510011241FBECFEFD8E022
S1130070DEBFCDBF11E0A0E0B1E0EAEAF1E202C0E8
S113008005900D92AE39B107D9F721E0AEE9B1E0A0
S113009001C01D92A33BB207E1F70E94AE020C948B
S11300A0D3100C940000CF93DF93CDB7DEB780E07C
S11300B0DF91CF910895CF93DF93CDB7DEB780E082
S11300C0DF91CF910895CF93DF93CDB7DEB780E072
S11300D090E0DF91CF910895AF92BF92CF92DF92DB
S11300E0EF92FF920F931F93CF93DF9300D000D032
S11300F01F92CDB7DEB789837B836A835D834C838C
S11301008981882319F58091A0019091A101A09182
S1130110A201B091A3018093A6019093A701A0939B
S1130120A801B093A9018091A0019091A101A0918F
S1130130A201B091A30128EE33E040E050E0BC01FD
S1130140CD010E94670DDA01C90162C08981813045
S113015009F05DC04A815B8128EE33E0429FC00113
S1130160439F900D529F900D11249C01990F440BB5
S1130170550B8091A6019091A701A091A801B0917F
S1130180A901281B390B4A0B5B0BEC81FD8168EE3E
S113019073E0E69FC001E79F900DF69F900D112438
S11301A07C01990F000B110B8091A0019091A1018A
S11301B0A091A201B091A30157016801A81AB90A3C
S11301C0CA0ADB0AD601C501820F931FA41FB51FFB
S11301D0B695A795979587958093A0019093A101D3
S11301E0A093A201B093A3018091A0019091A101D9
S11301F0A091A201B091A30128EE33E040E050E0C9
S1130200BC01CD010E94670DDA01C90101C08FEF65
S11302100F900F900F900F900F90DF91CF911F913F
S11302200F91FF90EF90DF90CF90BF90AF90089523
S1130230CF93DF93CDB7DEB780E0DF91CF91089500
S1130240CF93DF9300D000D0CDB7DEB79A838983F4
S11302507C836B8380E00F900F900F900F90DF9161
S1130260CF910895CF93DF9300D01F92CDB7DEB71F
S113027089837B836A8380E00F900F900F90DF91D6
S1130280CF910895CF93DF93CDB7DEB780E0DF91B0
S1130290CF910895CF93DF93CDB7DEB784E690E096
S11302A00E945F018CEB90E02CEB30E0F90120819F
S11302B02460FC0120830000DF91CF910895CF9347
S11302C0DF9300D01F92CDB7DEB79B838A8389EB7F
S11302D090E029EB30E0F90120812E7FFC0120839E
S11302E089EB90E029EB30E0F90120812D7FFC01BE
S11302F0208380EA9FE02A813B81B9010E94530D4B
S1130300CB0189838981803150F08981882F90E0E5
S1130310409799230CF4019695958795898388EBEA
S113032090E02981FC01208300000F900F900F9032
S1130330DF91CF910895CF93DF93CDB7DEB787E2F6
S113034090E027E230E0F90120812061FC01208364
S11303508CEB90E024EAFC0120830000DF91CF9134
S11303600895CF93DF93CDB7DEB78CEB90E024E90B
S1130370FC0120830000DF91CF910895CF93DF9398
S113038000D0CDB7DEB71A82198205C089819A815F
S113039001969A8389838CEB90E0FC018081882309
S11303A02CF089819A818A35910584F300000F909D
S11303B00F90DF91CF910895CF93DF93CDB7DEB740
S11303C02F970FB6F894DEBF0FBECDBF8F8780E0A6
S11303D090E0A0E8BFE389839A83AB83BC8320E0E9
S11303E030E04AE755E469817A818B819C810E94DF
S11303F0E60CDC01CB018D839E83AF83B88720E0BC
S113040030E040E85FE36D817E818F8198850E94B2
S1130410380C88232CF481E090E09A8789873FC0C8
S113042020E03FEF4FE757E46D817E818F8198850F
S11304300E94E10C18164CF520E030E040E251E453
S113044069817A818B819C810E94E60CDC01CB015D
S1130450BC01CD010E943D0CDC01CB019A87898748
S11304600FC080E991E09C878B878B859C850197E1
S1130470F1F79C878B8789859A8501979A87898765
S113048089859A85892B69F714C06D817E818F8156
S113049098850E943D0CDC01CB019A878987898568
S11304A09A859E878D878D859E850197F1F79E8716
S11304B08D8787E290E027E230E0F9012081206116
S11304C0FC0120838BEB90E02F85FC0120838CEBD7
S11304D090E024E8FC01208300002F960FB6F894E6
S11304E0DEBF0FBECDBFDF91CF910895CF93DF93D1
S11304F0CDB7DEB70E9484020E944A010E94910295
S11305000000DF91CF910895CF93DF93CDB7DEB78D
S113051088E290E020E3FC0120830000DF91CF918A
S11305200895CF93DF93CDB7DEB70E949B010E945D
S1130530BE018CE30E94DC010E94BE0182E00E94A5
S1130540DC010E94BE0180E00E94DC010E94BE0129
S11305500E94B1010000DF91CF910895CF93DF9302
S1130560CDB7DEB70E94BE021092AA0102C00E945B
S1130570C30B8091AA018823D1F3F4CFCF93DF93E7
S1130580CDB7DEB760E875E280E090E00E944703F3
S11305900E9476020E9436030000DF91CF910895F5
S11305A0CF93DF93CDB7DEB727970FB6F894DEBFAE
S11305B00FBECDBF89837B836A835D834C833F8376
S11305C02E8380E027960FB6F894DEBF0FBECDBF12
S11305D0DF91CF910895CF93DF9300D000D0CDB7B2
S11305E0DEB79A8389837C836B8380E00F900F90BE
S11305F00F900F90DF91CF910895CF93DF9300D0A8
S113060000D0CDB7DEB79A8389837C836B8380E087
S11306100F900F900F900F90DF91CF910895CF938B
S1130620DF9300D0CDB7DEB79A83898380E00F9043
S11306300F90DF91CF910895CF93DF9300D0CDB782
S1130640DEB79A83898380E00F900F90DF91CF917A
S11306500895CF93DF9300D0CDB7DEB79A83898313
S113066080E00F900F90DF91CF910895CF93DF93A7
S1130670CDB7DEB78AE290E02AE230E0F9012081CA
S11306802061FC0120830000DF91CF910895CF9376
S1130690DF9300D000D000D0CDB7DEB76B837C836E
S11306A08D839E838B819C81AD81BE81880F991F30
S11306B0AA1FBB1F880F991FAA1FBB1F880F991F52
S11306C0AA1FBB1F9C01AD0180E094E2A4EFB0E03F
S11306D0BC01CD010E94670DDA01C90101979A831B
S11306E0898380EC90E022E0FC01208385EC90E09B
S11306F029813A81232F3327FC01208384EC90E065
S11307002981FC01208381EC90E028E1FC01208315
S113071082EC90E026E0FC012083000026960FB6D0
S1130720F894DEBF0FBECDBFDF91CF910895CF9374
S1130730DF931F92CDB7DEB78983000080EC90E091
S1130740FC018081882F90E080729927892BB1F376
S113075086EC90E02981FC01208300000F90DF915A
S1130760CF910895CF93DF93CDB7DEB7000080EC2F
S113077090E0FC0180818823D4F786EC90E0FC01B2
S11307808081DF91CF910895CF93DF9300D000D083
S1130790CDB7DEB79C838B831A8219820FC02B815D
S11307A03C8189819A81820F931FFC0180810E9480
S11307B0970389819A8101969A8389832B813C814D
S11307C089819A81820F931FFC018081882339F7E4
S11307D000000F900F900F900F90DF91CF9108952C
S11307E0CF93DF9300D000D000D0CDB7DEB79C8389
S11307F08B837E836D831A820E94B203898310C027
S11308008B819C819C012F5F3F4F3C832B832981EB
S1130810FC0120838A818F5F8A830E94B2038983CB
S113082089818A3049F08A81282F30E08D819E8128
S113083001972817390724F38B819C81FC011082CE
S11308408B819C8126960FB6F894DEBF0FBECDBF78
S1130850DF91CF910895CF93DF93CDB7DEB780E0DA
S1130860DF91CF910895CF93DF931F92CDB7DEB779
S1130870898380E00F90DF91CF910895CF93DF9328
S1130880CDB7DEB7C155D1090FB6F894DEBF0FBEA0
S1130890CDBF9E01225B3F4FF90191838083CE013E
S11308A0805B9F4FFC0171836083CE01825B9F4F0D
S11308B09E012D5C3F4FFC0131832083CE01805B80
S11308C09F4F9E012B5C3F4FFC0131832083CE015F
S11308D0439660E270E00E94F0038B89882F90E0D9
S11308E08734910529F08D34910509F4B5C06FC39F
S11308F08C89803309F054C08D89803309F050C04D
S11309008E89803209F04CC088E599E598AF8FABA9
S113091080E290E09AAF89AF9E01295C3F4FCE01FF
S11309204396B9010E94A70D9C838B838B819C8184
S1130930892BA1F1CE01C796BC0180E090E00E9412
S1130940A70D9C838B838B819C810E94890D9C01C4
S1130950CE01825B9F4FFC0180819181FC01318338
S113096020838B819C81892BC9F0CE01C796BC0161
S113097080E090E00E94A70D9C838B838B819C81F7
S11309800E94890D9C01CE01805B9F4FFC018081F8
S11309909181FC013183208380E01AC38FEF18C357
S11309A08C89803309F010C38D89813309F00CC31D
S11309B08E89803209F008C38F898C3481F480E0F9
S11309C091E09A838983CE01825B9F4FFC018081F1
S11309D091812CE430E0FC013183208315C08F89A0
S11309E0823581F483E091E09A838983CE01825B2E
S11309F09F4FFC018081918122E530E0FC0131832D
S1130A00208302C08FEFE4C229813A81CE0143964C
S1130A10B9010E94A70D9E838D838D819E81892BB0
S1130A20C9F089819A81BC0180E090E00E94A70D01
S1130A309E838D838D819E810E94890D9C01CE01B0
S1130A40805B9F4FFC0180819181FC013183208375
S1130A5081E0BEC28FEFBCC28C898033A9F58D8939
S1130A60803391F58E898032B9F48F898335A1F46E
S1130A70CE014396059698878F838F8198850E942F
S1130A80890D9C01CE01825B9F4FFC018081918185
S1130A90FC01318320830BC0CE01825B9F4FFC019C
S1130AA0808191812FEF3FEFFC0131832083CE01C0
S1130AB0805B9F4FFC01808191812FEF3FEFFC0110
S1130AC03183208384E684C28C898033D9F48D8970
S1130AD08133C1F4CE01825B9F4FFC0180819181FF
S1130AE02FEF3FEFFC0131832083CE01805B9F4FCA
S1130AF0FC01808191812FEF3FEFFC013183208342
S1130B0085E666C28C898033D9F48D898233C1F439
S1130B10CE01825B9F4FFC01808191812FEF3FEFDB
S1130B20FC0131832083CE01805B9F4FFC018081D7
S1130B3091812FEF3FEFFC013183208386E648C289
S1130B408C898033D9F48D898333C1F4CE01825BDF
S1130B509F4FFC01808191812FEF3FEFFC01318396
S1130B602083CE01805B9F4FFC01808191812FEF18
S1130B703FEFFC013183208387E62AC28C898033CE
S1130B80D9F48D898433C1F4CE01825B9F4FFC017B
S1130B90808191812FEF3FEFFC0131832083CE01CF
S1130BA0805B9F4FFC01808191812FEF3FEFFC011F
S1130BB03183208388E60CC28C89803309F054C0C9
S1130BC08D89853309F050C08E89803209F04CC07C
S1130BD088E599E59CAF8BAF80E290E09EAF8DAF46
S1130BE09E01255C3F4FCE014396B9010E94A70D9B
S1130BF09A87898789859A85892BA1F1CE01CB961D
S1130C00BC0180E090E00E94A70D9A8789878985BE
S1130C109A850E94890D9C01CE01825B9F4FFC0145
S1130C2080819181FC013183208389859A85892B78
S1130C30C9F0CE01CB96BC0180E090E00E94A70DE4
S1130C409A87898789859A850E94890D9C01CE019E
S1130C50805B9F4FFC0180819181FC013183208363
S1130C6089E6B6C18FEFB4C18C89803309F042C0E4
S1130C708D89863309F03EC08E898032D9F585E0AE
S1130C80E6E0F1E0DE01DF9601900D928A95E1F74E
S1130C909E01215C3F4FCE014396B9010E94A70DEE
S1130CA09C878B878B859C85892B11F1CE01CF96F0
S1130CB0BC0180E090E00E94A70D9C878B878B8508
S1130CC09C850E94890D9C01CE01825B9F4FFC0193
S1130CD080819181FC0131832083CE01805B9F4F11
S1130CE0FC0180819181FC01118210828AE670C12D
S1130CF08FEF6EC18C89803309F044C08D898733AE
S1130D0009F040C08E898032E9F5CE018C5B9F4F9B
S1130D1023E530E2FC0131832083FC0112829E0131
S1130D202C5B3F4FCE014396B9010E94A70D9E87CD
S1130D308D878D859E85892B19F1CE018C5B9F4F04
S1130D40BC0180E090E00E94A70D9E878D878D8571
S1130D509E850E94890D9C01CE01825B9F4FFC0100
S1130D6080819181FC0131832083CE01805B9F4F80
S1130D70FC0180819181FC01118210828BE628C1E3
S1130D808FEF26C18C89803309F044C08D89883364
S1130D9009F040C08E898032E9F5CE01895B9F4F0E
S1130DA023E530E2FC0131832083FC0112829E01A1
S1130DB0295B3F4FCE014396B9010E94A70D988B42
S1130DC08F878F859889892B19F1CE01895B9F4F75
S1130DD0BC0180E090E00E94A70D988B8F878F85DF
S1130DE098890E94890D9C01CE01825B9F4FFC0172
S1130DF080819181FC0131832083CE01805B9F4FF0
S1130E00FC0180819181FC01118210828CE6E0C09A
S1130E108FEFDEC08C898933B9F48D898933A1F4CD
S1130E20CE01825B9F4FFC0180819181FC01118284
S1130E301082CE01805B9F4FFC0180819181FC0177
S1130E401182108287ECC4C08C898333B9F48D89F4
S1130E508033A1F4CE01825B9F4FFC01808191819C
S1130E60FC0111821082CE01805B9F4FFC018081C6
S1130E709181FC011182108282E8AAC08C8981339D
S1130E80B9F48D898133A1F4CE01825B9F4FFC01BB
S1130E9080819181FC0111821082CE01805B9F4F81
S1130EA0FC0180819181FC01118210828FE690C047
S1130EB08C898233B9F48D898033A1F4CE01825BAD
S1130EC09F4FFC0180819181FC0111821082CE012F
S1130ED0805B9F4FFC0180819181FC011182108213
S1130EE088E776C08C89843309F070C08D8981339A
S1130EF009F06CC08E898032A1F0CE01825B9F4FD5
S1130F00FC0180819181FC0111821082CE01805B01
S1130F109F4FFC0180819181FC01118210828DE838
S1130F2057C0CE01865B9F4F29E43FE4FC01318327
S1130F30208320E230E0FC01338322839E01265B80
S1130F403F4FCE014396B9010E94A70D9A8B898B1E
S1130F5089899A89892BB1F1CE01865B9F4FBC01A7
S1130F6080E090E00E94A70D9A8B898B89899A89E9
S1130F700E94890D9C01CE01825B9F4FFC01808100
S1130F809181FC013183208389899A89892BD1F04D
S1130F90CE01865B9F4FBC0180E090E00E94A70DCC
S1130FA09A8B898B89899A890E94890D9C01CE012B
S1130FB0805B9F4FFC0180819181FC013183208300
S1130FC08DE806C08FEF04C0000001C000008FEF61
S1130FD0CF5ADF4F0FB6F894DEBF0FBECDBFDF91FF
S1130FE0CF910895CF93DF93CDB7DEB7CE5AD10911
S1130FF00FB6F894DEBF0FBECDBFFE01E855FF4F1C
S11310008083CE0187559F4FFC0171836083CE019D
S113101085559F4FFC0151834083CE0183559F4FDB
S1131020FC01318320831982CE0188559F4FFC0136
S113103080818F3F79F48FE1EBE0F1E0DE011296DD
S113104001900D928A95E1F7CE0102960E94C403A5
S11310500000EBC1CE0187559F4FFC018081918137
S1131060019609F064C0CE0188559F4FFC01808130
S11310708436A0F1CE0188559F4F9E0128553F4FDD
S1131080F901308129E2329F212D112422952F70FC
S1131090FC012083CE0188559F4FFC018081882F5D
S11310A090E0292F2F938F938AE291E0892F8F93D9
S11310B08AE291E08F931F928BE08F93CE01819609
S11310C0292F2F938F930E94DB0D8DB79EB708961F
S11310D00FB6F894DEBF0FBECDBF23C0CE01885536
S11310E09F4FFC018081882F90E0292F2F938F93AD
S11310F085E391E0892F8F9385E391E08F931F928D
S11311008BE08F93CE018196292F2F938F930E948A
S1131110DB0D8DB79EB708960FB6F894DEBF0FBEF1
S1131120CDBFCE0181960E94C40300007EC1CE01D2
S113113088559F4FFC018081882F90E0853691056A
S1131140A9F1863691052CF4009781F00197F1F00E
S11311501FC18F36910509F466C08D38910509F4D5
S1131160D3C08736910509F49BC012C181E08983FD
S11311708CE0E0E4F1E0DE019C9601900D928A950A
S1131180E1F7CE018C960E94C4034FC181E08983AC
S11311908CE0ECE4F1E0DE01D89601900D928A95A2
S11311A0E1F7CE01C8960E94C4033FC181E0898360
S11311B0CE0183559F4FFC0121812F93FC01808137
S11311C08F93CE0185559F4FFC0121812F93FC0104
S11311D080818F93CE0187559F4FFC0121812F93EE
S11311E0FC0180818F9388E591E0892F8F9388E5B6
S11311F091E08F931F9289E18F93CE018C5B9F4F77
S1131200292F2F938F930E94DB0D8DB79EB70C96D9
S11312100FB6F894DEBF0FBECDBFCE018C5B9F4FDF
S11312200E94C40302C181E08983CE0183559F4F8C
S1131230FC0121812F93FC0180818F93CE01855580
S11312409F4FFC0121812F93FC0180818F93CE015C
S113125087559F4FFC0121812F93FC0180818F933F
S113126088E691E0892F8F9388E691E08F931F920F
S113127089E18F93CE01835A9F4F292F2F938F9308
S11312800E94DB0D8DB79EB70C960FB6F894DEBFA7
S11312900FBECDBFCE01835A9F4F0E94C403C5C069
S11312A081E08983CE0185559F4FFC0121812F93D5
S11312B0FC0180818F93CE0187559F4FFC012181D2
S11312C02F93FC0180818F9388E791E0892F8F937E
S11312D088E791E08F931F9282E18F93CE018A5821
S11312E09F4F292F2F938F930E94DB0D8DB79EB7AD
S11312F00A960FB6F894DEBF0FBECDBFCE018A5852
S11313009F4F0E94C40391C081E08983CE0183551D
S11313109F4FFC0180819181019689F4CE01885709
S11313209F4F28E0E4E8F1E0DC0101900D922A955A
S1131330E1F7CE0188579F4F0E94C40376C0CE01C7
S113134087559F4FFC0121812F93FC0180818F934E
S11313508CE891E0892F8F938CE891E08F931F9212
S11313608AE08F93CE0180579F4F292F2F938F931D
S11313700E94DB0D8DB79EB708960FB6F894DEBFBA
S11313800FBECDBFCE0180579F4F0E94C4034DC0F6
S113139081E08983CE0183559F4FFC018081918137
S11313A0019699F4CE0186569F4F2FE43BE4FC014D
S11313B0318320832AE030E0FC0133832283CE0191
S11313C086569F4F0E94C40328C0CE0187559F4F65
S11313D0FC0121812F93FC0180818F938CE891E0A3
S11313E0892F8F938CE891E08F931F928AE08F93DB
S11313F0CE0182569F4F292F2F938F930E94DB0D8E
S11314008DB79EB708960FB6F894DEBF0FBECDBF5A
S1131410CE0182569F4F0E94C4038981882321F400
S113142081E08093AA0100000000C255DF4F0FB68F
S1131430F894DEBF0FBECDBFDF91CF910895EF9238
S1131440FF920F931F93CF93DF93CDB7DEB72B9704
S11314500FB6F894DEBF0FBECDBF89837B836A834A
S11314605D834C833F832E8319870887FB86EA8636
S11314708E819F812FEF3FEFFC013183208388858C
S113148099852FEF3FEFFC01318320838A859B856B
S11314902FEF3FEFFC01318320838981882F90E077
S11314A08936910509F414C18A369105DCF4853630
S11314B0910509F498C0863691055CF48130910554
S11314C009F44BC08436910509F46FC0892B99F156
S11314D04DC18736910509F4BAC0883691050CF0E0
S11314E0BEC097C08F36910509F488C08037910536
S11314F06CF48B36910509F406C18B3691050CF416
S1131500F6C08C36910509F40AC130C182389105C0
S113151009F411C1833891052CF48837910509F435
S113152087C024C18D38910509F4A7C0873C910573
S113153009F40EC11BC10E941801813009F013C1C6
S11315402C813D818A819B81B9010E9420018E8179
S11315509F81FC011182108206C10E941801813012
S113156009F003C18A819B818C34910561F48C81DB
S11315709D81BC018FEF0E9432018E819F81FC010D
S113158011821082F2C08A819B818235910509F013
S1131590ECC08C819D81BC0181E00E9432018E816E
S11315A09F81FC0111821082E0C08A819B81019697
S11315B079F40E942B04282F30E08E819F81FC0156
S11315C0318320838A859B85FC0111821082CEC0E1
S11315D08A810E943304282F30E08E819F81FC0190
S11315E031832083C3C02A853B85488559858E81F4
S11315F09F81BC0181E40E94D002B8C02A853B854A
S1131600488559858E819F81BC018FE40E94D00258
S1131610ADC00E945300282F30E08E819F81FC01D1
S1131620318320838A859B85FC01118210829EC0B0
S11316300E945B00282F30E08E819F81FC01318362
S113164020838A859B85FC01118210828FC02885A6
S113165039858E819F81B9010E94EB0287C00E9467
S113166063009C018E819F81FC01318320838A85E4
S11316709B85FC011182108279C08A819B81892B10
S113168089F48C819D81892B69F440E050E060E00D
S113169070E080E00E946C008E819F81FC011182C9
S11316A0108264C02C813D818A819B81A901BC0187
S11316B081E00E946C00282F30E08E819F81FC0124
S11316C0318320838A859B85FC01118210824EC060
S11316D02C813D818A819B81B9010E94FD02282FC2
S11316E030E08E819F81FC01318320833FC08A8159
S11316F09B810E940F03282F30E08E819F81FC0183
S11317003183208333C08A819B810E941C03282F4C
S113171030E08E819F81FC013183208327C08A8140
S11317209B810E942903282F30E08E819F81FC0138
S1131730318320831BC00E94420180E00E94330455
S11317408E819F8121E030E0FC01318320830EC033
S113175081E08093AA018E819F8121E030E0FC0129
S11317603183208303C0000001C000002B960FB614
S1131770F894DEBF0FBECDBFDF91CF911F910F91C3
S1131780FF90EF900895EF92FF920F931F93CF93E2
S1131790DF93CDB7DEB7A2970FB6F894DEBF0FBEC6
S11317A0CDBF80EC90E0FC01808188230CF052C016
S11317B06DEA71E084EA91E00E943E04898380919D
S11317C0A4019091A501292F2F938F9383E991E090
S11317D0892F8F9383E991E08F931F9281E28F93F6
S11317E0CE010296292F2F938F930E94DB0D8DB784
S11317F09EB708960FB6F894DEBF0FBECDBFCE01DC
S113180002960E94C4034091AD015091AE018091B3
S1131810A4019091A5010F2EFBEAEF2EF1E0FF2E1B
S1131820F02D01EB11E02FEA31E0BC0189810E9427
S11318301F0A2091AB013091AC014091B10150914C
S1131840B2018091AF019091B001BC0189810E94E5
S1131850F20701C00000A2960FB6F894DEBF0FBED7
S1131860CDBFDF91CF911F910F91FF90EF9008951D
S11318700E946C0C08F481E008950E94C00C88F06A
S11318809F5798F0B92F9927B751B0F0E1F0660F40
S1131890771F881F991F1AF0BA95C9F714C0B13081
S11318A091F00E94DA0CB1E008950C94DA0C672FE1
S11318B0782F8827B85F39F0B93FCCF386957795B0
S11318C06795B395D9F73EF4909580957095619599
S11318D07F4F8F4F9F4F0895990F0008550FAA0B04
S11318E0E0E8FEEF16161706E807F907C0F012162F
S11318F01306E407F50798F0621B730B840B950B32
S113190039F40A2661F0232B242B252B21F4089586
S11319100A2609F4A140A6958FEF811D811D089523
S113192097F99F6780E870E060E008959FEF80EC8E
S1131930089500240A941616170618060906089531
S113194000240A9412161306140605060895092E97
S11319500394000C11F4882352F0BB0F40F4BF2B06
S113196011F460FF04C06F5F7F4F8F4F9F4F089546
S113197057FD9058440F551F59F05F3F71F047953C
S1131980880F97FB991F61F09F3F79F08795089521
S1131990121613061406551FF2CF4695F1DF08C040
S11319A0161617061806991FF1CF8695710561055D
S11319B008940895E894BB2766277727CB0197F905
S11319C008950E946C0C08F48FEF08950E94F90C9E
S11319D00C94A70C0E94990C38F00E94A00C20F0E3
S11319E0952311F00C94900C0C94960C11240C94E7
S11319F0DB0C0E94B80C70F3959FC1F3950F50E077
S1131A00551F629FF001729FBB27F00DB11D639FAC
S1131A10AA27F00DB11DAA1F649F6627B00DA11D52
S1131A20661F829F2227B00DA11D621F739FB00DF8
S1131A30A11D621F839FA00D611D221F749F332768
S1131A40A00D611D231F849F600D211D822F762F01
S1131A506A2F11249F5750409AF0F1F088234AF0DE
S1131A60EE0FFF1FBB1F661F771F881F915050404A
S1131A70A9F79E3F510580F00C94900C0C94DB0C5C
S1131A805F3FE4F3983ED4F3869577956795B795D1
S1131A90F795E7959F5FC1F7FE2B880F911D9695EB
S1131AA0879597F90895AA1BBB1B51E107C0AA1F8C
S1131AB0BB1FA617B70710F0A61BB70B881F991FEB
S1131AC05A95A9F780959095BC01CD010895A1E29E
S1131AD01A2EAA1BBB1BFD010DC0AA1FBB1FEE1FA4
S1131AE0FF1FA217B307E407F50720F0A21BB30BEF
S1131AF0E40BF50B661F771F881F991F1A9469F76B
S1131B0060957095809590959B01AC01BD01CF01C6
S1131B100895FC0188279927E89421912032E9F35C
S1131B20293010F02E30C8F32B3241F02D3239F425
S1131B30689404C00E94D30D820F911D21912053FB
S1131B402A30C0F31EF4909581959F4F08954EE975
S1131B5051E00E94AC0D0895FA01A191B081009763
S1131B6019F41097E1F0CD01DC01CD010D900020B6
S1131B7011F4C00113C0FB012191222319F0201597
S1131B80D9F7F3CFFB012191201519F41E92119678
S1131B9006C02223C1F70D900020A1F7D001FA015D
S1131BA0A193B08308957AE0979F902D879F802D0D
S1131BB0910D11240895AEE0B0E0E1EEFDE00C9447
S1131BC0AA100D891E898F89988D26E02C831A838B
S1131BD0098397FF02C080E090E801979E838D837C
S1131BE0AE01455E5F4F698D7A8DCE0101960E94EC
S1131BF00B0E4D815E8157FD0AC02F813885421737
S1131C0053070CF49A01F801E20FF31F10822E9689
S1131C10E4E00C94C610ABE0B0E0E1E1FEE00C942B
S1131C209C106C017B018A01FC011782168283815E
S1131C3081FFCCC1CE0101963C01F6019381F701ED
S1131C4093FD859193FF81917F01882309F4BAC1A3
S1131C50853239F493FD859193FF81917F0185321B
S1131C6029F4B60190E00E940210E7CF912C212CB8
S1131C70312CFFE1F315D8F08B3279F038F480324F
S1131C8079F08332A1F4232D20611DC08D3261F0DF
S1131C90803369F4232D216016C0832D8260382E91
S1131CA0E32DE4603E2E2AC0F32DF8601DC037FCFE
S1131CB02DC020ED280F2A3040F08E32B9F436FCC6
S1131CC081C1232D2064322E19C036FE06C08AE05D
S1131CD0989E200D1124922E11C0EAE02E9E200D14
S1131CE01124222EF32DF0623F2E08C08C3621F4ED
S1131CF0832D8068382E02C0883641F4F70193FDA5
S1131D00859193FF81917F018111B3CF982F9F7D9E
S1131D109554933028F40C5F1F4F9FE399830DC0B3
S1131D20833631F0833771F0833509F059C021C00F
S1131D30F801808189830E5F1F4F88248394912C3E
S1131D40530113C02801F2E04F0E511CF801A0808A
S1131D50B18036FE03C0692D70E002C06FEF7FEFE3
S1131D60C5010E94F70F4C018201F32DFF773F2E2E
S1131D7016C0280122E0420E511CF801A080B18057
S1131D8036FE03C0692D70E002C06FEF7FEFC5011E
S1131D900E94EC0F4C01F32DF0683F2E820133FCBE
S1131DA01BC0822D90E088169906B0F4B60180E23B
S1131DB090E00E9402102A94F4CFF50137FC85913B
S1131DC037FE81915F01B60190E00E94021021105C
S1131DD02A9421E0821A91088114910471F7E8C0D1
S1131DE0843611F0893641F5F80137FE07C0608169
S1131DF07181828193810C5F1F4F08C06081718162
S1131E00072E000C880B990B0E5F1F4FF32DFF76E6
S1131E103F2E97FF09C090958095709561957F4FEF
S1131E208F4F9F4FF0683F2E2AE030E0A3010E94BD
S1131E303E10882E861845C0853731F4232D2F7E19
S1131E40B22E2AE030E025C0932D997FB92E8F362B
S1131E50C1F018F4883579F0B5C0803719F08837A7
S1131E6021F0B0C0E92FE061BE2EB4FE0DC0FB2D01
S1131E70F460BF2E09C034FE0AC0292F2660B22E9A
S1131E8006C028E030E005C020E130E002C020E1D7
S1131E9032E0F801B7FE07C06081718182819381CD
S1131EA00C5F1F4F06C06081718180E090E00E5F7F
S1131EB01F4FA3010E943E10882E8618FB2DFF772A
S1131EC03F2E36FE0DC0232D2E7FA22E891458F4EA
S1131ED034FE0BC032FC09C0832D8E7EA82E05C0B3
S1131EE0B82CA32C03C0B82C01C0B92CA4FE0FC07D
S1131EF0FE01E80DF11D8081803321F49A2D997E35
S1131F00A92E09C0A2FE06C0B394B39404C08A2DBE
S1131F10867809F0B394A3FC11C0A0FE06C0B214E5
S1131F2088F4280C922C9B180EC0B21460F4B601ED
S1131F3080E290E00E940210B394F7CFB21418F438
S1131F402B1802C0982C212CA4FE10C0B60180E3EB
S1131F5090E00E940210A2FE17C0A1FC03C088E713
S1131F6090E002C088E590E0B6010CC08A2D867826
S1131F7059F0A1FE02C08BE201C080E2A7FC8DE211
S1131F80B60190E00E940210891438F4B60180E38F
S1131F9090E00E9402109A94F7CF8A94F301E80D1E
S1131FA0F11D8081B60190E00E9402108110F5CFEE
S1131FB0222009F442CEB60180E290E00E94021091
S1131FC02A94F6CFF6018681978102C08FEF9FEFA6
S1131FD02B96E2E10C94B810FC010590615070401E
S1131FE00110D8F7809590958E0F9F1F0895FC01DE
S1131FF06150704001900110D8F7809590958E0F34
S11320009F1F08950F931F93CF93DF93FB012381A9
S113201021FD03C08FEF9FEF2CC022FF16C0468125
S11320205781248135814217530744F4A081B1813B
S11320309D012F5F3F4F318320838C93268137810D
S11320402F5F3F4F3783268314C08B01EC01FB01C4
S11320500084F185E02D0995892BE1F6D8011696C7
S11320608D919C911797019617969C938E93169732
S1132070CE01DF91CF911F910F910895FA01AA2704
S1132080283051F1203181F1E8946F936E7F6E5FB7
S11320907F4F8F4F9F4FAF4FB1E03ED0B4E03CD065
S11320A0670F781F891F9A1FA11D680F791F8A1F48
S11320B0911DA11D6A0F711D811D911DA11D20D0AF
S11320C009F468943F912AE0269F11243019305D69
S11320D03193DEF6CF010895462F4770405D41935A
S11320E0B3E00FD0C9F7F6CF462F4F70405D4A33A7
S11320F018F0495D31FD4052419302D0A9F7EACF6F
S1132100B4E0A6959795879577956795BA95C9F79D
S113211000976105710508959B01AC010A2E069490
S11321205795479537952795BA95C9F7620F731F49
S1132130841F951FA01D08952F923F924F925F9286
S11321406F927F928F929F92AF92BF92CF92DF92C3
S1132150EF92FF920F931F93CF93DF93CDB7DEB728
S1132160CA1BDB0B0FB6F894DEBF0FBECDBF0994BC
S11321702A88398848885F846E847D848C849B8413
S1132180AA84B984C884DF80EE80FD800C811B8121
S1132190AA81B981CE0FD11D0FB6F894DEBF0FBE50
S10D21A0CDBFED010895F894FFCFC0
S11321AA4C200052200041200D0A004552524F5241
S11321BA20636F756C64206E6F74207265636F6739
S11321CA6E697A6520434D440A004552524F5220A3
S11321DA4D25640A004552524F52204725640A008D
S11321EA4F4B20425553592047300A004F4B204247
S11321FA5553592047310A004F4B2058256420591A
S113220A2564204125640A004F4B2058256420592F
S113221A2564204F25640A004F4B204C2564205224
S113222A25640A004F4B204D34310A004F4B2025B8
S111223A640A00492069733A2025640A0000F2
S9030000FC
