S0200000726F626F7661635F6D6F64756C61725F736F6674776172652E73726563FB
S11300000C945A000C9477000C9477000C947700AD
S11300100C9477000C9477000C9477000C94770080
S11300200C9477000C9477000C9477000C94770070
S11300300C9477000C9477000C9488030C9477004C
S11300400C9477000C9477000C9477000C94770050
S11300500C9477000C9477000C9477000C94770040
S11300600C9477000C947700084AD73B3BCE016E82
S113007084BCBFFDC12F3D6C74319ABD56833DDAFB
S11300803D00C77F11BED9E4BB4C3E916BAAAABE0A
S1130090000000803F05A84CCDB2D44EB93836A933
S11300A0020C50B9918688083CA6AAAA2ABE000070
S11300B000803F0011241FBECFEFD8E0DEBFCDBFCC
S11300C011E0A0E0B1E0E0E9F6E202C005900D9293
S11300D0AA39B107D9F721E0AAE9B1E001C01D921C
S11300E0A13DB207E1F70E9477030C9446130C94E8
S11300F0000010927C00EAE7F0E08081876880834A
S1130100EEE7F0E080818160808380E00895ECE791
S1130110F0E08081807F8083EAE7F0E08081806482
S11301208083808186FDFDCF2091780080917900C5
S113013090E0982F8827820F911D08950E947900DE
S113014081E008950E948700BC01990F880B990BE8
S11301500E94B30D20E030E04AE754E40E94AD0E63
S11301602DEC38E144EF55E40E94090D0E94820D04
S113017060930001809100018E3118F481E4809332
S1130180CF018091000108958091CF0108950E94CC
S1130190A20008956091B0017091B1018091B20103
S11301A09091B30128EE33E040E050E00E94B90F93
S11301B0C9010895CF92DF92EF92FF920F931F939C
S11301C0CF93DF9300D0CDB7DEB7811114C0609117
S11301D0B0017091B1018091B2019091B30128EE08
S11301E033E040E050E00E94B90F3093CE012093F9
S11301F0CD0180E022C08130F9F46A017B011A82CA
S113020019826091B0017091B1018091B201909115
S1130210B30128EE33E040E050E00E94B90F8E01B4
S11302200F5F1F4FA601B7018091CD019091CE01C0
S11302300E94F103898101C08FEF0F900F90DF912D
S1130240CF911F910F91FF90EF90DF90CF90089581
S11302501092A7011092A8011092A9011092AA016C
S11302601092A3011092A4011092A5011092A6016C
S11302708FEF809301011092A2011092A1011092BC
S1130280A00110929C0110929D0110929E01109267
S11302909F018AB1806E8AB984B1876084B98BB1B9
S11302A080668BB981E08093AB0108958091AB01A6
S11302B0089528EE33E0DC010E94EA0F2091C0018A
S11302C03091C101032E000C440B550B0E94B90F51
S11302D02093A7013093A8014093A9015093AA0148
S11302E08091A20181608093A20181E008959B0125
S11302F080930101A8EEB3E00E94DB0F2091BE01C0
S11303003091BF01032E000C440B550B0E94B90F12
S11303102093A3013093A4014093A5015093A60117
S11303208091A20182608093A20181E008954F929E
S11303305F926F927F928F929F92AF92BF92CF9271
S1130340DF92EF92FF92CF93DF9300D000D0CDB72E
S1130350DEB72091A201211175C07B01BC0110926E
S1130360A1011092A0018091BC019091BD01C090A7
S1130370BA01D090BB01681B790B072E000C880BC7
S1130380990B0E94B30D4B015C01B7016C197D09F7
S1130390072E000C880B990B0E94B30D6B017C0196
S11303A0A50194010E94A50C0E947B0D2B013C0128
S11303B0A5019401C501B4010E94AD0E69837A833D
S11303C08B839C83A5019401C501B4010E94AD0EE9
S11303D04B015C01A7019601C701B6010E94AD0E55
S11303E09B01AC01C501B4010E94260C0E94280F98
S11303F00E947B0D6B017C015B018091B80190919F
S1130400B9019201281B390BC9011816190674F099
S11304108091B8019091B9019201281B390BC9014F
S1130420892F880F880B882329F001C081E0B2014D
S11304300E9477011A141B043CF4C6010E9459015E
S113044081E003C080E001C081E00F900F900F9025
S11304500F90DF91CF91FF90EF90DF90CF90BF90FE
S1130460AF909F908F907F906F905F904F90089582
S11304705F9A289A85B1866085B981E00895809154
S1130480A201813031F008F4B0C0843008F453C0C4
S1130490ACC08091A10181111FC081E08093A101B2
S11304A04091B0015091B1016091B2017091B301DA
S11304B08091A7019091A801A091A901B091AA01EE
S11304C0840F951FA61FB71F80939C0190939D01D5
S11304D0A0939E01B0939F014091B0015091B1014E
S11304E06091B2017091B30180919C0190919D0142
S11304F0A0919E01B0919F01481759076A077B0795
S113050028F45F98289A29982A9A6FC05F9A289AA3
S113051085B1866085B910929C0110929D0110925C
S11305209E0110929F011092A1018091A2018E7FE1
S11305308093A2015AC08091A00181111FC081E063
S11305408093A0014091B0015091B1016091B2013A
S11305507091B3018091A3019091A401A091A50190
S1130560B091A601840F951FA61FB71F80939C010D
S113057090939D01A0939E01B0939F014091B0017F
S11305805091B1016091B2017091B30180919C01CD
S113059090919D01A0919E01B0919F014817590728
S11305A06A077B0770F480910101813029F45F9818
S11305B0289A2A98299A19C05F9A289829982A9AD9
S11305C014C05F9A289A85B1866085B910929C01FF
S11305D010929D0110929E0110929F011092A00111
S11305E08091A2018D7F8093A20181E00895BC01D6
S11305F0E9EBF0E080818E7F808380818D7F808332
S113060080EA9FE00E94A50F862F603148F077278B
S113061060517109CB0199230CF401969595879546
S11306208093B800089584E690E00E94F702ECEB12
S1130630F0E080818460808308953C9A84EA80930A
S1130640BC0008958091BC0088234CF08AE590E0BA
S1130650ECEBF0E02081222314F00197D9F7089500
S1130660EFE9FFE03197F1F700C000003C9A809376
S1130670BB0084E88093BC0008950E941D030E947F
S113068022038CE30E9430030E94220382E00E9432
S113069030030E94220380E00E9430030E94220360
S11306A084E98093BC00089580E388B90E94130311
S11306B00E943D03089582E084BD92E895BD98ECC4
S11306C097BD80936E00089560E875E280E090E045
S11306D00E94D9060E9454030E94D7050E949E00DE
S11306E00E945B030E9428010E94770408950E94DF
S11306F0640378941092D0018091D001811106C0D6
S11307000E94D70B8091D0018823D1F3F894EFCFC6
S11307101F920F920FB60F9211242F933F934F9372
S11307205F936F937F938F939F93AF93BF93EF9355
S1130730FF930E94C6030E944C060E943F028091D0
S1130740AC019091AD0101969093AD018093AC0101
S11307508091AC019091AD01883E934031F41092A8
S1130760AD011092AC010E94E904FF91EF91BF9199
S1130770AF919F918F917F916F915F914F913F9135
S11307802F910F900FBE0F901F9018958091AE017E
S11307909091AF0101969093AF018093AE01809147
S11307A0AE019091AF01883E9340D1F41092AF0115
S11307B01092AE018091B0019091B101A091B2016B
S11307C0B091B30120910201820F911DA11DB11DB1
S11307D08093B0019093B101A093B201B093B3019F
S11307E008958F929F92AF92BF92CF92DF92EF9231
S11307F0FF920F931F93FC01CB01B9016E1B7F0B7A
S1130800DA01A81BB90B6A1B7B0BD8016D937C938F
S1130810C090B001D090B101E090B201F090B3016A
S1130820092E000CAA0BBB0B4F01FF0FAA08BB0833
S113083088199909AA09BB09052E000C660B770BC8
S11308408901330F220B330B401B510B620B730BCB
S1130850480F591F6A1F7B1FDB01CA0177231CF451
S11308600196A11DB11D9C01AD0155954795379584
S11308702795A8EEB3E00E94F10FC60ED71EE81E1E
S1130880F91EC092B001D092B101E092B201F0928F
S1130890B3016091B0017091B1018091B201909166
S11308A0B30128EE33E040E050E00E94B90FC901E3
S11308B01F910F91FF90EF90DF90CF90BF90AF907A
S11308C09F908F9008958091AE019091AF0126B5CD
S11308D0019634E6389FB001399F700D112482E3EC
S11308E0289F600D711D112480E090E008951092FE
S11308F0C1011092C0011092BF011092BE0181E0AB
S113090008950E94D90508950F931F93CF93DF9301
S113091000D000D0CDB7DEB7E091BC01F091BD01AD
S1130920DB01ED93FC936091BA017091BB01FA0174
S1130930718360838F3401F5890180E991E09C83A0
S11309408B839A838983BE016F5F7F4FCE010396A9
S11309500E9481048B819C810F9724F089819A8164
S11309600F9734F481E090E0D8018D939C930BC0F1
S1130970F8011182108207C08091B8019091B901E9
S1130980D9018D939C9380E00F900F900F900F905E
S1130990DF91CF911F910F9108959093BD018093A2
S11309A0BC017093BB016093BA0181E008959093F8
S11309B0B9018093B80181E008959093C1018093B7
S11309C0C00181E008959093BF018093BE0181E04E
S11309D008954F925F926F927F928F929F92AF92FF
S11309E0BF92CF92DF92EF92FF92CF93DF9300D02A
S11309F000D000D0CDB7DEB78091A101813009F0DD
S1130A00B0C08090B0019090B101A090B201B090BC
S1130A10B3014090B4015090B5016090B60170905C
S1130A20B701C090C001D090C1010D2C000CEE089C
S1130A30FF086091B8017091B901072E000C880B72
S1130A40990B0E94B30D29E23CE54FE85CE30E9458
S1130A50AD0E0E94040D69837A838B839C8320915D
S1130A60BC013091BD013E832D83A501940124195D
S1130A70350946095709C701B6010E94950F0E941E
S1130A80B10D29813A814B815C810E94AD0E4B01ED
S1130A905C012D813E81B901330F880B990B0E94B3
S1130AA0B30D9B01AC01C501B4010E94260C0E9448
S1130AB07B0D7093BD016093BC018090B001909058
S1130AC0B101A090B201B090B3014090B401509034
S1130AD0B5016090B6017090B7016091B801709152
S1130AE0B901072E000C880B990B0E94B30D29E263
S1130AF03CE54FE85CE30E94AD0E0E941A0F698347
S1130B007A838B839C838091BA019091BB019E83ED
S1130B108D83A50194012419350946095709C70194
S1130B20B6010E94950F0E94B10D29813A814B8133
S1130B305C810E94AD0E6B017C012D813E81B90167
S1130B40330F880B990B0E94B30D9B01AC01C701B5
S1130B50B6010E94260C0E947B0D7093BB0160932A
S1130B60BA018091B0019091B101A091B201B0910C
S1130B70B3018093B4019093B501A093B601B093EF
S1130B80B70181E026960FB6F894DEBF0FBECDBF45
S1130B90DF91CF91FF90EF90DF90CF90BF90AF9017
S1130BA09F908F907F906F905F904F900895549A8C
S1130BB00895CF92DF92EF92FF920F931F93CF93FA
S1130BC0DF938C01EB018091C6019091C701A09144
S1130BD0C801B091C901BC01CD019695879577955F
S1130BE067950E94B10D28E23EE74CE05DE30E9468
S1130BF0AD0E0E947B0D6B017C018091C20190912E
S1130C00C301A091C401B091C501BC01CD01969569
S1130C108795779567950E94B10D28E23EE74CE0F1
S1130C205DE30E94AD0E0E947B0D960141E9C4165E
S1130C3041E0D40614F020E931E0F8013183208347
S1130C406139F1E07F0714F060E971E0798368832A
S1130C505C9A4AE64A95F1F700C05C981092C60186
S1130C601092C7011092C8011092C9011092C201DA
S1130C701092C3011092C4011092C50181E08093C7
S1130C80CB018093CA01DF91CF911F910F91FF9007
S1130C90EF90DF90CF9008950F931F938091CB0135
S1130CA0813079F44B9B0DC00E9463046093C601AC
S1130CB07093C7018093C8019093C90182E0809327
S1130CC0CB018091CB01823069F54B992BC00E94F6
S1130CD063040091C6011091C7012091C8013091AD
S1130CE0C901601771078207930720F4605679479A
S1130CF08E4F9F4F0091C6011091C7012091C801EA
S1130D003091C901DC01CB01801B910BA20BB30B09
S1130D108093C6019093C701A093C801B093C90101
S1130D201092CB018091CA01813079F44A9B0DC0A5
S1130D300E9463046093C2017093C3018093C40151
S1130D409093C50182E08093CA018091CA018230E8
S1130D5069F54A992BC00E9463040091C201109165
S1130D60C3012091C4013091C50160177107820746
S1130D70930720F4605679478E4F9F4F0091C2012C
S1130D801091C3012091C4013091C501DC01CB0154
S1130D90801B910BA20BB30B8093C2019093C301F0
S1130DA0A093C401B093C5011092CA011F910F9181
S1130DB00895DC01CB01880F991FAA1FBB1F880F60
S1130DC0991FAA1FBB1F9C01AD01220F331F441F93
S1130DD0551F60E074E284EF90E00E94B90F215047
S1130DE0310982E08093C0003093C5002093C40091
S1130DF088E18093C10086E08093C2000895E0EC0E
S1130E00F0E0908195FFFDCF8093C6000895E0EC5B
S1130E10F0E080818823ECF78091C6000895CF9399
S1130E20DF93EC018881882331F021960E94FF062C
S1130E3089918111FBCFDF91CF910895EF92FF92B9
S1130E401F93CF93DF93EC017B010E9407078A3045
S1130E50A9F091E0E91AF1081E141F047CF410E0D3
S1130E602196FE01319780831F5F0E9407078A3015
S1130E7029F0212F30E02E153F0594F31882CE017E
S1130E80DF91CF911F91FF90EF9008958091CC0155
S1130E9008958093CC01813039F48091CF0181345D
S1130EA019F0419A81E00895419880E00895CF9225
S1130EB0DF92EF92FF920F931F93CF93DF93CDB7FF
S1130EC0DEB7A5970FB6F894DEBF0FBECDBF7C0189
S1130ED08B0160E270E0CE0101960E941E078981B9
S1130EE0873421F08D3409F476C0F6C18A818033C9
S1130EF009F0F4C18B818033B1F58C81803209F023
S1130F00EFC188E599E59AA389A380E290E09CA3C8
S1130F108BA3BE016F5D7F4FCE0101960E941A1014
S1130F20892BE9F0BE016F5D7F4F80E090E00E9465
S1130F301A106C010E94FC0FF70191838083CD2865
S1130F4081F0BE016F5D7F4F80E090E00E941A1037
S1130F500E94FC0FF8019183808380E0DCC18FEF55
S1130F60DAC18FEFD8C1813309F0BCC18C818032E2
S1130F7009F0BAC18D818C3461F48CE490E0F701FE
S1130F80918380830F2EF3E0EF2EF1E0FF2EF02DFE
S1130F900EC0823509F0AAC182E590E0F701918381
S1130FA080830F2EF6E0EF2EF1E0FF2EF02DB70137
S1130FB0CE0101960E941A10892B09F499C1B70138
S1130FC080E090E00E941A100E94FC0FF8019183C7
S1130FD0808381E0A0C18A81803309F0FFC08B81C6
S1130FE08033D1F48C81803259F48D81833541F47E
S1130FF0CE0106960E94FC0FF7019183808305C001
S11310008FEF9FEFF701918380838FEF9FEFF801BC
S11310109183808384E67FC1813351F48FEF9FEF06
S1131020F70191838083F8019183808385E673C1FE
S1131030823351F48FEF9FEFF70191838083F8019E
S11310409183808386E667C1833351F48FEF9FEFEA
S1131050F70191838083F8019183808387E65BC1E4
S1131060843351F48FEF9FEFF70191838083F8016C
S11310709183808388E64FC18533B1F59C8190329A
S113108009F05DC088E599E59AA389A380E290E020
S11310909CA38BA3BE016F5D7F4FCE0101960E947E
S11310A01A10892BE9F0BE016F5D7F4F80E090E05C
S11310B00E941A106C010E94FC0FF7019183808337
S11310C0CD2881F0BE016F5D7F4F80E090E00E94EB
S11310D01A100E94FC0FF8019183808389E61BC1DA
S11310E08FEF19C18FEF17C1863349F59C81903278
S11310F009F04CC085E0E9E0F1E0DE019196019051
S11311000D928A95E1F7BE016F5D7F4FCE01019686
S11311100E941A10892B89F0BE016F5D7F4F80E019
S113112090E00E941A100E94FC0FF70191838083C3
S1131130F801118210828AE6EEC08FEFECC087338B
S113114029F58C81803209F0D5C083E590E29AA319
S113115089A31BA2BE016F5D7F4FCE0101960E9441
S11311601A10892B89F0BE016F5D7F4F80E090E0FB
S11311700E941A100E94FC0FF70191838083F801EA
S1131180118210828BE6C7C08FEFC5C0883309F087
S1131190B3C08C81803209F0B1C083E590E29AA398
S11311A089A31BA2BE016F5D7F4FCE0101960E94F1
S11311B01A10892B89F0BE016F5D7F4F80E090E0AB
S11311C00E941A100E94FC0FF70191838083F8019A
S11311D0118210828CE69FC08FEF9DC0893361F429
S11311E08B81893309F08CC0F70111821082F801D8
S11311F01182108287EC8FC0833361F48B8180333A
S113120009F080C0F70111821082F8011182108266
S113121082E881C0813361F48B81813309F074C029
S1131220F70111821082F801118210828FE673C0D7
S1131230823361F48B81803309F068C0F701118235
S11312401082F8011182108288E765C0843309F0A6
S11312505FC08B81813309F05DC08C81803241F0A5
S1131260F70111821082F801118210828DE853C0B7
S113127080910E0190910F01A0911001B091110184
S113128089A39AA3ABA3BCA3BE016F5D7F4FCE011C
S113129001960E941A10892BE9F0BE016F5D7F4F01
S11312A080E090E00E941A106C010E94FC0FF7018C
S11312B091838083CD2871F0BE016F5D7F4F80E004
S11312C090E00E941A100E94FC0FF8019183808321
S11312D08DE821C08FEF1FC08FEF1DC08FEF1BC0A3
S11312E08FEF19C08FEF17C08FEF15C08FEF13C0AA
S11312F08FEF11C08FEF0FC08FEF0DC08FEF0BC0BA
S11313008FEF09C08FEF07C08FEF05C08FEF03C0C9
S11313108FEF01C08FEFA5960FB6F894DEBF0FBE16
S1131320CDBFDF91CF911F910F91FF90EF90DF9090
S1131330CF9008950F931F93CF93DF93CDB7DEB76C
S11313406F970FB6F894DEBF0FBECDBF8F3F71F419
S11313508FE1EBE5F1E0DE01119601900D928A95A3
S1131360E1F7CE0101960E940F070FC16F3F9FEF77
S11313707907B1F58436D8F099E2899F812D11243B
S113138082958F701F928F9382E191E09F938F9348
S11313901F928BE08F93CE0101969F938F930E94AF
S11313A04E100FB6F894DEBF0FBECDBF14C01F920F
S11313B08F938DE191E09F938F931F928BE08F9396
S11313C0CE0101969F938F930E944E100FB6F8940E
S11313D0DEBF0FBECDBFCE0101960E940F07D5C060
S11313E0853661F128F4882369F08130C9F0A5C0FD
S11313F08F3609F440C08D3809F475C0873609F07A
S11314009CC056C08CE0EAE7F1E0DE011196019041
S11314100D928A95E1F7CE0101960E940F07B5C09F
S11314208CE0E6E8F1E0DE01119601900D928A95D8
S1131430E1F7CE0101960E940F07A7C03F932F93B7
S11314405F934F937F936F9388E291E09F938F9381
S11314501F9289E18F938E010F5F1F4F1F930F938C
S11314600E944E10C8010E940F070FB6F894DEBF09
S11314700FBECDBF8AC03F932F935F934F937F934B
S11314806F9388E391E09F938F931F9289E18F93E9
S11314908E010F5F1F4F1F930F930E944E10C801C0
S11314A00E940F070FB6F894DEBF0FBECDBF6DC00C
S11314B03F932F935F934F9388E491E09F938F938F
S11314C01F9282E18F938E010F5F1F4F1F930F9323
S11314D00E944E10C8010E940F070FB6F894DEBF99
S11314E00FBECDBF52C02F3F3F4F71F488E0E2E9F9
S11314F0F1E0DE01119601900D928A95E1F7CE019B
S113150001960E940F0741C07F936F9384E591E099
S11315109F938F931F928AE08F938E010F5F1F4FCB
S11315201F930F930E944E10C8010E940F070FB61D
S1131530F894DEBF0FBECDBF28C02F3F3F4F69F4E4
S11315408FE49BE49A8389838AE090E09C838B8375
S1131550CE0101960E940F0718C07F936F9384E514
S113156091E09F938F931F928AE08F938E010F5F78
S11315701F4F1F930F930E944E10C8010E940F0724
S11315800FB6F894DEBF0FBECDBF6F960FB6F894BA
S1131590DEBF0FBECDBFDF91CF911F910F91089594
S11315A0AF92BF92CF92DF92EF92FF920F931F936D
S11315B0CF93DF936B015A01E9012FEF3FEF39839A
S11315C02883F80131832083F7013183208389360E
S11315D009F4B4C088F4853609F466C038F481305F
S11315E099F130F1843609F44BC0D6C0873609F43A
S11315F07BC008F467C080C08F3609F45CC048F42F
S11316008B3609F4AAC008F4A1C08C3609F4ACC026
S1131610C3C0823809F4AFC020F4883709F45BC032
S1131620BBC08D3809F470C0873C09F4AEC0B4C0A7
S11316300E945601813009F0AFC0B501C6010E9475
S1131640970119821882A8C00E945601813009F0BE
S1131650A3C0FCE4CF16D10439F4B5018FEF0E9486
S113166077011982188298C082E5C816D10409F05E
S113167093C0B50181E00E947701198218828CC061
S11316806F3FEFEF7E0749F40E94460790E099838D
S11316908883F701118210827FC0862F0E94490738
S11316A090E09983888378C09701A801BE0181E402
S11316B00E94840471C09701A801BE018FE40E94B6
S11316C084046AC00E94C40090E099838883F7016F
S11316D01182108261C00E94C70090E099838883C0
S11316E0F7011182108258C0B701C8010E94810419
S11316F090E09983888350C00E94CA0099838883AC
S1131700F7011182108248C0672B61F4452B51F414
S113171040E050E060E070E080E00E94DA0019826E
S113172018823AC0A501B60181E00E94DA0090E077
S113173099838883F701118210822EC0BA01C601F1
S11317400E94CD0490E09983888326C0CB010E9437
S1131750D70490E0998388831FC0CB010E94DD04E5
S113176090E09983888318C0CB010E94E30490E041
S11317709983888311C00E94380280E00E9449073F
S113178081E090E09983888307C081E08093D00151
S113179081E090E099838883DF91CF911F910F912D
S11317A0FF90EF90DF90CF90BF90AF900895DF92BD
S11317B0EF92FF920F931F93CF93DF93CDB7DEB7D2
S11317C02A970FB6F894DEBF0FBECDBF8091C0003C
S11317D088236CF58FEF9FEF9A8389839C838B8397
S11317E09E838D8398878F839A878987BE016D5FD7
S11317F07F4FCE0101960E945707D82E4B815C8102
S113180069817A81CE0109967C018E01095F1F4F9F
S11318109E012B5F3F4F8D2D0E94D00A29853A856A
S11318204F8158856D817E818D2D0E949A092A965B
S11318300FB6F894DEBF0FBECDBFDF91CF911F91DD
S11318400F91FF90EF90DF9008955058BB27AA277F
S11318500E943D0C0C94570E0E941E0E38F00E94FC
S1131860250E20F039F49F3F19F426F40C94F40D5E
S11318700EF4E095E7FB0C94EE0DE92F0E947C0E2C
S113188058F3BA17620773078407950720F079F4B1
S1131890A6F50C949E0E0EF4E0950B2EBA2FA02DF7
S11318A00B01B90190010C01CA01A0011124FF2709
S11318B0591B99F0593F50F4503E68F11A16F04004
S11318C0A22F232F342F4427585FF3CF4695379503
S11318D02795A795F0405395C9F77EF41F16BA0BC8
S11318E0620B730B840BBAF09150A1F0FF0FBB1F76
S11318F0661F771F881FC2F70EC0BA0F621F731FBF
S1131900841F48F4879577956795B795F7959E3F1B
S113191008F0B0CF9395880F08F09927EE0F9795AC
S1131920879508950E941E0E60F080E891E009F406
S11319309EEF0E94250E28F040E851E071F45EEF1E
S11319400CC00C94F40D0C949E0EE92FE0780E94C8
S11319507C0E40F3092E052AB1F3261737074807F2
S1131960590738F00E2E07F8E02569F0E025E06409
S11319700AC0EF6307F8009407FADB01B9019D017F
S1131980DC01CA01AD01EF930E94200D0E94570EA5
S11319900E94D50C5F91552339F02BED3FE049E4CB
S11319A050FD49EC0C94260C0895DF93DD27B92FE4
S11319B0BF7740E85FE31616170648075B0718F47D
S11319C0D92F0E94A50E9F938F937F936F930E94AC
S11319D0680FE8E6F0E00E94F70D0E94570E2F9181
S11319E03F914F915F910E94C00EDD2351F09058BA
S11319F0A2EA2AED3FE049EC5FE3D0785D270E943C
S1131A003D0CDF910C94570E0E942E0EE3950C941E
S1131A10680E0E941D0D0C94570E0E94250E58F05E
S1131A200E941E0E40F029F45F3F29F00C94EE0D45
S1131A3051110C949F0E0C94F40D0E947C0E68F3CB
S1131A409923B1F3552391F3951B550BBB27AA2773
S1131A5062177307840738F09F5F5F4F220F331FAD
S1131A60441FAA1FA9F335D00E2E3AF0E0E832D075
S1131A7091505040E695001CCAF72BD0FE2F29D078
S1131A80660F771F881FBB1F261737074807AB074A
S1131A90B0E809F0BB0B802DBF01FF2793585F4FBF
S1131AA03AF09E3F510578F00C94EE0D0C949F0E85
S1131AB05F3FE4F3983ED4F3869577956795B795A1
S1131AC0F7959F5FC9F7880F911D9695879597F9AC
S1131AD00895E1E0660F771F881FBB1F6217730725
S1131AE08407BA0720F0621B730B840BBA0BEE1F3A
S1131AF088F7E09508950E94820D6894B1110C94C2
S1131B009F0E08950E94840E88F09F5798F0B92F75
S1131B109927B751B0F0E1F0660F771F881F991F1E
S1131B201AF0BA95C9F714C0B13091F00E949E0E14
S1131B30B1E008950C949E0E672F782F8827B85F24
S1131B4039F0B93FCCF3869577956795B395D9F776
S1131B503EF490958095709561957F4F8F4F9F4F80
S1131B600895E89409C097FB3EF49095809570958C
S1131B7061957F4F8F4F9F4F9923A9F0F92F96E9D5
S1131B80BB279395F695879577956795B795F1114A
S1131B90F8CFFAF4BB0F11F460FF1BC06F5F7F4FE7
S1131BA08F4F9F4F16C0882311F096E911C07723F9
S1131BB021F09EE8872F762F05C0662371F096E802
S1131BC0862F70E060E02AF09A95660F771F881FD1
S1131BD0DAF7880F9695879597F9089597F99F678F
S1131BE080E870E060E008959FEF80EC0895DF9353
S1131BF0CF931F930F93FF92EF92DF927B018C019F
S1131C00689406C0DA2EEF010E94C00EFE01E8942B
S1131C10A5912591359145915591A6F3EF010E9427
S1131C203D0CFE019701A801DA9469F7DF90EF906B
S1131C30FF900F911F91CF91DF91089500240A9492
S1131C401616170618060906089500240A94121693
S1131C5013061406050608950C94F40D0E94840ED0
S1131C60D8F3E894E0E0BB279F57F0F02AED3FE07B
S1131C7049EC06C0EE0FBB0F661F771F881F28F0C4
S1131C80B23A62077307840728F0B25A620B730BE7
S1131C90840BE3959A9572F7803830F49A95BB0FCC
S1131CA0661F771F881FD2F790480C946E0F092E79
S1131CB00394000C11F4882352F0BB0F40F4BF2BA3
S1131CC011F460FF04C06F5F7F4F8F4F9F4F0895E3
S1131CD0EF93E0FF07C0A2EA2AED3FE049EC5FEB97
S1131CE00E943D0C0E94570E0F90039401FC9058E3
S1131CF0E5E9F0E00C94810F57FD9058440F551F0F
S1131D0059F05F3F71F04795880F97FB991F61F079
S1131D109F3F79F087950895121613061406551FF0
S1131D20F2CF4695F1DF08C0161617061806991F5C
S1131D30F1CF86957105610508940895E894BB2751
S1131D4066277727CB0197F908959B01AC0160E0E2
S1131D5070E080E89FE30C94090D0E94C00E0C947F
S1131D60570E0E941E0E38F00E94250E20F0952377
S1131D7011F00C94EE0D0C94F40D11240C949F0EA0
S1131D800E947C0E70F3959FC1F3950F50E0551F90
S1131D90629FF001729FBB27F00DB11D639FAA27BC
S1131DA0F00DB11DAA1F649F6627B00DA11D661F0B
S1131DB0829F2227B00DA11D621F739FB00DA11D2C
S1131DC0621F839FA00D611D221F749F3327A00DE6
S1131DD0611D231F849F600D211D822F762F6A2F82
S1131DE011249F5750409AF0F1F088234AF0EE0FE7
S1131DF0FF1FBB1F661F771F881F91505040A9F714
S1131E009E3F510580F00C94EE0D0C949F0E5F3FA5
S1131E10E4F3983ED4F3869577956795B795F7954F
S1131E20E7959F5FC1F7FE2B880F911D96958795C7
S1131E3097F908959F930E942E0E0F9007FCEE5F72
S1131E400C94680E19F416F40C94F40D0C946C0FA5
S1131E500E94840EB8F39923C9F3B6F39F57550B28
S1131E6087FF0E947A0F0024A0E640EA9001805880
S1131E705695979528F4805C660F771F881F20F08D
S1131E8026173707480730F4621B730B840B20298D
S1131E9031294A2BA69517940794202531254A27E2
S1131EA058F7660F771F881F20F026173707480753
S1131EB030F4620B730B840B200D311D411DA09572
S1131EC081F7B901842F9158880F969587950895C5
S1131ED09B01AC010C94AD0E9F3F31F0915020F466
S1131EE0879577956795B795880F911D96958795F2
S1131EF097F9089591505040660F771F881FD2F7C5
S1131F0008959F938F937F936F93FF93EF939B0118
S1131F10AC010E94AD0EEF91FF910E94F70D2F913D
S1131F203F914F915F910C94AD0EDB018F939F9382
S1131F300E94F10FBF91AF91A29F800D911DA39FAD
S1131F40900DB29F900D11240895AA1BBB1B51E163
S1131F5007C0AA1FBB1FA617B70710F0A61BB70B15
S1131F60881F991F5A95A9F780959095BC01CD01BA
S1131F700895A1E21A2EAA1BBB1BFD010DC0AA1FC6
S1131F80BB1FEE1FFF1FA217B307E407F50720F0DE
S1131F90A21BB30BE40BF50B661F771F881F991F59
S1131FA01A9469F760957095809590959B01AC01A2
S1131FB0BD01CF010895A29FB001B39FC001A39FAB
S1131FC0700D811D1124911DB29F700D811D11246E
S1131FD0911D08950E94DB0FB7FF0895821B930B98
S1131FE008950E94DB0FA59F900DB49F900DA49FB0
S1131FF0800D911D11240895FC0188279927E894E8
S113200021912032E9F3293010F02E30C8F32B321D
S113201041F02D3239F4689404C00E944610820FB6
S1132020911D219120532A30C0F31EF4909581957F
S11320309F4F08954AE951E00E941F100895FA0144
S1132040A191B081009719F41097E1F0CD01DC0162
S1132050CD010D90002011F4C00113C0FB012191AA
S1132060222319F02015D9F7F3CFFB012191201574
S113207019F41E92119606C02223C1F70D90002078
S1132080A1F7D001FA01A193B08308957AE0979F54
S1132090902D879F802D910D11240895AEE0B0E01E
S11320A0E4E5F0E10C941D130D891E898F89988D48
S11320B026E02C831A83098397FF02C080E090E80E
S11320C001979E838D83AE01455E5F4F698D7A8D46
S11320D0CE0101960E947E104D815E8157FD0AC09B
S11320E02F813885421753070CF49A01F801E20F47
S11320F0F31F10822E96E4E00C943913ABE0B0E0A9
S1132100E4E8F0E10C940F136C017B018A01FC01FB
S113211017821682838181FFCCC1CE0101963C01D6
S1132120F6019381F70193FD859193FF81917F01DE
S1132130882309F4BAC1853239F493FD859193FF5C
S113214081917F01853229F4B60190E00E947512D5
S1132150E7CF912C212C312CFFE1F315D8F08B32F1
S113216079F038F4803279F08332A1F4232D2061A0
S11321701DC08D3261F0803369F4232D216016C0B7
S1132180832D8260382EE32DE4603E2E2AC0F32D89
S1132190F8601DC037FC2DC020ED280F2A3040F018
S11321A08E32B9F436FC81C1232D2064322E19C03D
S11321B036FE06C08AE0989E200D1124922E11C08E
S11321C0EAE02E9E200D1124222EF32DF0623F2EE4
S11321D008C08C3621F4832D8068382E02C08836DE
S11321E041F4F70193FD859193FF81917F01811162
S11321F0B3CF982F9F7D9554933028F40C5F1F4FD5
S11322009FE399830DC0833631F0833771F08335B2
S113221009F059C021C0F801808189830E5F1F4FE6
S113222088248394912C530113C02801F2E04F0EAB
S1132230511CF801A080B18036FE03C0692D70E006
S113224002C06FEF7FEFC5010E946A124C01820148
S1132250F32DFF773F2E16C0280122E0420E511CB9
S1132260F801A080B18036FE03C0692D70E002C081
S11322706FEF7FEFC5010E945F124C01F32DF068F0
S11322803F2E820133FC1BC0822D90E088169906F4
S1132290B0F4B60180E290E00E9475122A94F4CF63
S11322A0F50137FC859137FE81915F01B60190E01D
S11322B00E94751221102A9421E0821A9108811437
S11322C0910471F7E8C0843611F0893641F5F801BC
S11322D037FE07C060817181828193810C5F1F4F3B
S11322E008C060817181072E000C880B990B0E5F6A
S11322F01F4FF32DFF763F2E97FF09C090958095D1
S1132300709561957F4F8F4F9F4FF0683F2E2AE065
S113231030E0A3010E94B112882E861845C085378B
S113232031F4232D2F7EB22E2AE030E025C0932DE8
S1132330997FB92E8F36C1F018F4883579F0B5C07D
S1132340803719F0883721F0B0C0E92FE061BE2E44
S1132350B4FE0DC0FB2DF460BF2E09C034FE0AC0CC
S1132360292F2660B22E06C028E030E005C020E107
S113237030E002C020E132E0F801B7FE07C060811E
S11323807181828193810C5F1F4F06C060817181CE
S113239080E090E00E5F1F4FA3010E94B112882ECF
S11323A08618FB2DFF773F2E36FE0DC0232D2E7F82
S11323B0A22E891458F434FE0BC032FC09C0832DBC
S11323C08E7EA82E05C0B82CA32C03C0B82C01C047
S11323D0B92CA4FE0FC0FE01E80DF11D80818033ED
S11323E021F49A2D997EA92E09C0A2FE06C0B394A9
S11323F0B39404C08A2D867809F0B394A3FC11C069
S1132400A0FE06C0B21488F4280C922C9B180EC0AF
S1132410B21460F4B60180E290E00E947512B394A5
S1132420F7CFB21418F42B1802C0982C212CA4FE58
S113243010C0B60180E390E00E947512A2FE17C09E
S1132440A1FC03C088E790E002C088E590E0B601F3
S11324500CC08A2D867859F0A1FE02C08BE201C01F
S113246080E2A7FC8DE2B60190E00E947512891407
S113247038F4B60180E390E00E9475129A94F7CF85
S11324808A94F301E80DF11D8081B60190E00E9469
S113249075128110F5CF222009F442CEB60180E2F4
S11324A090E00E9475122A94F6CFF60186819781F6
S11324B002C08FEF9FEF2B96E2E10C942B13FC01EB
S11324C00590615070400110D8F7809590958E0F5B
S11324D09F1F0895FC016150704001900110D8F7CE
S11324E0809590958E0F9F1F08950F931F93CF9300
S11324F0DF93FB01238121FD03C08FEF9FEF2CC0ED
S113250022FF16C046815781248135814217530723
S113251044F4A081B1819D012F5F3F4F318320831B
S11325208C93268137812F5F3F4F3783268314C0D6
S11325308B01EC01FB010084F185E02D0995892BC9
S1132540E1F6D80116968D919C91179701961796EE
S11325509C938E931697CE01DF91CF911F910F918B
S11325600895FA01AA27283051F1203181F1E89425
S11325706F936E7F6E5F7F4F8F4F9F4FAF4FB1E072
S11325803ED0B4E03CD0670F781F891F9A1FA11D6D
S1132590680F791F8A1F911DA11D6A0F711D811D6E
S11325A0911DA11D20D009F468943F912AE0269F33
S11325B011243019305D3193DEF6CF010895462F92
S11325C04770405D4193B3E00FD0C9F7F6CF462F73
S11325D04F70405D4A3318F0495D31FD40524193DC
S11325E002D0A9F7EACFB4E0A69597958795779599
S11325F06795BA95C9F700976105710508959B0120
S1132600AC010A2E06945795479537952795BA95A8
S1132610C9F7620F731F841F951FA01D08952F9281
S11326203F924F925F926F927F928F929F92AF925E
S1132630BF92CF92DF92EF92FF920F931F93CF93AB
S1132640DF93CDB7DEB7CA1BDB0B0FB6F894DEBF42
S11326500FBECDBF09942A88398848885F846E8468
S11326607D848C849B84AA84B984C884DF80EE80B2
S1132670FD800C811B81AA81B981CE0FD11D0FB6BB
S1132680F894DEBF0FBECDBFED010895F894FFCFDF
S11326907CFF604C200052200041200D0A00494F6D
S11326A020004552524F52204D25640A0045525293
S11326B04F52204725640A004F4B20582564205967
S11326C02564204125640A004F4B20582564205975
S11326D02564204F25640A004F4B204C256420526A
S11326E025640A004F4B2025640A004552524F527C
S11326F020636F756C64206E6F74207265636F67FE
S11327006E697A6520434D440A004F4B204255536D
S1132710592047300A004F4B204255535920473126
S10D27200A004F4B204D34310A002B
S9030000FC
